:0200000420409A
:100000009711C05F9381810997020000938282015A
:100010007390523093021000638402007350107C7E
:100020009702000093828215739052301701C0DF4F
:10003000130141FD63140100138181D0732540F148
:10004000814213030040137101FF6385A2001A91DE
:100050008502D5BF970000009380A0046383000051
:100060008290732540F181450146392A9700C0DF0F
:10007000938040F96383000082909702000093828E
:10008000C2007390523003230000F5BF000000004F
:100090008280232003001103E34D73FE82800684D7
:1000A0009702C0DF938202F66385020C9702C0DFDD
:1000B000938242F5F32740F1A14673B00630639670
:1000C000570A1703C0DF1303E3F39703C0DF9383DB
:1000D00063F3630E7300753F1703C0DF130383F2EE
:1000E0009703C0DF938303F2630373005D37170345
:1000F000C05F130323F19703C15F9383A3F06303EE
:100100007300413F1703C0DF1303C3EF9703C0DF42
:10011000938343EF63037300AD3F1703C0DF130303
:1001200063EE9703C0DF9383E3ED630373009537BA
:100130001703C0DF130303ED9703C0DF938383EC42
:1001400063037300B9371703C0DF1303A3EB9703EF
:10015000C0DF938323EB63037300253F370700025F
:1001600085471CC30F00300129A0370700021C433C
:10017000EDDFA28082800000F3222034732310344C
:10018000F3233034D5BF828006849711C05F9381FA
:10019000E1F0930200006317550A97420000938232
:1001A000E23F1703C05F1303E3E59703C05F938348
:1001B0006374638C6200635A730003A502009102AA
:1001C0002320A3001103E34A73FE971200009382D9
:1001D00062CE1703C05F1303E3E29703C05F93830C
:1001E00063E2638C6200635A730003A5020091020C
:1001F0002320A3001103E34A73FE0F10000017032E
:10020000C05F1303236F9383C18F63577300232051
:1002100003001103E34D73FE1702C05F1302826DEA
:1002200011C2029617250000130545FEEF10B079A4
:10023000EF2000011725000013058525EF10B07889
:10024000EF20A0248937FD5673B0463073B0463492
:10025000F3271030372704007D8F09C773B036307D
:1002600073B02630370704007D8F19C373B00618AA
:100270003707010013078702F98F89CBF327003076
:100280000967D98F73900730735030000545970583
:1002900000009385A515170600001306661531208A
:1002A000EF10D073A28082808280411106C2F322B7
:1002B00040F1130300006385620073005010F5BF26
:0A02C000EF001044924041018280DB
:0C02D000DC024020FA024020EE02402038
:1002DC00F1653715008093850520130585876F2000
:1002EC00C01C37050080130505196F30D000B725E9
:1002FC00F4003705008093850540130505196F4000
:02030C00C00D22
:1003100056616C7565206F66207430203D20307802
:10032000253032580A007430206973207A65726F64
:10033000007431206973207A65726F00656C736593
:1003400020636F6E646974696F6E000000000000C6
:10035000000000000000000000000000000000009D
:10036000000000000000000000000000000000008D
:10037000000000000000000000000000000000007D
:10038000000000000000000000000000000000006D
:10039000000000000000000000000000000000005D
:1003A000000000000000000000000000232D302BA2
:1003B00020000000686C4C006566674546470000F9
:1003C000303132333435363738394142434445468B
:1003D000000000003031323334353637383961624D
:1003E0006364656600000000F00340200000000028
:1003F0006C6962676C6F7373000000003C254020DD
:1004000016254020FE2440200000000000000000CF
:1004100044274020622740202E264020FA244020F6
:10042000E025402092254020000000000000000050
:1004300000000000000000000000000000000000BC
:100440000000000000000000BC264020CE24402018
:10045000000000000000000000000000000000009C
:10046000FE2840201029402032294020582A4020D0
:10047000642940206E2940203E2B402072294020D4
:1004800076294020A6294020D6294020062A40204F
:10049000122B40201C2A40202E2A4020342A4020A3
:1004A0003C2A4020B42A4020482B40208034402061
:1004B000000000000000000000000000000000003C
:1004C000B834402000000000FC35402000364020B9
:1004D000000000000000000000000000000000001C
:1004E000000000000000000000000000000000000C
:1004F000FA2840200000000000000000000000007A
:1005000000000000000000007A38402000000000D9
:1005100000000000000000000000000000000000DB
:100520000000000052364020000000004839402002
:1005300086394020000000000000000016384020EE
:10054000903740202A36402004364020000000002A
:10055000000000000000000000000000C43940203E
:10056000223A4020AC3740202E384020023B402029
:10057000523B4020103C40200100000020000000C1
:10058000001BB70000366E01010000001F000000D4
:10059000030000003F0000000100000020000000F8
:1005A00000366E01006CDC02030000001F0000003A
:1005B000020000003F0000000100000010000000E9
:1005C000808D5B00001BB700000000001F000000D2
:1005D000030000003F0000000100000010000000C8
:1005E000001BB70000366E01010000001F00000074
:1005F000020000003F0000000100000010000000A9
:1006000000366E01006CDC02030000001F000000D9
:10061000020000001F0000000100000008000000B0
:10062000808D5B00001BB700000000001F00000071
:10063000030000001F00000001000000080000008F
:10064000001BB70000366E01010000001F00000013
:10065000020000001F000000010000000800000070
:1006600000366E01006CDC02030000001F00000079
:10067000020000000F000000010000000400000064
:10068000808D5B00001BB700000000001F00000011
:10069000030000000F000000010000000400000043
:1006A000001BB70000366E01010000001F000000B3
:1006B000020000000F000000010000000400000024
:1006C00000366E01006CDC02030000001F00000019
:1006D000020000000700000001000000020000000E
:1006E000808D5B00001BB700000000001F000000B1
:1006F000020000000F0000000100000002000000E6
:10070000001BB70000366E01010000001F00000052
:10071000010000000F0000000100000002000000C6
:1007200000366E01006CDC02030000001F000000B8
:1007300001000000070000000200000001000000AE
:10074000808D5B00001BB700000000001F00000050
:10075000010000000700000002000000010000008E
:10076000001BB70000366E01010000001F000000F2
:100770000100000003000000020000000100000072
:1007800000366E01006CDC02030000001F00000058
:1007900003000000FFFFFFFF040000000100000055
:1007A000808D5B00001BB700000000001F000000F0
:1007B0000300000000000000040000000100000031
:1007C000001BB70000366E01010000001F00000092
:1007D00003000000FFFFFFFF040000000100000015
:1007E00000366E01006CDC02030000001F000000F8
:1007F00002000000FFFFFFFF0600000001000000F4
:10080000808D5B00AAC2A20000000000230000004F
:1008100001000000020000000600000001000000CE
:10082000AAC2A200001BB7000000000017000000D1
:1008300003000000FFFFFFFF0600000001000000B2
:10084000001BB7000024F400010000002F0000008E
:1008500003000000FFFFFFFF060000000100000092
:100860000024F40080A8120101000000170000001D
:1008700002000000FFFFFFFF060000000100000073
:1008800080A81201558545010200000023000000E8
:1008900002000000FFFFFFFF080000000100000051
:1008A000808D5B00001BB700000000001F000000EF
:1008B00003000000FFFFFFFF080000000100000030
:1008C000001BB70000366E01010000001F00000091
:1008D00002000000FFFFFFFF080000000100000011
:1008E00000366E01006CDC02030000001F000000F7
:1008F00001000000FFFFFFFF0A00000001000000F0
:10090000808D5B00007C920000000000270000004A
:1009100003000000FFFFFFFF0A00000001000000CD
:10092000007C9200001BB7000000000013000000D4
:1009300002000000FFFFFFFF0A00000001000000AE
:10094000001BB70000F82401010000002700000090
:1009500002000000FFFFFFFF0A000000010000008E
:1009600000F8240100366E010100000013000000B1
:1009700001000000FFFFFFFF0A000000010000006F
:1009800000366E0100F0490203000000270000005D
:1009900001000000FFFFFFFF0C000000010000004D
:1009A000808D5B0000127A00000000002F00000024
:1009B00003000000FFFFFFFF0C000000010000002B
:1009C00000127A00001BB7000000000017000000B2
:1009D00002000000FFFFFFFF0C000000010000000C
:1009E000001BB7000024F400010000002F000000ED
:1009F00002000000FFFFFFFF0C00000001000000EC
:100A00000024F40000366E01010000001700000011
:100A100001000000FFFFFFFF0C00000001000000CC
:100A200000366E0180C3C901030000002F000000E2
:100A300001000000FFFFFFFF0C00000001000000AC
:100A400080C3C9010048E801030000002F00000036
:100A500001000000FFFFFFFF0E000000010000008A
:100A6000808D5B00B6A16800000000003700000028
:100A700003000000FFFFFFFF0E0000000100000068
:100A8000B7A16800001BB700000000001B000000B9
:100A900002000000FFFFFFFF0E0000000100000049
:100AA000001BB7006D43D1000100000037000000BB
:100AB00002000000FFFFFFFF0E0000000100000029
:100AC0006E43D10000366E01010000001B000000E3
:100AD00001000000FFFFFFFF0E000000010000000A
:100AE00000366E01DB86A201030000003700000023
:100AF00001000000FFFFFFFF1000000001000000E8
:100B0000808D5B00001BB700000000001F0000008C
:100B100002000000FFFFFFFF1000000001000000C6
:100B2000001BB70000366E01010000001F0000002E
:100B300001000000FFFFFFFF1200000001000000A5
:100B4000808D5B00AAC2A20000000000230000000C
:100B500002000000FFFFFFFF120000000100000084
:100B6000ABC2A200001BB700000000001100000093
:100B700001000000FFFFFFFF120000000100000065
:100B8000001BB7005585450101000000230000004F
:100B900001000000FFFFFFFF140000000100000043
:100BA000808D5B00007C92000000000027000000A8
:100BB00002000000FFFFFFFF140000000100000022
:100BC000007C9200001BB700000000001300000032
:100BD00001000000FFFFFFFF140000000100000003
:100BE000001BB70000F824010100000027000000EE
:100BF00001000000FFFFFFFF1600000001000000E1
:100C0000808D5B00E82A8500000000002B000000BA
:100C100002000000FFFFFFFF1600000001000000BF
:100C2000E92A8500001BB700000000001500000045
:100C300001000000FFFFFFFF1600000001000000A0
:100C4000001BB700D1550A01010000002B00000075
:100C500001000000FFFFFFFF18000000010000007E
:100C6000808D5B0000127A00000000002F00000061
:100C700002000000FFFFFFFF18000000010000005D
:100C800000127A00001BB7000000000017000000EF
:100C900001000000FFFFFFFF18000000010000003E
:100CA000001BB7000024F400010000002F0000002A
:100CB00001000000FFFFFFFF1A000000010000001C
:100CC000808D5B0027AE7000000000003300000044
:100CD00002000000FFFFFFFF1A00000001000000FB
:100CE00028AE7000001BB7000000000019000000D3
:100CF00001000000FFFFFFFF1A00000001000000DC
:100D0000001BB7006658E10001000000330000003E
:100D100001000000FFFFFFFF1C00000001000000B9
:100D2000808D5B00B6A16800000000003700000065
:100D300002000000FFFFFFFF1C0000000100000098
:100D4000B7A16800001BB700000000001B000000F6
:100D500001000000FFFFFFFF1C0000000100000079
:100D6000001BB7006D43D1000100000037000000F8
:100D700001000000FFFFFFFF1E0000000100000057
:100D8000808D5B0000A86100000000003B000000B7
:100D900002000000FFFFFFFF1E0000000100000036
:100DA00000A86100001BB700000000001D0000004B
:100DB00001000000FFFFFFFF1E0000000100000017
:100DC000001BB7000050C300010000003B00000002
:100DD00001000000FFFFFFFF2000000001000000F5
:100DE000808D5B00001BB700000000001F000000AA
:100DF00001000000FFFFFFFF283F4020463F40204A
:100E0000563F4020503F4020783F40205E3F4020EA
:100E1000723F4020663F4020A43F4020B43F402026
:100E2000AE3F4020D63F4020BC3F4020D03F402036
:100E3000C43F4020063E4020EE3D4020223E402060
:100E4000363E40204A3E4020663E40207E3E4020C6
:100E5000963E4020B23E4020CA3E4020E83E402020
:100E6000043F40207E3F4020DE3F4020F43F4020B2
:100E700012434020E44140204A4140201642402095
:100E80003A4240203E424020A8404020C2404020FC
:100E9000D6404020F4404020104140202E414020C8
:100EA0006441402088414020A4414020C841402066
:100F00003705008041111305050006C62920B240AF
:100F1000014541018280611106C061110EC061115D
:100F200012C0611116C061111AC061111EC0611199
:100F300022C0611126C061112AC061112EC0611149
:100F400032C0611136C061113AC08D463695030733
:100F5000050017F5FFFF1305E53BBA85A5280247F5
:100F600021018246210102462101824521010245DB
:100F700021018244210102442101824321010243D3
:100F8000210182422101024221018241210182404C
:100F900021018280611106C09D42B3C25200639854
:100FA000020017F5FFFF130545382D2031A86318FF
:100FB000030017F5FFFF1305F537292831A017F5B2
:100FC000FFFF1305E53739208240210182808240EE
:100FD0002101828039713EDA2ED232D436D63AD807
:100FE00042DC46DE9707C05F9387478B22CC804365
:100FF00026CA06CEAA8409C41C4C99E32285F9208E
:101000000C4454102686228536C6512EF240624486
:10101000D24421618280411122C406C62A8423164B
:10102000B5002317C5002320050023220500232433
:1010300005002322050623280500232A0500232C6A
:101040000500214681451305C505DD2A97070000E7
:10105000938767615CD0970700009387E7631CD490
:1010600097070000938727685CD497070000938751
:10107000E76A00D01CD8B240224441018280971513
:101080000000938545A1B9A2411126C2130680062E
:101090009384F5FFB384C4024AC02E8922C406C6D5
:1010A0009385440775222A8419C923200500232229
:1010B0002501310508C41386840681455122228505
:1010C000B240224492440249410182801C4DBDE35A
:1010D000411106C622C497070000938787FA1CD5E2
:1010E00097F7BF5F9387C77B9C4323240504232680
:1010F0000504232805046314F50085471CCD2A84C4
:101100001D2848C02285052808C422852D2048C4F2
:10111000484001469145013708440546A545E53D4F
:1011200048440946C945C53D85471CCCB2402244C8
:10113000410182808280411197F7BF5F9387477694
:1011400026C284434AC006C69C4C22C42A8999E31D
:101150002685AD3F938484048044DC40FD1763D62C
:1011600007009C40B1CF8440C5BF0317C40031E7DE
:10117000C1778507232204062320040023220400CC
:10118000232404005CC423280400232A0400232C05
:101190000400214681451305C4055D20232A04026D
:1011A000232C040223240404232604042285B240B1
:1011B000224492440249410182801304840679BF8B
:1011C00091454A85D13588C02A8451FDB1472320F5
:1011D000F900E9BF797122D44AD052CC56CA5AC814
:1011E0005EC606D626D24ECE2A8AAE8A130485045F
:1011F0000149054BFD5B09ECB25022544A859254DB
:101200000259F249624AD24A424BB24B456182804E
:10121000044483294400FD1963D409000040E1BF60
:1012200083D7C400637BFB008397E4006387770167
:10123000A6855285829A3369A90093848406E1BF0A
:101240002A8311C62300B3007D16050365FE828044
:10125000011126CA93843500F19806CE22CC4AC8E3
:101260004EC6A104B14763F9F404B14463E8B40481
:101270002A89EF00301C97F7BF5F9387A7679843D1
:101280003A8439E497F7BF5F938707679C4381EB04
:1012900081454A85552697F7BF5F23AFA764A6858A
:1012A0004A85592EFD59631B3507B1472320F900A4
:1012B0004A85EF00501829A0E3DA04FAB1471CC1AF
:1012C0000145F2406244D2444249B24905618280FC
:1012D0001C40858F63C10704AD4663F6F6001CC051
:1012E0003E9404C001A85C406315870217F7BF5FF6
:1012F0002322F7604A85EF0010141305B40093070A
:10130000440061993307F5404DDF3A94898F1CC042
:101310004DBF5CC3C5B722874040A5B71304350055
:101320007198E30085FCB305A4404A853126E31A91
:1013300035FBA5BF1C46FD171CC663D90700184E18
:1013400063C5E700A9476393F500D1AE1C422E8523
:101350001387170018C22380B7008280011122CCA6
:1013600026CA4AC84EC652C406CE2A89AE893284DD
:10137000B304D6007D5A63149400014509A883453F
:1013800004004E864A857D370504E31645FFF2408A
:101390006244D2444249B249224A05618280357191
:1013A00022CD26CB4AC94EC706CF52C556C35AC115
:1013B000DEDEE2DCE6DAAA89AE843289368401C553
:1013C0001C4D91E3213397F7FFFF938767FA639CE6
:1013D000F40C83A4490083D7C400A18BFDC79C48AB
:1013E000EDC793070002A304F1029307000302D2A2
:1013F0002305F10222C6930B500297FAFFFF938A4E
:101400002AFB054C294B4A848347040099C3639007
:10141000770FB30C2441638D0C00E6864A86A685BF
:101420004E852D3FFD576306F51E9256E69636D241
:1014300083470400638F071CFD571309140002C87B
:1014400002CE3ECA02CCA309010482D4834509001E
:1014500015465685EF00607C13041900C24751E918
:1014600013F7070109C713070002A309E10413F7E3
:10147000870009C71307B002A309E10483460900E6
:101480001307A002638FE606F2474A848146254689
:101490000347040093051400130707FD6378E60A69
:1014A000ADCA3ECEBDA097F7FFFF938767EE639569
:1014B000F40083A4890005B797F7FFFF938747E9F6
:1014C000E39BF4F083A4C90039B7A6854E853D2E71
:1014D00009D97D55FA406A44DA444A49BA492A4A48
:1014E0009A4A0A4BF65B665CD65C0D618280050405
:1014F00021BF330555413315AC00C98F3EC8228941
:10150000B1B7324793064700184336C6634907020E
:101510003ACE034704009307E002631FF704034732
:1015200014009307A002631BF702B2470904138754
:1015300047009C433AC663C107023ECA35A8330739
:10154000E04093E727003ACE3EC8E1B7B387670390
:1015500085462E84BA972DBFFD57C5B7050402CA2C
:10156000814681472546034704009305140013076D
:1015700007FD6376E606F1F2834504000D4617F594
:10158000FFFF130565E3512D11CD97F7FFFF9387FB
:10159000A7E21D8D93070004B397A70042450504F9
:1015A0005D8D2AC883450400194617F5FFFF130512
:1015B000E5E0130914002304B10285253DC197F726
:1015C000BFDF938727A495E74247B24713770710F9
:1015D00009CF91073EC69257D2973ED22DB5B38719
:1015E000670385462E84BA97BDBF9D07E19BA1077F
:1015F000D5B7780097060000938686D626860C0815
:101600004E8597000000E7000000FD572A8AE3148A
:10161000F5FC83D7C40093F70704E39C07EA12554F
:1016200055BD780097060000938686D326860C0861
:101630004E85EF00E07BD1BF411122C42A842E8564
:1016400023AC018E06C6EF003032FD576317F5005C
:101650009387818F9C4391C31CC0B24022444101B7
:101660008280411122C42E848395E50006C6EF00D6
:101670005022634905007C48AA977CC8B2402244A6
:10168000410182808357C4007D777D17F98F23162F
:10169000F400EDB783D7C500011122CC26CA4AC891
:1016A0004EC606CE93F70710AA842E843289B689D7
:1016B00091C78395E500894601463D298357C400BB
:1016C0007D777D17F98F2316F4008315E4006244BB
:1016D000F240CE864A86B24942492685D244056107
:1016E000FDA8411122C42E848395E50006C6292158
:1016F000FD570357C400631BF500FD77FD17F98FF5
:101700002316F400B2402244410182808567D98FBC
:101710002316F40068C8FDB78395E50009A40111FC
:1017200022CC26CA4AC806CE4EC6AA842E89328446
:1017300001C51C4D91E3593A97F7FFFF938747C3C3
:101740006319F406C0401C4C1CC48357C400A18B11
:10175000C9C31C48BDCF1C4808409379F90F1379C1
:10176000F90F1D8D5C486346F500A2852685152678
:101770002DE51C440505FD171CC41C4013871700EC
:1017800018C0238037015C486389A7008357C400D1
:10179000858B81CBA9476316F900A2852685D52CB8
:1017A0000DEDF24062444A85D2444249B249056196
:1017B000828097F7FFFF9387A7BD6314F4008044EE
:1017C00059B797F7FFFF9387A7B8E31EF4F6C04415
:1017D0009DBFA28526851D283DDD7D59D9B74111C4
:1017E00022C42A842E85B285368623AC018E06C695
:1017F000EF00D019FD576317F5009387818F9C4345
:1018000091C31CC0B240224441018280411197F72C
:10181000BF5F9387A70826C2844322C44AC006C676
:101820002A892E8491C49C4C81E72685EFF01F8A7B
:1018300097F7FFFF9387C7B3631CF402C0400317F9
:10184000C40093170701C18393F68700B5EE93F6A2
:1018500007019DEEA5472320F9001367070423160F
:10186000E4007D55B2402244924402494101828005
:1018700097F7FFFF9387C7B16314F4008044C1B7A3
:1018800097F7FFFF9387C7ACE31BF4FAC04445BF4B
:10189000918B8DC74C5889C9930744046384F50024
:1018A0004A85592E232A04028357C40023220400A8
:1018B00093F7B7FD2316F4001C481CC08357C400DF
:1018C00093E787002316F4001C4881EF8357C40078
:1018D0001307002093F707286385E700A2854A8550
:1018E000712C8357C40013F7170005C75C482324E5
:1018F0000400B307F0401CCC1C480145A5F7831732
:10190000C40013F7070839DF93E707042316F40030
:1019100089BF898B014791E3584818C4F1BF411131
:1019200022C42A842E8523AC018E06C6EF00407E99
:10193000FD576317F5009387818F9C4391C31CC0AB
:10194000B24022444101828083D7C500011122CCDC
:1019500026CA06CE4AC84EC613F78700AA842E842C
:1019600065E7D8416347E000B8416344E0000145C2
:10197000C1A058546DDF03A904009396370123A03A
:10198000040063DE060668488357C400918B99C73C
:101990005C401D8D5C5899C33C401D8D5C540C50BF
:1019A0002A86814626858297FD570357C400631D0A
:1019B000F5009440F54763E4D708B7074020850752
:1019C000B3D7D700858BA5CF1C48232204001CC0A9
:1019D0009317370163D80700FD576314F5009C4047
:1019E00091E368C84C5823A02401D1D19307440443
:1019F0006384F50026858924232A04028DBF0C50B8
:101A00008546014626850297FD57E31FF5F69C4063
:101A1000A5DF75476385E70059476395E70023A075
:101A20002401B1B78357C40093E707042316F400D9
:101A3000F2406244D2444249B24905618280136750
:101A400007042316E400EDB783A90501E38109F239
:101A500003A905008D8B23A03501330939410147C6
:101A600091E3D84918C4E35420F11C540C50CA86A1
:101A70004E8626858297634AA0008357C4007D5511
:101A800093E707042316F40065B7AA993309A94020
:101A9000D9BF9C49A5C3011122CC06CE2A8419C501
:101AA0001C4D89E72EC6EFF06FE2B24597F7FFFFB6
:101AB0009387078C639BF5004C408397C50095C7BF
:101AC00022856244F240056141B597F7FFFF938795
:101AD000278C6394F5000C44CDB797F7FFFF9387ED
:101AE0002787E39CF5FC4C44C9BFF24062440145A2
:101AF0000561828001458280411122C42A842E859D
:101B0000B285368623AC018E06C61D2DFD576317A0
:101B1000F5009387818F9C4391C31CC0B24022443F
:101B2000410182801971A6DAAE848395E500A2DCBA
:101B300086DE328463DC050083D7C40023A0060060
:101B400093F707089DE39307004015A0300836C6B9
:101B5000BD23B246E34205FE7247BD67F98F797730
:101B6000BA9793B717009CC2F9BF930700041CC033
:101B7000F6506654D65401450961828083D7C5006A
:101B8000011122CC06CE26CA4AC8898B2E8489CF61
:101B9000930774041CC01CC885475CC8F2406244AB
:101BA000D24442490561828074003000AA849D3F7E
:101BB000A2452A892685EFF0AFE901ED8317C4001D
:101BC00013F7072061FFF19B93E727002316F4002A
:101BD000C1B797F7FFFF9387C74A9CD48357C400C8
:101BE00008C008C893E707082316F400A2475CC89A
:101BF000B24789CF8315E4002685FD2101C98357AB
:101C0000C400F19B93E717002316F4008357C40028
:101C10003369F9002316240151B793F5F50F2A967D
:101C20006314C5000145828083470500E38DB7FE3C
:101C30000505FDB782808280CDC583A7C5FF411110
:101C400022C406C626C21384C5FF63D307003E9490
:101C5000AA84CD3797F7BF5F9387C7C99C4389EFA5
:101C60002322040097F7BF5F23A687C82244B2400F
:101C7000268592444101C1B7637EF40014403307C6
:101C8000D4006396E7009843DC43369718C05CC0E5
:101C9000D1BFBA87D84319C3E37DE4FE94433386AA
:101CA000D700631F86001040B29694C33386D700D6
:101CB000E31EC7FA10435843B29694C3D8C37DB706
:101CC0006375C400B1479CC055B71040B306C4004B
:101CD0006316D70014435843B29614C058C0C0C30B
:101CE00071B78280797156CA9C49BA8A984522D4C4
:101CF00026D24ECE52CC06D64AD05AC85EC6AA8943
:101D00002E84B284368A63D3E700BA879CC0034727
:101D1000340419C385079CC01C4093F7070281C790
:101D20009C4089079CC00329040013796900631A49
:101D30000900130B9401FD5B5C449840998F634C40
:101D4000F9041C408346340493F70702B336D000ED
:101D5000A5EB13063404D2854E85829AFD576303A2
:101D6000F5041C4011469840998B54448144639774
:101D7000C700B384E64063D3040081441C44184880
:101D80006354F700998FBE94014969047D5B6398A1
:101D90002405014509A885465A86D2854E85829A32
:101DA000631E75017D55B250225492540259F24976
:101DB000624AD24A424BB24B456182800509ADBFAF
:101DC0003307D40013060003A301C70403475404D8
:101DD00093871600A2978906A381E7049DBF8546D5
:101DE0002286D2854E85829AE30E65FB050945B7AA
:101DF000797122D426D24AD04ECE06D652CC56CABB
:101E00005AC8B68983C685019307E0063289AA8439
:101E10002E84138635046380F61E63E2D70693078B
:101E200030066382F60A63EDD700638A061E9307C5
:101E300080056386F616930A24042301D40469A856
:101E4000930740066386F60093079006E395F6FE37
:101E50001C40084393F6070893054500C1C21C4186
:101E60000CC363D807001307D002B307F040A301E7
:101E7000E40497E6FFFF9386E654294765A093079D
:101E800030076382F61A63EFD7009307F006638F7B
:101E9000F60493070007E390F6FA9C4193E70702E4
:101EA0009CC109A8930750076382F6049307800733
:101EB000E393F6F893078007A302F40497E6FFFF85
:101EC00093868651DDA01C43938A250493864700A0
:101ED0009C4314C32381F5048547ADA293F6070400
:101EE0001C410CC3BDDEC207C187A5BF0C401C430B
:101EF00013F80508138547006305080008C39C43D1
:101F000039A093F5050408C3FDD983D7070013074B
:101F1000F006638AE60C97E6FFFF9386A64A2947F8
:101F2000A30104044C400CC463C5050008406D992E
:101F300008C099E3B28A91CDB28AB3F5E702FD1ADF
:101F4000B69583C505002380BA00B3D5E70263F2D6
:101F5000E70AA147631EF7001C40858B91CB5840D0
:101F60001C4863C7E70093070003A38FFAFEFD1A1E
:101F70003306564110C84E87CA867000A285268552
:101F800095337D5A6314450D7D55B25022549254B9
:101F90000259F249624AD24A424B45618280A38289
:101FA000D50497E6FFFF9386E6410C40084313F8FB
:101FB00005081C4111056300080208C313F715004A
:101FC00001C793E505020CC04147B9FB0C4093F5EE
:101FD000F5FD0CC0B1B713F8050408C3E30008FE13
:101FE000C207C183E1BF97E6FFFF9386A63D214765
:101FF00005BFAE8799B794411C43CC4913F8060836
:10200000138547006306080008C39C438CC301A8DE
:1020100008C393F606049C43F5DA2390B7002328FF
:102020000400B28A89BF1C43D04181459386470092
:1020300014C383AA07005685CD3601C53305554123
:1020400048C05C401CC8A301040435B71448568638
:10205000CA8526858299E30945F31C40898B8DE763
:10206000B2474844E353F5F23E8505B785465686A8
:10207000CA8526858299E30965F1050A5C443247E1
:10208000998FE345FAFEE9BF014A930A94017D5B0B
:10209000F5B7411122C42A842E85B285368623AC39
:1020A000018E06C64528FD576317F5009387818F7B
:1020B0009C4391C31CC0B240224441018280411123
:1020C00022C42A842E85B28523AC018E06C69928A7
:1020D000FD576317F5009387818F9C4391C31CC004
:1020E000B240224441018280411122C42A842E85BB
:1020F00023AC018E06C68920FD576317F500938730
:10210000818F9C4391C31CC0B24022444101828014
:10211000411106C67528B240930780051CC17D5544
:1021200041018280411106C66520B240930780FAC2
:102130001CC17D55410182807D15133515008280BB
:10214000411106C67120B240930780051CC17D5520
:1021500041018280411106C6A528B240930780053F
:102160001CC17D5541018280938781D013878150A6
:10217000638CE70093878180944336956375E5000F
:1021800088C33685828098C3FD56E5BF411106C6D7
:1021900022C426C285476319F5002E84B384C50086
:1021A000631E9400014531A02520930780051CC1C2
:1021B0007D55B2402244924441018280034504008F
:1021C0000504E12CF1BFAA85814601460145F1A82D
:1021D00097E7BF5F9387876C88438280411122C451
:1021E00006C697070000938707152A8499C381457F
:1021F000892297E7BF5F9387A76A88431C5591C3DD
:1022000082972285EF208038411197E7FFFF93875F
:10221000670D22C417E4FFFF1304C40C1D8C26C2F3
:1022200006C60984BE8411E4B240224492444101AE
:1022300082807D1493172400A6979C438297E5B76C
:10224000411197E7FFFF9387E70822C417E4FFFFD8
:10225000130444081D8C26C24AC006C60984814462
:102260003E896396840297E7FFFF9387A70617E4EA
:10227000FFFF130424061D8C098481443E89639F5B
:102280008400B240224492440249410182809397E3
:102290002400CA979C4385048297E1B79397240052
:1022A000CA979C4385048297D9BF97E7BF5F9387FE
:1022B000E7649C432A8E9DE317E7BF5F1307C7645B
:1022C00097E7BF5F23ACE76217E5BFDF130585D350
:1022D000BA8709C51C4123AAF18EBA87D8437D4825
:1022E0007D556347E804630E0E0203A88708630167
:1022F000080493182700C29823A0C80003230810DD
:1023000005463316E6003363C3002320681023A07C
:10231000D80889466317DE0083264810558E23228D
:10232000C810930617000A07D4C3BA978CC7014593
:102330008280797152CC56CA5AC85EC606D622D45B
:1023400026D24AD04ECE62C42A8B2E8A97EABF5F2D
:10235000938ACA5A854B03A40A0011C844408329B2
:1023600084081389F4FF8A04A294635E0900B250C2
:10237000225492540259F249624AD24A424BB24B19
:10238000224C45618280630E0A00639509007D1925
:10239000F114E1BF93172900CE9783A70708E398AC
:1023A00047FF5840DC407D17631827032322240190
:1023B000F9DF032C44006388090083A609103397D2
:1023C0002B01F98E89EE8297584083A70A00E31407
:1023D00087F9E30EF4FA41B723A20400D1BF9316A4
:1023E0002900CE968C4283A64910758F01E75A8545
:1023F0008297D9BF2E858297C1BFB7170080938778
:102400000790984315EF411122C426C2370440209B
:1024100006C60547B704402098C39384C42D93078C
:10242000042D1304042D63EA9700B2402244924421
:10243000410182801C4011048297E31D94FEF5B790
:102440008280B71700809387C78F984315EF41119B
:1024500022C426C23704402006C60547B7044020E0
:1024600098C39384042E9307042E1304042E63EA66
:102470009700B24022449244410182801C401104E2
:102480008297E31D94FEF5B7828085BF5DBFAA8564
:1024900037150080130585871DA0411122C406C68B
:1024A000A9472A846314F5003545D537228522448F
:1024B000B2404101E9BF1C4103A3070002831C4154
:1024C00003A3470002831C4103A347010283B717FC
:1024D00000809387478A370700026383A70001477C
:1024E0008E05BA95116793074700AE977D5588C34F
:1024F000BA9590C194C3014582807D5582806F005A
:102500005076411106C6732540F1EF101071B240AC
:1025100041016F101070011106CE2EC6DD3719C9AA
:10252000B24505476368B7001C41F24003A347006A
:1025300005610283F2407D55056182800111B71764
:1025400000804AC806CE22CC26CA4EC69387478A48
:1025500001496313F5000949444181E82A84B70918
:102560000080639B240185475CC0F2406244D244F2
:102570004249B249056182808D4591C09D4583A73E
:10258000891AA2860146DC4F1385891A8504829731
:10259000C9BFA9C5011122CC2EC606CE2A84953703
:1025A000B71700809387478AB2456314F402B707D0
:1025B00000809387871A631EF50093F7B5FF8D4659
:1025C0006399D7001C416244F24003A3870205616E
:1025D0000283F24062447D55056182807D55828090
:1025E000A9C5011122CC2EC606CE2A84193FB717E1
:1025F00000809387478AB2456314F402B7070080CE
:102600009387871A631EF50093F7B5FF8D4663998C
:10261000D7001C416244F24003A3470205610283D4
:10262000F24062447D55056182807D5582800111B2
:102630002EC632C436C206CE22CC26CAAA84EF00E9
:1026400050622A847D3DB71700809387478A92465F
:102650002246B2456395F400854763F88700F2404F
:102660006244D2447D5505618280B707008093871C
:10267000871A2A87E315F5FE93F7B5FF0D48E39017
:1026800007FF1C436244F240D24403A3C701056123
:102690000283371700801307478AB70700026303D6
:1026A000A7008147B1661387C6FFE1163E97B6972C
:1026B000144388430C43E39DD5FE8280B717008006
:1026C0009387478A01476314F5003707000289475B
:1026D0006386F50463C8B70085476382F502FD573A
:1026E0003E8582808D476384F5049147E399F5FE2A
:1026F00081477DD61C428A07BA979C43D5B7FD57C0
:1027000065D2411122C406C63284613708C04CC06C
:10271000B240224481473E8541018280FD5769D203
:102720001C428A07BA9723A00700814755BFFD576F
:1027300045DA1C428A07BA97054798C30F00800400
:102740009C43E5B7011106CE22CC2A84EF10B04D90
:102750002AC67000228589459537F240624405619A
:102760008280011106CE22CC2A84EF10D04B2AC6DB
:10277000700022858D459937F24062440561828060
:10278000AA85F32740F11397270093878182BA9790
:102790008843F32720340DC593F7F73F1387418112
:1027A0009387870E631BE500370700808A071307AE
:1027B000871ABA9703A3070002838A079C430290F3
:1027C0008280828000000000000000000000000005
:1027D00000000000000000000000000000000000F9
:1027E00000000000000000000000000000000000E9
:1027F00000000000000000000000000000000000D9
:10280000397106DE16DC1ADA1ED82AD62ED432D258
:1028100036D03ACE3ECC42CA46C872C676C47AC2D8
:102820007EC0F32740F11397270093878182BA97E0
:10283000944373262034F3271034F327303473275E
:1028400050308DC6938741816385F60481471375A7
:10285000F63F635D0606930600086311D50403A7DF
:10286000073983A58739130500080297F250E25211
:102870005253C2533255A255125682567247E247FE
:102880005248C248324EA24E124F824F216173000D
:102890002030B70700809387871A55BFAD4663D5B0
:1028A000A6001377F70311EB61473307E502BA97E8
:1028B00003A7070983A587094DBF8946E318D7FAFF
:1028C00073277030184383A5C70D45B71307850ECE
:1028D0000A07BA979C43AA853685829741BF0000B4
:1028E00000000000000000000000000000000000E8
:1028F0000000000000000000000001458280F32578
:1029000000B8732500B0F32700B8E39AF5FE828083
:1029100011CD938741816306F50001459355F5413B
:10292000828037450F0013050524CDBF0145814541
:1029300082800111814701483EC406CE42C693877A
:102940004181639CA700B707008003A5472E11C5EE
:102950001C4130008545FC478297F2402245B24534
:1029600005618280371500801305458A82801D45E8
:1029700082800D458280011106CE2EC6938741814B
:102980006391A702B707008083A747287D5599C7A1
:10299000984370008D4578473E850297F240056167
:1029A00082807D55E5BF011106CE2EC693874181F9
:1029B0006391A702B707008083A747287D5599C771
:1029C00098437000894578473E850297F24005613B
:1029D00082807D55E5BF011106CE2EC693874181C9
:1029E0006391A702B707008083A74728014599C7CD
:1029F00098437000914578473E850297F240056103
:102A000082800145E5BF938741816384A70001452A
:102A10008280370500801305851A828083D70500E0
:102A20000D4711458D8B6383E7000945828073252F
:102A30001034828073901534014582800145828074
:102A400041111305400606C6EF10F01E4111130593
:102A5000800C06C6EF10301E93874181B2862E8609
:102A6000639CA700B707008003A5472E11C51C4132
:102A7000814503A3070502837D558280411106C667
:102A800022C4F32740F101446348F0001397270064
:102A900093878182BA9780432285613D9307A50081
:102AA00033B5A7003306B50022852244B240BE8567
:102AB00041015DB75C41A9EF93070509130705398B
:102AC00023A0070023A2070023A40700E107E3993E
:102AD000E7FE373740209307053A9306053D130775
:102AE00007A498C39107E39EF6FE73275030B707FB
:102AF000402093878717631BF700F3275030B737C1
:102B0000402093870780F19B7390573085475CC1C5
:102B10008280938741816392A702AD477D5563CF41
:102B2000B70009CEB70700809385850E9387871A73
:102B30008A05BE9590C1014582807D5582803715FA
:102B400000801305458A828081EDF3275030B73726
:102B5000402093870780F19B739057300145828016
:102B600085477D55E39DF5FEF3275030B74740205C
:102B70009387074893E71700C5B7732540F1828014
:102B800039712AD61305C01206DE16DC1ADA1ED8F1
:102B90002ED432D236D03ACE3ECC42CA46C872C6C5
:102BA00076C47AC27EC0EF101009397106DE16DCD9
:102BB0001ADA1ED82AD62ED432D236D03ACE3ECC0D
:102BC00042CA46C872C676C47AC27EC0F32740F1B4
:102BD0001397270093878182BA97984319CF9387D9
:102BE0004181631FF702B70700809387871A03A705
:102BF000870D83A5070E0D450297F250E2525253FE
:102C0000C2533255A255125682567247E247524875
:102C1000C248324EA24E124F824F216173002030C3
:102C20008327000E0290397106DE16DC1ADA1ED8F0
:102C30002AD62ED432D236D03ACE3ECC42CA46C85C
:102C400072C676C47AC27EC0F32740F1139727007C
:102C500093878182BA97984319CF93874181631FE5
:102C6000F702B70700809387871A03A7871383A506
:102C700007141D450297F250E2525253C253325587
:102C8000A255125682567247E2475248C248324E07
:102C9000A24E124F824F216173002030832700140F
:102CA0000290397106DE16DC1ADA1ED82AD62ED426
:102CB00032D236D03ACE3ECC42CA46C872C676C46C
:102CC0007AC27EC0F32740F1139727009387818251
:102CD000BA97984319CF93874181631FF702B707CB
:102CE00000809387871A03A7072183A58721414581
:102CF0000297F250E2525253C2533255A255125625
:102D000082567247E2475248C248324EA24E124F94
:102D1000824F216173002030832780210290397116
:102D200006DE16DC1ADA1ED82AD62ED432D236D0D7
:102D30003ACE3ECC42CA46C872C676C47AC27EC07B
:102D4000F32740F11397270093878182BA9798431E
:102D500019CF93874181631FF702B70700809387DC
:102D6000871A03A7872283A5072345450297F250B8
:102D7000E2525253C2533255A255125682567247EE
:102D8000E2475248C248324EA24E124F824F216152
:102D900073002030832700230290397106DE16DC91
:102DA0001ADA1ED82AD62ED432D236D03ACE3ECC1B
:102DB00042CA46C872C676C47AC27EC0F32740F1C2
:102DC0001397270093878182BA97984319CF9387E7
:102DD0004181631FF702B70700809387871A03A713
:102DE000072483A5872449450297F250E2525253A3
:102DF000C2533255A255125682567247E247524884
:102E0000C248324EA24E124F824F216173002030D1
:102E1000832780240290397106DE16DC1ADA1ED868
:102E20002AD62ED432D236D03ACE3ECC42CA46C86A
:102E300072C676C47AC27EC0F32740F1139727008A
:102E400093878182BA97984319CF93874181631FF3
:102E5000F702B70700809387871A03A7872583A502
:102E600007264D450297F250E2525253C253325553
:102E7000A255125682567247E2475248C248324E15
:102E8000A24E124F824F216173002030832700260B
:102E90000290397106DE16DC1ADA1ED82AD62ED434
:102EA00032D236D03ACE3ECC42CA46C872C676C47A
:102EB0007AC27EC0F32740F113972700938781825F
:102EC000BA97984319CF93874181631FF702B707D9
:102ED00000809387871A03A7072783A58727514573
:102EE0000297F250E2525253C2533255A255125633
:102EF00082567247E2475248C248324EA24E124FA3
:102F0000824F21617300203083278027029039711E
:102F100006DE16DC1ADA1ED82AD62ED432D236D0E5
:102F20003ACE3ECC42CA46C872C676C47AC27EC089
:102F3000F32740F11397270093878182BA9798432C
:102F400019CF93874181631FF702B70700809387EA
:102F5000871A03A7872883A5072955450297F250AA
:102F6000E2525253C2533255A255125682567247FC
:102F7000E2475248C248324EA24E124F824F216160
:102F800073002030832700290290397106DE16DC99
:102F90001ADA1ED82AD62ED432D236D03ACE3ECC29
:102FA00042CA46C872C676C47AC27EC0F32740F1D0
:102FB0001397270093878182BA97984319CF9387F5
:102FC0004181631FF702B70700809387871A03A721
:102FD000072A83A5872A59450297F250E252525395
:102FE000C2533255A255125682567247E247524892
:102FF000C248324EA24E124F824F216173002030E0
:103000008327802A0290397106DE16DC1ADA1ED870
:103010002AD62ED432D236D03ACE3ECC42CA46C878
:1030200072C676C47AC27EC0F32740F11397270098
:1030300093878182BA97984319CF93874181631F01
:10304000F702B70700809387871A03A7872B83A50A
:10305000072C5D450297F250E2525253C25332554B
:10306000A255125682567247E2475248C248324E23
:10307000A24E124F824F2161730020308327002C13
:103080000290397106DE16DC1ADA1ED82AD62ED442
:1030900032D236D03ACE3ECC42CA46C872C676C488
:1030A0007AC27EC0F32740F113972700938781826D
:1030B000BA97984319CF93874181631FF702B707E7
:1030C00000809387871A03A7072D83A5872D614565
:1030D0000297F250E2525253C2533255A255125641
:1030E00082567247E2475248C248324EA24E124FB1
:1030F000824F2161730020308327802D0290397127
:1031000006DE16DC1ADA1ED82AD62ED432D236D0F3
:103110003ACE3ECC42CA46C872C676C47AC27EC097
:10312000F32740F11397270093878182BA9798433A
:1031300019CF93874181631FF702B70700809387F8
:10314000871A03A7872E83A5072F65450297F2509C
:10315000E2525253C2533255A2551256825672470A
:10316000E2475248C248324EA24E124F824F21616E
:10317000730020308327002F0290397106DE16DCA1
:103180001ADA1ED82AD62ED432D236D03ACE3ECC37
:1031900042CA46C872C676C47AC27EC0F32740F1DE
:1031A0001397270093878182BA97984319CF938703
:1031B0004181631FF702B70700809387871A03A72F
:1031C000073083A5873069450297F250E252525387
:1031D000C2533255A255125682567247E2475248A0
:1031E000C248324EA24E124F824F216173002030EE
:1031F000832780300290397106DE16DC1ADA1ED879
:103200002AD62ED432D236D03ACE3ECC42CA46C886
:1032100072C676C47AC27EC0F32740F113972700A6
:1032200093878182BA97984319CF93874181631F0F
:10323000F702B70700809387871A03A7873183A512
:1032400007326D450297F250E2525253C253325543
:10325000A255125682567247E2475248C248324E31
:10326000A24E124F824F216173002030832700321B
:103270000290397106DE16DC1ADA1ED82AD62ED450
:1032800032D236D03ACE3ECC42CA46C872C676C496
:103290007AC27EC0F32740F113972700938781827B
:1032A000BA97984319CF93874181631FF702B707F5
:1032B00000809387871A03A7073383A58733714557
:1032C0000297F250E2525253C2533255A25512564F
:1032D00082567247E2475248C248324EA24E124FBF
:1032E000824F21617300203083278033029039712F
:1032F00006DE16DC1ADA1ED82AD62ED432D236D002
:103300003ACE3ECC42CA46C872C676C47AC27EC0A5
:10331000F32740F11397270093878182BA97984348
:1033200019CF93874181631FF702B7070080938706
:10333000871A03A7873483A5073575450297F2508E
:10334000E2525253C2533255A25512568256724718
:10335000E2475248C248324EA24E124F824F21617C
:1033600073002030832700350290397106DE16DCA9
:103370001ADA1ED82AD62ED432D236D03ACE3ECC45
:1033800042CA46C872C676C47AC27EC0F32740F1EC
:103390001397270093878182BA97984319CF938711
:1033A0004181631FF702B70700809387871A03A73D
:1033B000073683A5873679450297F250E252525379
:1033C000C2533255A255125682567247E2475248AE
:1033D000C248324EA24E124F824F216173002030FC
:1033E000832780360290397106DE16DC1ADA1ED881
:1033F0002AD62ED432D236D03ACE3ECC42CA46C895
:1034000072C676C47AC27EC0F32740F113972700B4
:1034100093878182BA97984319CF93874181631F1D
:10342000F702B70700809387871A03A7873783A51A
:1034300007387D450297F250E2525253C25332553B
:10344000A255125682567247E2475248C248324E3F
:10345000A24E124F824F2161730020308327003823
:103460000290F327503093F7F703FD170947014502
:103470006367F7001387C182BA9703C5070082808C
:10348000CDB7AD476308F50263CBA7000D4785476D
:103490006305E5006515933715003E858280414739
:1034A0008147E34CE5FE7D478547E358A7FE1305BA
:1034B00005F8D5B78547D5B7011122CC2A842E85CA
:1034C00026CA4AC84EC606CEAE84B2893689553F52
:1034D000D55701C993070008639AF4085937CD57A7
:1034E0002DCDF2406244D2444249B2493E85056145
:1034F000828023283439232C243909A8E145B38458
:10350000B402269423283409232C24098147D1BFEF
:10351000138704FFBD46D157E3E5E6FCE145B384DC
:10352000B402B73740209387C7A426942328F40811
:10353000232A2409E1BFB727402093870778232C4B
:10354000F40C232E240DD9B7B73740209387C7A793
:10355000232CF412232E241355BFE39C09F8B7271C
:1035600040209387277C2328F43871B7E39809F823
:10357000AD47E385F4FAE3CD97F88D47E38DF4FA90
:103580009D47E383F4FCD157A9BF11C99D47638AC6
:10359000F50463E8B7009DC58D47638FF5027D563E
:1035A00015A8AD476382F504E3EBF5FE938705FFAD
:1035B0003D47E366F7FE8547B395B7000DCEF3A50B
:1035C000453029A0A14709C6F3A70730014619A035
:1035D000F3B7073032858280A14719CAF3A7473075
:1035E000F5B793070008D5BF856793870780F5B7C0
:1035F000F3B74730C5B7F3B54530E9BF054671B7F6
:10360000014661B7B707008093878757639DA7007E
:1036100099477D5563EAC700B707000C8A05BE9538
:1036200090C1014582807D558280B70700809387D5
:1036300087576387A70081478A05BE9588418280A6
:10364000B707000CD5BF41111305C01206C6EF0025
:10365000905E0111B707008022CC06CE26CA4AC868
:103660004EC652C4938787572A8401476313F500D7
:103670006D477D5563D5E502B689328AAE841399CC
:10368000250015C622850946B53FE145B384B4023D
:103690002299232449012694232434090145F24028
:1036A0006244D2444249B249224A0561828022855D
:1036B0000546893FE145B384B402B73740202299DB
:1036C000938767642324F900269423223409F9B7E9
:1036D000B70700809387875701476394A700370790
:1036E000000CB70720009107B205BE95BA95884136
:1036F0008280B7070080938787573707000C638362
:10370000A7000147B7072000B2059107BE95BA95FB
:1037100090C18280011106CE22CC26CA2E84EFF001
:10372000CFC53335A000B304A040A68522854D3710
:10373000B7070080938787572A866313F402E94707
:1037400063E0A70293172500A297984711CBE147A2
:10375000B307F5022AC6A29783A5870802973246C7
:1037600022856244F240A685D244056159B7B70765
:103770000080938787573707000C6383A7000147B2
:10378000B7072000B205BE95BA9590C10145828069
:10379000011122CC06CE2A842EC6EFF00FBEAA85D8
:1037A000228562443246F2400561D1B7011122CC34
:1037B00026CA4AC84EC652C406CEAA89328A2E8963
:1037C00081440144631B0900F2406244268542495A
:1037D000D244B249224A0561828009C85286A28534
:1037E0004E857137058933158500C98C0504135939
:1037F0001900C9BFB707008093878757638AA7005E
:10380000814737072000B205BA95BE95884182806E
:10381000B707000CFDB7411122C406C62A84EFF099
:10382000CFB5AA8522852244B2404101E1B74111BA
:1038300006C6C937B2400145410182803707008082
:10384000130787573708000C6303A7000148135775
:1038500056400A0793977500BA970967BA97C297B7
:103860008C4305473316C70089C64D8E90C301456A
:1038700082801346F6FF6D8ED5BF011126CA4441E2
:1038800006CE22CC4AC84EC652C456C25AC099C8A7
:10389000F2406244D2444249B249224A924A024B1F
:1038A00005618280B707008093878757ED4A6303DD
:1038B000F500814A370900808327891A2A84130575
:1038C000891A9C4393094408130A891A8297130B97
:1038D000004081462686814522858D3763DF54016D
:1038E0000146A6852285393B93972400A29723A4FD
:1038F000070023A0090023A209008504E109E39A37
:1039000064FD0146814522859D3583270A00A286F4
:103910000146DC4FAD451305891A829783270A00BB
:1039200037364020A286DC4F13064671AD4513059D
:10393000891A829783270A00AD451305891ADC533B
:10394000829785475CC0A9B7B707008093878757E0
:1039500001476313F5006D47FD5763D4E50201117C
:1039600006CE22CC2EC62A84EFF02FA13246AA859D
:1039700085462285E135F240624481473E850561F6
:1039800082803E858280B7070080938787570147F2
:103990006313F5006D47FD5763D4E502011106CEB0
:1039A00022CC2EC62A84EFF04F9D3246AA8581464E
:1039B00022856935F240624481473E8505618280F7
:1039C0003E8582800111B707008006CE22CC26CA30
:1039D0004AC84EC652C49387875701476313F50000
:1039E0006D47FD546358E600328AAA892E848144CB
:1039F000014911E8F240624426854249D244B24965
:103A0000224A05618280630B090085465286CA8579
:103A10004E852D35058933152501C98C050905808D
:103A2000C9BF0111B707008006CE22CC26CA4AC8FA
:103A30004EC652C49387875701476313F5006D47FD
:103A4000FD546358E600328AAA892E8481440149D4
:103A500011E8F240624426854249D244B249224AE2
:103A600005618280630B090081465286CA854E85B6
:103A7000F133058933152501C98C05090580C9BFB6
:103A800083A70184411122C406C6814513850182A2
:103A900082972A84931714007D5563DF0700635DC6
:103AA000040037050080130585171374F403EF0035
:103AB0001013050433558502B2402244410182802F
:103AC000C1B783A70184411106C6914513850182C0
:103AD00082979317150063DC0700635A0500B24014
:103AE000370500801305051641016F00500FB240E5
:103AF0007D5541018280F1B7138501828280214585
:103B00008280411122C42A84484106C6EF00F00990
:103B1000B787001098479316F70063D706009847B9
:103B2000C176FD16758F98C7378700101C47B706FA
:103B30000200B725F400D58F1CC71C402285938551
:103B40000540DC43829708442244B24041016F00A3
:103B5000D005011106CE22CC26CA2A844D372AC6AA
:103B60002285593F83A40184B24582942A84B145B9
:103B70001385018282949317F40063CC070062449A
:103B8000F240D244370500801305451805616F00E7
:103B900010059317E400AA8463C507063705008063
:103BA00013054518EF00B0039317D40063C607044C
:103BB000935744008566938606C093F7F7031377FF
:103BC00074008507758C9306F03F0507860763FF31
:103BD00086023345E50229803305F5028547339493
:103BE000870093F704103345850299E793F4F403B3
:103BF0008504860433559502F2406244D24405613F
:103C00008280370500801305C51669BF7D55EDB765
:103C1000797122D426D24AD006D64ECE52CCAA846E
:103C20002E8937840010E13D2A941C401397F70039
:103C3000635707001C4041777D17F98F1CC01C405B
:103C40001397E700634D07023705008013054518F9
:103C5000EF00E0780D473307E50291463347D7027E
:103C60006344E9029547B307F502B3C7D70263CDB2
:103C700027011C4037070400D98F1CC021AA370533
:103C800000801305C516E9B73717402037080080B4
:103C9000130787DDFD561348F8FF13063004FD5562
:103CA0001C47636AF5025C4763E7A7021C4383284D
:103CB0004700B307F502B3D71703638EB700B38786
:103CC000274193D8F741B3C7F800B387174163D4AE
:103CD00007013E88B2867D160117E313B6FC1C402F
:103CE000E38AC6F8E19B1CC0B7074020960693877D
:103CF0008757B697984B10401D8B518F18C01840AE
:103D00001377F7C018C0D84B144012071377073F3A
:103D1000558F18C01840FD769386F63F758F18C0F2
:103D2000984F104085662A07938606C0758F518F7D
:103D300018C0D84FB7870010635C0706D8471367D1
:103D40000710D8C7D847137707FCD8C7D8471367D9
:103D50001700D8C71C403707FCFF7D17F98FB7192C
:103D600000801CC0300085451385498AEFE01F950F
:103D70002249B247130A490033392A013E99B24712
:103D80006367F90063932705A2476370FA041C4038
:103D9000E3DF07FE1C4041672685D98F1CC0553BD9
:103DA000B250225492540259F249624A45618280CB
:103DB000D4471377F70393F6F6EFD4C7D44793F6B7
:103DC00006FCD4C7D447558F69B7300085451385A5
:103DD000498AEFE0BF8E65B7B7870010BE9588416E
:103DE0008280B7870010BE9590C13285828013878C
:103DF000C181B72701106303A7008147D84301455C
:103E0000D98DCCC382801387C181B727011063038A
:103E1000A7008147D84393C5F5FF0145F98DCCC371
:103E200082809387C1816385A70081478843828010
:103E3000B7270110E5BF9387C1816385A70081473C
:103E4000C8478280B7270110E5BF1387C181B72714
:103E500001106303A7008147984793C5F5FF01450B
:103E6000F98D8CC782801387C181B7270110630346
:103E7000A700814798470145D98D8CC78280138759
:103E8000C181B72701106303A7008147D8470145C7
:103E9000D98DCCC782801387C181B72701106303F6
:103EA000A7008147D84793C5F5FF0145F98DCCC7D9
:103EB00082801387C181B72701106303A700814760
:103EC000D8470145B98DCCC782801387C181B727F8
:103ED00001106303A7008147D85F0145D98DCCDF6E
:103EE000985F598E90DF82801387C181B7270110B8
:103EF0006303A7008147985F93C5F5FF0145F98DDE
:103F00008CDF82801387C181B72701106303A7006C
:103F100081471D47636CC70237174020130787DFAF
:103F20000A063A9618420287984F93C5F5FF6D8F9F
:103F300098CF98536D8F98D398576D8F98D7985B7B
:103F4000F98D8CDB21A0984FD98D8CCF01458280D3
:103F5000984F4D8F98CF9853D98D8CD3C5BF985714
:103F6000D98D8CD7E5B7984F4D8F98CF98534D8FFB
:103F700098D398574D8F98D7985BD98DD9B7138719
:103F8000C181B72701106303A70081477D16194738
:103F9000636DC70037174020130787E10A063A967A
:103FA00018420287D84FD98DCCCF01458280D84F97
:103FB0004D8FD8CFD853D98DCCD3C5BFD857D98D35
:103FC000CCD7E5B7D84F4D8FD8CFD8534D8FD8D356
:103FD000D8574D8FD8D7D85BD98DCCDBF9B793871D
:103FE000C1816384A70001458280370500801305E5
:103FF000855782809387C1816392A7081D45C1C1FF
:1040000085472145638DF506894725456389F50672
:104010008D4729456385F50691472D456381F50652
:1040200095473145638DF504994735456389F50416
:104030009D4739456385F504A1473D456381F504F6
:10404000A5474145638DF502A94745456389F502BA
:10405000AD4749456385F502B1474D456381F5029A
:10406000B5475145638DF500B94755456389F5005E
:10407000BD4701456395F500594582800145828021
:1040800093874182B70610006383A7008146139788
:10409000050199C58D6793873733BA979CC2FDBFD9
:1040A000956793875755D5BFB71700809387878744
:1040B0006384A7000145828037050080130585577A
:1040C0008280B7170080938787876384A7000145A4
:1040D0008280154582803717008013078787B7379E
:1040E00001106303A7008147984B01451367170030
:1040F00098CB82803717008013078787B737011066
:104100006303A7008147984B0145799B98CB828038
:104110003717008013078787B73701106303A7009D
:104120008147984B01451367270098CB828037174A
:10413000008013078787B73701106303A700814703
:10414000984B0145759B98CB8280B7170080938769
:1041500087876386A700814788437D818280B73740
:104160000110DDBF3717008013078787B7370110AD
:104170006303A70081479847B7060700C205F58D7E
:10418000D98D8CC701458280B717008093878787B8
:104190006387A7008147884741811D898280B7379F
:1041A0000110D5BF3717008013078787B737011075
:1041B0006303A7008147D847B7060700C205F58DFE
:1041C000D98DCCC701458280B71700809387878738
:1041D0006387A7008147C84741811D898280B7371F
:1041E0000110D5BF0111B717008022CC26CA06CE18
:1041F00093878787AA84373401106303F50001444D
:1042000026852EC69937B24565FD0CC0F240624442
:10421000D24405618280B71700809387878737373C
:1042200001106383A70001475843FD57634407000B
:104230009377F70F9CC10145828048418280B71770
:104240000080938787876305F5004CC10145828014
:10425000411122C406C64CC13705008083270519C9
:10426000130505192E849C43829733458502B73781
:104270000110B24022447D1588CF9847014513674D
:10428000170098C7D84713671700D8C74101828025
:104290000111B717008026CA06CE22CC93878787E4
:1042A000AA846309F504814701459847B706F9FFD9
:1042B000FD16758F98C79847C16613868700558F7E
:1042C00098C7D84B058B75DF1C4100429C43098879
:1042D00013341400829725043305A402C04002C69B
:1042E00033558502B24763CEA700F2406244D24400
:1042F0000561828037050080B73701101305051965
:104300006DB70100B24785073EC6E9BF4C416FE07B
:104310008F9B01114AC83719008022CC26CA52C48B
:1043200006CE4EC6130989872A842E8A8144631FCC
:104330002503B747402093870729B704008093845B
:1043400004191CC548C493098500C840CE85A5281A
:10435000C8C0B747402088449387C7305CC800CCAA
:10436000930544018D2088C49384C181D285228520
:10437000EFE06F959DC037060300630324010146FB
:104380009C406244F2404249B249224A03A3470298
:104390002685D244814505610283F2406244D244BD
:1043A0004249B249224A05618280411122C406C6AF
:1043B0002A8409E4B2402244410182801C404840E2
:1043C00082970044FDB723A40500AA8701E52E8546
:1043D0008280BA87984775FF8CC7AA85CDBF1C41DC
:1043E00003A307000283011122CC2A84484106CE90
:1043F00026CA2EC65D3F1C40B2452285DC4382970B
:10440000AA8408445D37F24062442685D24405619F
:1044100082801C4103A3C702028301E503A5C18476
:10442000828001458280732540F182801C414111C8
:1044300006C69C438297AA8541111385418206C610
:10444000F537000000000000000000000000000040
:10445000000000000000000000000000000000005C
:10446000000000000000000000000000000000004C
:10447000000000000000000000000000000000003C
:104480006FE00FF06FE0CFEF6FE08FEF6FE0EFF1D5
:104490006FE00FEF6FE0CFEE6FE08FEE6FE0AFF801
:1044A0006FE00FEE6FE0CFED6FE08FED6FE04FED5F
:1044B0006FE00FED6FE0CFEC6FE08FEC6FE04FEC53
:1044C0006FE02FFE6FE0BF856FE03F8D6FE0BF9420
:1044D0006FE03F9C6FE0BFA36FE03FAB6FE0BFB208
:1044E0006FE03FBA6FE0BFC16FE03FC96FE0BFD080
:1044F0006FE03FD86FE0BFDF6FE03FE76FE0BFEEF8
:10450000B7070080938707166300F502B70700809E
:1045100093878717630FF500B70700809387C71944
:10452000630EF500014582803725F4001305054030
:10453000828037A54A041305052082803755E8019B
:10454000130505808280B7070080938707166300F4
:10455000F502B707008093878717630FF500B70749
:1045600000809387C719630EF500014582803725C7
:10457000F40013050540828037A54A041305052081
:1045800082803755E801130505808280411106C6F7
:024590005D3597
:10459800637C777BF26B6FC53001672BFED7AB76F8
:1045A800CA82C97DFA5947F0ADD4A2AF9CA472C0A3
:1045B800B7FD9326363FF7CC34A5E5F171D8311510
:1045C80004C723C31896059A071280E2EB27B27531
:1045D80009832C1A1B6E5AA0523BD6B329E32F84A9
:1045E80053D100ED20FCB15B6ACBBE394A4C58CFA1
:1045F800D0EFAAFB434D338545F9027F503C9FA875
:1046080051A3408F929D38F5BCB6DA2110FFF3D242
:10461800CD0C13EC5F974417C4A77E3D645D1973F6
:1046280060814FDC222A908846EEB814DE5E0BDBF0
:10463800E0323A0A4906245CC2D3AC629195E47927
:10464800E7C8376D8DD54EA96C56F4EA657AAE0881
:10465800BA78252E1CA6B4C6E8DD741F4BBD8B8A1C
:10466800703EB5664803F60E613557B986C11D9E82
:10467800E1F8981169D98E949B1E87E9CE5528DFF9
:104688008CA1890DBFE6426841992D0FB054BB1625
:10469800000000006C0340208C0340204C034020A5
:1046A8000000000000000000000000000000000002
:1046B80000000000000000000000000000000000F2
:1046C80000000000000000000000000000000000E2
:1046D80000000000000000000000000000000000D2
:1046E80000000000000000000000000000000000C2
:1046F800E80800800000000000000000D0080080EA
:104708000000000000000000E80800800000000031
:1047180000000000C8080080000000000000000041
:10472800700540200000000000000000E80800803C
:104738000000000000000000A40440200000000069
:104748000000000000000000000000000000000061
:104758000000000000000000000000000000000051
:104768000000000000000000000000000000000041
:104778000000000000000000000000000000000031
:104B08000000000000000000080540200000000030
:104B1800000000000000000000000000000000008D
:104B2800000000000000000000000000000000007D
:104B3800000000000000000000000000000000006D
:104B4800000000000000000000000000000000005D
:104E08000000000000000000700E402000000000BC
:104E1800000000000000000000000000000000008A
:104E28000000000000000000000100800001008078
:104E3800A00D0080FC03402000000000600440201A
:104E480000000000340E4020D8080080E0080080F0
:104E5800AC08008001030400803A4020C03A40209A
:104E6800C23A4020F63A4020D83D4020E23D40205A
:104E780080404020AC080080004540204645402046
:040000052040000097
:00000001FF
