:020000042001D9
:100000009721FF5F9381012B970200009382820169
:100010007390523093021000638402007350107C7E
:100020009702000093828215739052301701FFDF10
:10003000130141FD63140100138101D2732540F1C6
:10004000814213030040137101FF6385A2001A91DE
:100050008502D5BF970000009380A0046383000051
:100060008290732540F1814501462D229700FFDFE4
:10007000938040F96383000082909702000093828E
:10008000C2007390523003230000F5BF000000004F
:100090008280232003001103E34D73FE82800684D7
:1000A0009702FFDF938202F66385020C9702FFDF5F
:1000B000938242F5F32740F1A14673B00630639670
:1000C000570A1703FFE71303E3F39723FFE793832D
:1000D00063F3630E7300753F1703FFDF130383F2AF
:1000E0009703FFDF938303F2630373005D37170306
:1000F000FF5F130323F19743FF5F9383A3F0630331
:100100007300413F1703FFDF1303C3EF9703FFDFC4
:10011000938343EF63037300AD3F1703FFDF1303C4
:1001200063EE9703FFDF9383E3ED6303730095377B
:100130001703FFDF130303ED9703FFDF938383ECC4
:1001400063037300B9371703FFDF1303A3EB9703B0
:10015000FFDF938323EB63037300253F3707000220
:1001600085471CC30F00300129A0370700021C433C
:10017000EDDFA28082800000F3222034732310344C
:10018000F3233034D5BF411122C6000801003244A8
:100190004101828006849721FF5F9381A111930220
:1001A00000006317550A97920000938222391703C3
:1001B000FF5F130323E59723FF5F93832395638CEE
:1001C0006200635A730003A5020091022320A3007A
:1001D0001103E34A73FE971200009382A2011703F2
:1001E000FFE7130323E29703FFE79383A3E1638C05
:1001F0006200635A730003A5020091022320A3004A
:100200001103E34A73FE0F1000001723FF5F13036F
:10021000E38F93830192635773002320030011033C
:10022000E34D73FE1722FF5F1302428E11C2029646
:1002300017950000130585F4EF801070EF8050775C
:10024000179500001305A527EF80106FEF9080250C
:100250001D3FFD5673B0463073B04634F32710305F
:10026000372704007D8F09C773B0363073B026304E
:10027000370704007D8F19C373B0061837070100D4
:1002800013078702F98F89CBF32700300967D98FCD
:100290007390073073503000054597150000938523
:1002A000E5F3171600001306A6F33120EF80306A3D
:1002B000A28082808280411106C2F32240F11303A2
:1002C00000006385620073005010F5BFEF005073AB
:0602D00092404101828012
:0C02D800E4020120100301203A03012081
:1002E400011106CE22CC0010EF60F0582326A4FEA4
:1002F4008327C4FE99C7B7270080138507AAEF6038
:1003040010600100F240624405618280011106CE52
:1003140022CC0010EF6030562326A4FE8325C4FEB1
:10032400B7270080138507AAEF80D0090100F240A7
:10033400624405618280411106C622C40008F16747
:1003440093850720B7270080138587A4EF80F025C5
:0A0354000100B24022444101828002
:10036000726564004C443000677265656E00000081
:10037000626C7565000000004174206C65617374E7
:10038000206F6E65206F66204C4544732069732092
:100390006E756C6C2E000000435055206E756C6CB1
:1003A0002E00000043505520696E7465727275709E
:1003B0007420636F6E74726F6C6C65722069732049
:1003C0006E756C6C2E0000006165733132382065EB
:1003D0006E6372797074696F6E2066696E616C20ED
:1003E0006379633A2025640A000000006375727621
:1003F00065323535313920726564756374696F6EA5
:10040000206379633A2025640A00000063757276E0
:100410006532353531392043206C616E6720766551
:1004200072206379633A2025640A000054494D45DF
:100430005220696E7465727275707420636F6E7489
:10044000726F6C6C657220697320206E756C6C2EF7
:100450000000000054494D455220696E7465727267
:100460007570742068616E646C657220726567696E
:100470007374726174696F6E206661696C65640083
:1004800043505520696E7465727275707420656E84
:1004900061626C65206661696C656400EDFFFFFF59
:1004A000FFFFFFFFFFFFFFFFFFFFFFFFFFFFFFFF5C
:1004B000FFFFFFFFFFFFFFFFFFFFFF7F00000000C8
:1004C000000000000000000000000000000000002C
:1004D000000000000000000000000000000000001C
:1004E000000000000000000000000000000000000C
:1004F00000000000000000000000000000000000FC
:1005000000000000000000000000000000000000EB
:10051000000000000000000000000000232D302B30
:1005200020000000686C4C00656667454647000087
:100530003031323334353637383941424344454619
:1005400000000000303132333435363738396162DB
:1005500063646566000000000001020203030303F8
:100560000404040404040404050505050505050543
:100570000505050505050505060606060606060623
:10058000060606060606060606060606060606060B
:1005900006060606060606060707070707070707F3
:1005A00007070707070707070707070707070707DB
:1005B00007070707070707070707070707070707CB
:1005C00007070707070707070707070707070707BB
:1005D00007070707070707070808080808080808A3
:1005E000080808080808080808080808080808088B
:1005F000080808080808080808080808080808087B
:10060000080808080808080808080808080808086A
:10061000080808080808080808080808080808085A
:10062000080808080808080808080808080808084A
:10063000080808080808080808080808080808083A
:10064000080808080808080808080808080808082A
:10065000080808080808080854460120FA4701203D
:10066000DE4701200000000000000000EC4A0120ED
:10067000204B0120DC460120B647012052480120D2
:1006800004490120000000000000000000000000FC
:10069000000000000000000000000000000000005A
:1006A00000000000B64901208C4501200000000038
:1006B0000000000000000000000000002E5C01208F
:1006C000205C0120F45B0120F45B01200A5C012026
:1006D000E85C01204E5D01204E5D0120FA5C0120A6
:1006E0004E5D01204E5D01204E5D01200C5D01201C
:1006F0004E5D01204E5D01204E5D01201E5D0120FA
:100700004E5D01204E5D01204E5D01204E5D0120B9
:10071000305D0120305D0120305D0120305D012021
:10072000305D0120305D0120305D0120305D012011
:10073000305D0120305D0120305D0120305D012001
:10074000305D0120305D0120305D0120305D0120F1
:10075000B05D0120DC600120C060012000000000CD
:10076000000000000000000000000000925E012078
:10077000000000006860012094600120000000007B
:100780000000000000000000000000000000000069
:1007900000000000000000000000000030610120A7
:1007A0000000000000000000000000000000000049
:1007B000000000004C610120BE61012004620120A4
:1007C0006A620120E0620120FA6201200E630120CA
:1007D000286301203C6301209E6301200064012006
:1007E0006064012080640120C6640120F46401205B
:1007F00012650120326501202C69012000000000F3
:1008000000000000000000000000000000000000E8
:1008100000000000846A012000000000466B0120F7
:10082000966B01200000000000000000166C012003
:10083000E66B01209A670120386701200000000064
:100840000000000000000000000000003E6C0120DD
:10085000DA6C0120766D0120EA6D012001000000B4
:1008600020000000001BB70000366E0101000000F0
:100870001F000000030000003F0000000100000016
:100880002000000000366E01006CDC020300000056
:100890001F000000020000003F00000001000000F7
:1008A00010000000808D5B00001BB70000000000FE
:1008B0001F000000030000003F00000001000000D6
:1008C00010000000001BB70000366E0101000000A0
:1008D0001F000000020000003F00000001000000B7
:1008E0001000000000366E01006CDC020300000006
:1008F0001F000000020000001F00000001000000B7
:1009000008000000808D5B00001BB70000000000A5
:100910001F000000030000001F0000000100000095
:1009200008000000001BB70000366E010100000047
:100930001F000000020000001F0000000100000076
:100940000800000000366E01006CDC0203000000AD
:100950001F000000020000000F0000000100000066
:1009600004000000808D5B00001BB7000000000049
:100970001F000000030000000F0000000100000045
:1009800004000000001BB70000366E0101000000EB
:100990001F000000020000000F0000000100000026
:1009A0000400000000366E01006CDC020300000051
:1009B0001F0000000200000007000000010000000E
:1009C00002000000808D5B00001BB70000000000EB
:1009D0001F000000020000000F00000001000000E6
:1009E00002000000001BB70000366E01010000008D
:1009F0001F000000010000000F00000001000000C7
:100A00000200000000366E01006CDC0203000000F2
:100A10001F000000010000000700000002000000AD
:100A200001000000808D5B00001BB700000000008B
:100A30001F0000000100000007000000020000008D
:100A400001000000001BB70000366E01010000002D
:100A50001F00000001000000030000000200000071
:100A60000100000000366E01006CDC020300000093
:100A70001F00000003000000FFFFFFFF0400000054
:100A800001000000808D5B00001BB700000000002B
:100A90001F00000003000000000000000400000030
:100AA00001000000001BB70000366E0101000000CD
:100AB0001F00000003000000FFFFFFFF0400000014
:100AC0000100000000366E01006CDC020300000033
:100AD0001F00000002000000FFFFFFFF06000000F3
:100AE00001000000808D5B00AAC2A200000000008F
:100AF00023000000010000000200000006000000CA
:100B000001000000AAC2A200001BB7000000000004
:100B10001700000003000000FFFFFFFF06000000B9
:100B200001000000001BB7000024F40001000000D9
:100B30002F00000003000000FFFFFFFF0600000081
:100B4000010000000024F40080A812010100000050
:100B50001700000002000000FFFFFFFF060000007A
:100B60000100000080A81201558545010200000027
:100B70002300000002000000FFFFFFFF080000004C
:100B800001000000808D5B00001BB700000000002A
:100B90001F00000003000000FFFFFFFF080000002F
:100BA00001000000001BB70000366E0101000000CC
:100BB0001F00000002000000FFFFFFFF0800000010
:100BC0000100000000366E01006CDC020300000032
:100BD0001F00000001000000FFFFFFFF0A000000EF
:100BE00001000000808D5B00007C9200000000008E
:100BF0002700000003000000FFFFFFFF0A000000C5
:100C000001000000007C9200001BB7000000000003
:100C10001300000002000000FFFFFFFF0A000000B9
:100C200001000000001BB70000F8240101000000D3
:100C30002700000002000000FFFFFFFF0A00000085
:100C40000100000000F8240100366E0101000000E0
:100C50001300000001000000FFFFFFFF0A0000007A
:100C60000100000000366E0100F0490203000000A0
:100C70002700000001000000FFFFFFFF0C00000044
:100C800001000000808D5B0000127A00000000006F
:100C90002F00000003000000FFFFFFFF0C0000001A
:100CA0000100000000127A00001BB70000000000E5
:100CB0001700000002000000FFFFFFFF0C00000013
:100CC00001000000001BB7000024F4000100000038
:100CD0002F00000002000000FFFFFFFF0C000000DB
:100CE000010000000024F40000366E010100000045
:100CF0001700000001000000FFFFFFFF0C000000D4
:100D00000100000000366E0180C3C901030000002D
:100D10002F00000001000000FFFFFFFF0C0000009B
:100D20000100000080C3C9010048E8010300000081
:100D30002F00000001000000FFFFFFFF0E00000079
:100D400001000000808D5B00B6A16800000000007B
:100D50003700000003000000FFFFFFFF0E0000004F
:100D600001000000B7A16800001BB70000000000F0
:100D70001B00000002000000FFFFFFFF0E0000004C
:100D800001000000001BB7006D43D100010000000E
:100D90003700000002000000FFFFFFFF0E00000010
:100DA000010000006E43D10000366E01010000001A
:100DB0001B00000001000000FFFFFFFF0E0000000D
:100DC0000100000000366E01DB86A2010300000076
:100DD0003700000001000000FFFFFFFF10000000CF
:100DE00001000000808D5B00001BB70000000000C8
:100DF0001F00000002000000FFFFFFFF10000000C6
:100E000001000000001BB70000366E010100000069
:100E10001F00000001000000FFFFFFFF12000000A4
:100E200001000000808D5B00AAC2A200000000004B
:100E30002300000002000000FFFFFFFF120000007F
:100E400001000000ABC2A200001BB70000000000C0
:100E50001100000001000000FFFFFFFF1200000072
:100E600001000000001BB70055854501010000008E
:100E70002300000001000000FFFFFFFF140000003E
:100E800001000000808D5B00007C920000000000EB
:100E90002700000002000000FFFFFFFF1400000019
:100EA00001000000007C9200001BB7000000000061
:100EB0001300000001000000FFFFFFFF140000000E
:100EC00001000000001BB70000F824010100000031
:100ED0002700000001000000FFFFFFFF16000000D8
:100EE00001000000808D5B00E82A85000000000002
:100EF0002B00000002000000FFFFFFFF16000000B3
:100F000001000000E92A8500001BB7000000000076
:100F10001500000001000000FFFFFFFF16000000A9
:100F200001000000001BB700D1550A0101000000BC
:100F30002B00000001000000FFFFFFFF1800000071
:100F400001000000808D5B0000127A0000000000AC
:100F50002F00000002000000FFFFFFFF180000004C
:100F60000100000000127A00001BB7000000000022
:100F70001700000001000000FFFFFFFF1800000045
:100F800001000000001BB7000024F4000100000075
:100F90002F00000001000000FFFFFFFF1A0000000B
:100FA00001000000808D5B0027AE70000000000093
:100FB0003300000002000000FFFFFFFF1A000000E6
:100FC0000100000028AE7000001BB7000000000008
:100FD0001900000001000000FFFFFFFF1A000000E1
:100FE00001000000001BB7006658E100010000008E
:100FF0003300000001000000FFFFFFFF1C000000A5
:1010000001000000808D5B00B6A1680000000000B8
:101010003700000002000000FFFFFFFF1C0000007F
:1010200001000000B7A16800001BB700000000002D
:101030001B00000001000000FFFFFFFF1C0000007C
:1010400001000000001BB7006D43D100010000004B
:101050003700000001000000FFFFFFFF1E0000003E
:1010600001000000808D5B0000A86100000000000E
:101070003B00000002000000FFFFFFFF1E00000019
:101080000100000000A86100001BB7000000000084
:101090001D00000001000000FFFFFFFF1E00000018
:1010A00001000000001BB7000050C3000100000059
:1010B0003B00000001000000FFFFFFFF20000000D8
:1010C00001000000808D5B00001BB70000000000E5
:1010D0001F00000001000000FFFFFFFF0271012060
:1010E000A67101206E7501204C44307265640000C9
:1010F0004C4430677265656E000000004C443062FD
:101100006C75650000000000367801206C780120C5
:10111000B4780120F2780120327901203680012054
:10112000B4800120CC800120E8800120368101209C
:101130001A810120528101208881012076830120BB
:101140003C8201205482012070820120BE82012055
:10115000A2820120DA82012010830120607D01201B
:10116000207D0120A67D0120D07D0120FC7D012075
:10117000427E0120827E0120C27E0120087F012064
:10118000487F0120AA7F0120F47F0120FA810120FD
:1011900082830120A28301203E8A0120E087012072
:1011A000BC860120228801207888012098880120AF
:1011B00098850120B8850120D8850120128601205C
:1011C0004A86012084860120EC8601203687012092
:1011D00066870120B0870120E01101200000000097
:1011E0006C6962676C6F73730000000000000000A0
:1012000041712320211FB705012037090120938553
:101210000536130549362326111E2324811E232259
:10122000911E232E311D232C411D232A511D2328BD
:10123000611D2326711DEF308016B70501202A8419
:101240009385853613054936EF306015B7050120C3
:10125000AA849385053713054936EF30401463049B
:10126000042A6382042A2A89630F05281C402285E8
:10127000DC4382979C402685DC43829783270900C4
:101280004A85DC4382971C402285DC4782979C403C
:101290002685DC478297832709004A85DC478297A9
:1012A000EF30400EEF30200B23ACA18E6309052AEE
:1012B0001C41DC57829723A0A1906302052C1C419E
:1012C0009309803E9C4382971306000481450809D8
:1012D000EF10102E1306000281450818EF10502D54
:1012E000B70803019388182046CAB70801029388FB
:1012F000284046CC37080607B70606083707060910
:10130000B707060AB70802061308485093864650E6
:1013100013074750938747509388581010100C08B4
:10132000080A46CE42C036C23AC43EC6232801113E
:10133000232AD110232CE110232EF11002C8EF0034
:10134000B02A10100C08080AEF00102A10100C0820
:10135000080AEF00702910100C08080AEF00D028C6
:1013600010100C08080AEF003028792B2A8BAE8B5E
:10137000FD1910100C08080AEF001027E39A09FE67
:101380006123AA8733056541B3B7A700B3857541CB
:101390001306803E81469D8DEF20B043AA85370518
:1013A00001201305853CEF10B0210C180809EF103F
:1013B00020660C180809EF10A0650C180809EF103A
:1013C00020650C180809EF10A0640C180809EF102C
:1013D00020641D2B2A8BAE8B9309803EFD190C18BF
:1013E0000809EF10E062E39B09FE392BAA87330559
:1013F0006541B3B7A700B385754181469D8D13063E
:10140000803EEF20103DAA85370501201305C53E1B
:10141000EF10101B1306000281458819EF105019B8
:101420001306000281458808EF109018B777777788
:1014300093877777BEC9BECBBECDBECFBED1BED35C
:10144000BED5BED7B557BED8B70700807D5793C766
:10145000F7FFBADABADCBADE3AC13AC33AC53EC7D8
:1014600065219309803E2A8BAE8BFD198146901829
:101470008C098808092EE39A09FE7921AA87330589
:101480006541B3B7A700B38575411306803E814619
:101490009D8DEF201034AA85370501201305C54026
:1014A000EF10101203A5818F1C419C4B829723AE35
:1014B000A18E55CD1C419C43829703A5818F1C4171
:1014C000DC4B8297AA8503A5C18F83A6818F184123
:1014D00023ACB19037160120584F1306E6580297F7
:1014E000AA89634D050403A5019081451C41DC5385
:1014F0008297FD57630DF50422854D2826857D20B2
:101500004A856D20D5BF3705012013058537EF10BB
:10151000101D05458320C11E0324811E8324411E06
:101520000329011E8329C11D032A811D832A411D10
:10153000032B011D832BC11C7D6182803705012097
:1015400013054545EF10B01933053041E1B73705B4
:10155000012013050548EF109018194565BF3705A0
:10156000012013058539EF109017094565B7370538
:1015700001201305C542EF109016114561BF3705D4
:1015800001201305453AEF1090150D4561B703A5ED
:10159000C18F83A581911C41411106C69C5782973A
:1015A000B240054723AAE190410182801C414111CC
:1015B00022C49C4706C626C24AC023AA01902A8993
:1015C000829783A4818F9C4026859C478297984070
:1015D000A167AA97584733B5A7003306B500BE8563
:1015E0002685029703A5C18F83A581911C41DC53F9
:1015F000829783A74191F5DF8327090023AA0190F1
:101600002244B24092444A8503A3C70002494101E3
:1016100002835D71A2C4A6C2CAC02E84B284814571
:101620002A89130600040A8586C6EF106078A28511
:101630000A8E930E010281471383C40183A805001B
:1016400081462685728619A01C4211051841B6975D
:10165000B3B6D7003388E802110633B7E802C29761
:10166000232EF6FEB3B707013697B386E700E31DD6
:10167000A3FC2320DE02110E91056385CE01832792
:101680000E006DBF8A854A8513060004EF10E070D6
:10169000B64026449644064961618280797106D637
:1016A00022D402C002C202C402C602C802CA02CCCC
:1016B00002CE31CF9C411442AE8EB2888A85131679
:1016C00027003387D70013884E00B337F7003AC09E
:1016D00091082E83B29E15A08327080083A60800D8
:1016E00011089108BE96338E8600B3B7F6003334E6
:1016F0008E002322C301A29711033E84E31ED8FD6E
:10170000EF10A0692285B2502254456182808A85FB
:101710000146EF10806801442285B2502254456191
:101720008280797122D406D602C002C202C402C6E7
:1017300002C802CA02CC02CE8A8813830502014481
:1017400009A86303D800014491051106910863823A
:10175000650203A805001442B3078840958F23A0B3
:10176000F800E370D8FE9105054411069108E39254
:1017700065FE8A8513162700EF1020622285B2507D
:101780002254456182800D71232C81142328211558
:10179000232631152E84AA898145328988011306B2
:1017A0000004232E1114232A911423244115EF1031
:1017B0002060130600048145080202C002C202C470
:1017C00002C602C802CA02CC02CEEF10605E9307C6
:1017D0006002BEC002D002D202D402D602D802DA1F
:1017E00002DC02DE82C282C482C682C882CA82CC85
:1017F00082CE82D082D282D482D682D882DA82DC31
:1018000082DE02C102C302C502C702C902CB02CDF9
:1018100002CF22879C10100114439107110723AEB9
:10182000D7FEE31BF6FE13070402B287130A010A70
:1018300014439107110723AED7FEE31BFAFE21479D
:10184000CA868C008801F1338E572147CA869001E1
:101850008C100A853ED0993582572147CA86AA97AF
:1018600090000C1008023ED06D33B707012093871B
:10187000C74983AF070003AF470083AE870003AEBD
:10188000C70003A3070183A8470103A88701DC4F12
:101890002147CA8610028A850A857ED17AD376D5F9
:1018A00072D71AD946DB42DD3EDFCD3BAA84130452
:1018B00001FE634E90008A877819D04F1443F117C8
:1018C000711763E6C600636CD600E39887FE214774
:1018D000CA8652868A850A85A935898CD9BF8A85A8
:1018E0004E8513060002EF10404B8320C1150324E0
:1018F000811583244115032901158329C114032A65
:101900008114356182800000F32500B8732500B092
:10191000732600B8E39AC5FE828000000000000034
:10192000832205000323450083238500032EC50081
:1019300097EEFE5F938E0E6DB71F0000938F0FFF23
:10194000131F4E00B377FF01135F4E003376FF0184
:10195000135FCE00B376FF01135F4E013377FF01B3
:10196000330FD60103460F00338FD60183460F0095
:10197000330FD70103470F00338FD70183470F0081
:1019800093C21200B3C2C200A206B3C2D200420781
:10199000B3C2E200E207B3C2F20033435300B3C361
:1019A0006300334E7E0023A0550023A2650023A4CC
:1019B000750023A6C501131F4E00B377FF01135F07
:1019C0004E003376FF01135FCE00B376FF01135F45
:1019D0004E013377FF01330FD60103460F00338FDB
:1019E000D60183460F00330FD70103470F00338F13
:1019F000D70183470F0093C22200B3C2C200A206E0
:101A0000B3C2D2004207B3C2E200E207B3C2F2009F
:101A100033435300B3C36300334E7E0023A8550005
:101A200023AA650023AC750023AEC501131F4E0029
:101A3000B377FF01135F4E003376FF01135FCE00D3
:101A4000B376FF01135F4E013377FF01330FD601E9
:101A500003460F00338FD60183460F00330FD701A3
:101A600003470F00338FD70183470F0093C2420013
:101A7000B3C2C200A206B3C2D2004207B3C2E200A0
:101A8000E207B3C2F20033435300B3C36300334EE3
:101A90007E0023A0550223A2650223A4750223A67B
:101AA000C503131F4E00B377FF01135F4E0033765B
:101AB000FF01135FCE00B376FF01135F4E01337752
:101AC000FF01330FD60103460F00338FD601834643
:101AD0000F00330FD70103470F00338FD701834720
:101AE0000F0093C28200B3C2C200A206B3C2D200EA
:101AF0004207B3C2E200E207B3C2F200334353002D
:101B0000B3C36300334E7E0023A8550223AA6502A7
:101B100023AC750223AEC503131F4E00B377FF013C
:101B2000135F4E003376FF01135FCE00B376FF01E3
:101B3000135F4E013377FF01330FD60103460F00C9
:101B4000338FD60183460F00330FD70103470F00B1
:101B5000338FD70183470F0093C20201B3C2C20083
:101B6000A206B3C2D2004207B3C2E200E207B3C288
:101B7000F20033435300B3C36300334E7E0023A00F
:101B8000550423A2650423A4750423A6C505131FC9
:101B90004E00B377FF01135F4E003376FF01135FF2
:101BA000CE00B376FF01135F4E013377FF01330F91
:101BB000D60103460F00338FD60183460F00330F43
:101BC000D70103470F00338FD70183470F0093C21C
:101BD0000202B3C2C200A206B3C2D2004207B3C21D
:101BE000E200E207B3C2F20033435300B3C3630021
:101BF000334E7E0023A8550423AA650423AC750444
:101C000023AEC505131F4E00B377FF01135F4E00CF
:101C10003376FF01135FCE00B376FF01135F4E01F1
:101C20003377FF01330FD60103460F00338FD60100
:101C300083460F00330FD70103470F00338FD701BF
:101C400083470F0093C20204B3C2C200A206B3C20C
:101C5000D2004207B3C2E200E207B3C2F20033434C
:101C60005300B3C36300334E7E0023A0550623A266
:101C7000650623A4750623A6C507131F4E00B37778
:101C8000FF01135F4E003376FF01135FCE00B37682
:101C9000FF01135F4E013377FF01330FD601034677
:101CA0000F00338FD60183460F00330FD701034750
:101CB0000F00338FD70183470F0093C20208B3C2CE
:101CC000C200A206B3C2D2004207B3C2E200E207DA
:101CD000B3C2F20033435300B3C36300334E7E00FC
:101CE00023A8550623AA650623AC750623AEC507AF
:101CF000131F4E00B377FF01135F4E003376FF01D1
:101D0000135FCE00B376FF01135F4E013377FF01FF
:101D1000330FD60103460F00338FD60183460F00E1
:101D2000330FD70103470F00338FD70183470F00CD
:101D300093C2B201B3C2C200A206B3C2D20042072C
:101D4000B3C2E200E207B3C2F20033435300B3C3AD
:101D50006300334E7E0023A0550823A2650823A408
:101D6000750823A6C509131F4E00B377FF01135F43
:101D70004E003376FF01135FCE00B376FF01135F91
:101D80004E013377FF01330FD60103460F00338F27
:101D9000D60183460F00330FD70103470F00338F5F
:101DA000D70183470F0093C26203B3C2C200A206E9
:101DB000B3C2D2004207B3C2E200E207B3C2F200EC
:101DC00033435300B3C36300334E7E0023A855084A
:101DD00023AA650823AC750823AEC50982800100DB
:101DE0008280010013000000111122C226C44AC6DD
:101DF0004EC852CA56CC9441D8419C4503A8C50050
:101E0000832205000323450083238500032EC5009C
:101E100097EEFE5F938E0E1F138F4E00138A8E0077
:101E2000938ACE00B71F0000938F0FFFB3C65600F2
:101E300033476700B3C777003348C80183220501E1
:101E40000323450183238501032EC50113F4F60FF7
:101E50009374F70F13F9F70F9379F80F12049204A4
:101E600012099209B305E4018041B385E40184417C
:101E7000B305E90103A90500B385E90183A90500BC
:101E8000B3C2820033439300B3C32301334E3E01F8
:101E9000918211839183135848003374F701B3F48E
:101EA000F7013379F801B3F9F601B3055401804124
:101EB000B38554018441B305590103A90500B385D5
:101EC000590183A90500B3C2820033439300B3C311
:101ED0002301334E3E01A1822183A1831358880040
:101EE00033F4F701B374F80133F9F601B379F7016C
:101EF000B305D4018041B385D4018441B305D90130
:101F000003A90500B385D90183A90500B3C28200E6
:101F100033439300B3C32301334E3E01A182218397
:101F2000A183135888003374F801B3F4F6013379B0
:101F3000F701B3F9F701B30544018041B3854401CA
:101F40008441B305490103A90500B385490183A96B
:101F50000500B3C2820033439300B3C32301334E61
:101F60003E01145158511C550328C50213F4F20FB9
:101F70009374F30F13F9F30F9379FE0F1204920485
:101F800012099209B305E4018041B385E40184415B
:101F9000B305E90103A90500B385E90183A905009B
:101FA000A18E258FB3C727013348380193D2420051
:101FB0001353430093D34300135E4E003374F30175
:101FC000B3F4F3013379FE01B3F9F201B30554011F
:101FD0008041B38554018441B305590103A905002B
:101FE000B385590183A90500A18E258FB3C72701A9
:101FF0003348380193D282001353830093D3830074
:10200000135E8E0033F4F301B374FE0133F9F20171
:10201000B379F301B305D4018041B385D401844180
:10202000B305D90103A90500B385D90183A905002A
:10203000A18E258FB3C727013348380193D2820080
:102040001353830093D38300135E8E003374FE0119
:10205000B3F4F2013379F301B3F9F301B3054401A9
:102060008041B38544018441B305490103A90500BA
:10207000B385490183A90500A18E258FB3C7270128
:102080003348380183220503032345038323850353
:10209000032EC50313F4F60F9374F70F13F9F70F1C
:1020A0009379F80F1204920412099209B305E4011E
:1020B0008041B385E4018441B305E90103A905002A
:1020C000B385E90183A90500B3C2820033439300BD
:1020D000B3C32301334E3E01918211839183135880
:1020E00048003374F701B3F4F7013379F801B3F919
:1020F000F601B30554018041B38554018441B30511
:10210000590103A90500B385590183A90500B3C28C
:10211000820033439300B3C32301334E3E01A182B7
:102120002183A1831358880033F4F701B374F801B5
:1021300033F9F601B379F701B305D4018041B385D2
:10214000D4018441B305D90103A90500B385D901A0
:1021500083A90500B3C2820033439300B3C32301B4
:10216000334E3E01A1822183A1831358880033742A
:10217000F801B3F4F6013379F701B3F9F701B305C8
:1021800044018041B38544018441B305490103A959
:102190000500B385490183A90500B3C2820033431A
:1021A0009300B3C32301334E3E01344178413C4593
:1021B0000328C50413F4F20F9374F30F13F9F30F0C
:1021C0009379FE0F1204920412099209B305E401F7
:1021D0008041B385E4018441B305E90103A9050009
:1021E000B385E90183A90500A18E258FB3C7270117
:1021F0003348380193D242001353430093D3430032
:10220000135E4E003374F301B3F4F3013379FE012E
:10221000B3F9F201B30554018041B38554018441FF
:10222000B305590103A90500B385590183A9050028
:10223000A18E258FB3C727013348380193D282007E
:102240001353830093D38300135E8E0033F4F301A2
:10225000B374FE0133F9F201B379F301B305D4018C
:102260008041B385D4018441B305D90103A9050098
:10227000B385D90183A90500A18E258FB3C7270196
:102280003348380193D282001353830093D38300E1
:10229000135E8E003374FE01B3F4F2013379F3015F
:1022A000B3F9F301B30544018041B385440184418E
:1022B000B305490103A90500B385490183A90500B8
:1022C000A18E258FB3C72701334838018322050526
:1022D0000323450583238505032EC50513F4F60F57
:1022E0009374F70F13F9F70F9379F80F1204920410
:1022F00012099209B305E4018041B385E4018441E8
:10230000B305E90103A90500B385E90183A9050027
:10231000B3C2820033439300B3C32301334E3E0163
:10232000918211839183135848003374F701B3F4F9
:10233000F7013379F801B3F9F601B305540180418F
:10234000B38554018441B305590103A90500B38540
:10235000590183A90500B3C2820033439300B3C37C
:102360002301334E3E01A1822183A18313588800AB
:1023700033F4F701B374F80133F9F601B379F701D7
:10238000B305D4018041B385D4018441B305D9019B
:1023900003A90500B385D90183A90500B3C2820052
:1023A00033439300B3C32301334E3E01A182218303
:1023B000A183135888003374F801B3F4F60133791C
:1023C000F701B3F9F701B30544018041B385440136
:1023D0008441B305490103A90500B385490183A9D7
:1023E0000500B3C2820033439300B3C32301334ECD
:1023F0003E01345178513C550328C50613F4F20FC1
:102400009374F30F13F9F30F9379FE0F12049204F0
:1024100012099209B305E4018041B385E4018441C6
:10242000B305E90103A90500B385E90183A9050006
:10243000A18E258FB3C727013348380193D24200BC
:102440001353430093D34300135E4E003374F301E0
:10245000B3F4F3013379FE01B3F9F201B30554018A
:102460008041B38554018441B305590103A9050096
:10247000B385590183A90500A18E258FB3C7270114
:102480003348380193D282001353830093D38300DF
:10249000135E8E0033F4F301B374FE0133F9F201DD
:1024A000B379F301B305D4018041B385D4018441EC
:1024B000B305D90103A90500B385D90183A9050096
:1024C000A18E258FB3C727013348380193D28200EC
:1024D0001353830093D38300135E8E003374FE0185
:1024E000B3F4F2013379F301B3F9F301B305440115
:1024F0008041B38544018441B305490103A9050026
:10250000B385490183A90500A18E258FB3C7270193
:1025100033483801832205070323450783238507B2
:10252000032EC50713F4F60F9374F70F13F9F70F83
:102530009379F80F1204920412099209B305E40189
:102540008041B385E4018441B305E90103A9050095
:10255000B385E90183A90500B3C282003343930028
:10256000B3C32301334E3E019182118391831358EB
:1025700048003374F701B3F4F7013379F801B3F984
:10258000F601B30554018041B38554018441B3057C
:10259000590103A90500B385590183A90500B3C2F8
:1025A000820033439300B3C32301334E3E01A18223
:1025B0002183A1831358880033F4F701B374F80121
:1025C00033F9F601B379F701B305D4018041B3853E
:1025D000D4018441B305D90103A90500B385D9010C
:1025E00083A90500B3C2820033439300B3C3230120
:1025F000334E3E01A1822183A18313588800337496
:10260000F801B3F4F6013379F701B3F9F701B30533
:1026100044018041B38544018441B305490103A9C4
:102620000500B385490183A90500B3C28200334385
:102630009300B3C32301334E3E01832605080327CD
:102640004508832785080328C50813F4F20F9374FF
:10265000F30F13F9F30F9379FE0F1204920412098A
:102660009209B305E4018041B385E4018441B305D7
:10267000E90103A90500B385E90183A90500A18E3D
:10268000258FB3C727013348380193D24200135333
:10269000430093D34300135E4E003374F301B3F44D
:1026A000F3013379FE01B3F9F201B305540180411E
:1026B000B38554018441B305590103A90500B385CD
:1026C000590183A90500A18E258FB3C7270133487F
:1026D000380193D282001353830093D38300135E97
:1026E0008E0033F4F301B374FE0133F9F201B379D0
:1026F000F301B305D4018041B385D4018441B3050E
:10270000D90103A90500B385D90183A90500A18ECC
:10271000258FB3C727013348380193D28200135362
:10272000830093D38300135E8E003374FE01B3F4F1
:10273000F2013379F301B3F9F301B30544018041A8
:10274000B38544018441B305490103A90500B3855C
:10275000490183A90500A18E258FB3C727013348FE
:102760003801832205090323450983238509032EA4
:10277000C50913F4F60F9374F70F13F9F70F937954
:10278000F80F1204920412099209B305E401804182
:10279000B385E4018441B305E90103A90500B385CC
:1027A000E90183A90500B3C2820033439300B3C398
:1027B0002301334E3E0191821183918313584800C7
:1027C0003374F701B3F4F7013379F801B3F9F60183
:1027D000B30554018041B38554018441B3055901C7
:1027E00003A90500B385590183A90500B3C282007E
:1027F00033439300B3C32301334E3E01A1822183AF
:10280000A1831358880033F4F701B374F80133F946
:10281000F601B379F701B305D4018041B385D40142
:102820008441B305D90103A90500B385D90183A962
:102830000500B3C2820033439300B3C32301334E78
:102840003E01A1822183A183135888003374F801CB
:10285000B3F4F6013379F701B3F9F701B305440195
:102860008041B38544018441B305490103A90500B2
:10287000B385490183A90500B3C2820033439300A5
:10288000B3C32301334E3E0113944200931443001B
:102890001399430093194E003374F401B3F4F40117
:1028A0003379F901B3F9F901B305D40183C6050001
:1028B000B385D40103C70500B305D90183C705005B
:1028C000B385D90103C805001354430093D44300D2
:1028D00013594E0093D942003374F401B3F4F40158
:1028E0003379F901B3F9F901B305D40103C4050043
:1028F000B385D40183C40500B305D90103C905001C
:10290000B385D90183C905002204A2042209A209C2
:10291000A18E258FB3C727013348380113D4C300D4
:102920009354CE0013D9C2009359C3003374F401F9
:10293000B3F4F4013379F901B3F9F901B305D40122
:1029400003C40500B385D40183C40500B305D901D0
:1029500003C90500B385D90183C905004204C20437
:102960004209C209A18E258FB3C727013348380118
:1029700013544E0193D442011359430193D9430197
:102980003374F401B3F4F4013379F901B3F9F901C3
:10299000B305D40103C40500B385D40183C4050085
:1029A000B305D90103C90500B385D90183C9050061
:1029B0006204E2046209E209A18E258FB3C72701F0
:1029C000334838018322050A0323450A8323850AF5
:1029D000032EC50AB3C2D2003343E300B3C3F300EE
:1029E000334E0E0123205600232266002324760056
:1029F0002326C6011244A2443249C249524AE24A3D
:102A0000710182801300000082800000000000003D
:102A1000930260021303F00F22031303F30F130159
:102A200041FB16C21AC422C626C84ACA4ECC52CE90
:102A300056D05AD25ED462D666D86ADA6EDC72DEBE
:102A4000F6C0FAC2FEC40358050233085802835880
:102A50002502B388580203594502330959028359A4
:102A60006502B3895902035A8502330A5A02835A0E
:102A7000A502B38A5A02035BC502330B5B02835B78
:102A8000E502B38B5B02035C0503330C5C02835CE1
:102A90002503B38C5C02035D4503330D5D02835D4A
:102AA0006503B38D5D02035E8503330E5E02835EB4
:102AB000A503B38E5E02035FC503330F5F02835F1E
:102AC000E503B38F5F021356080133786800B298AC
:102AD00013D60801B3F86800329913560901337907
:102AE0006900B29913D60901B3F96900329A1356F5
:102AF0000A01337A6A00B29A13D60A01B3FA6A005D
:102B0000329B13560B01337B6B00B29B13D60B0128
:102B1000B3FB6B00329C13560C01337C6C00B29CEF
:102B200013D60C01B3FC6C00329D13560D01337D9E
:102B30006D00B29D13D60D01B3FD6D00329E13568C
:102B40000E01337E6E00B29E13D60E01B3FE6E00F0
:102B5000329F13560F01337F6F00B29F13D60F01C0
:102B6000B3FF6F00B30656023698035705003A9834
:102B7000135608013378680003572500BA98B298B5
:102B800013D60801B3F86800035745003A99329903
:102B9000135609013379690003576500BA99B29950
:102BA00013D60901B3F96900035785003A9A329A9E
:102BB00013560A01337A6A000357A500BA9AB29AEB
:102BC00013D60A01B3FA6A000357C5003A9B329B39
:102BD00013560B01337B6B000357E500BA9BB29B86
:102BE00013D60B01B3FB6B00035705013A9C329CD3
:102BF00013560C01337C6C0003572501BA9CB29C20
:102C000013D60C01B3FC6C00035745013A9D329D6D
:102C100013560D01337D6D0003576501BA9DB29DBA
:102C200013D60D01B3FD6D00035785013A9E329E08
:102C300013560E01337E6E000357A501BA9EB29E55
:102C400013D60E01B3FE6E000357C5013A9F329FA3
:102C500013560F01337F6F000357E501BA9FB29FF0
:102C600013D60F01B3FF6F0079C2B3065602369830
:102C7000135608014DCE33786800B29813D6080178
:102C80005DC6B3F868003299135609014DC2337915
:102C90006900B29913D6090159CAB3F96900329A89
:102CA00013560A0149C6337A6A00B29A13D60A014A
:102CB0003DCEB3FA6A00329B13560B012DCA337B0B
:102CC0006B00B29B13D60B013DC2B3FB6B00329C71
:102CD00013560C0129CE337C6C00B29C13D60C0128
:102CE00039C6B3FC6C00329D13560D0129C2337DE9
:102CF0006D00B29D13D60D011DCAB3FD6D00329E4D
:102D000013560E010DC6337E6E00B29E13D60E0111
:102D100019CEB3FE6E00329F13560F0109CA337FDE
:102D20006F00B29F13D60F0119C2B3FF6F0023903B
:102D30000501239115012392250123933501239445
:102D40004501239555012396650123977501239825
:102D5000850123999501239AA501239BB501239C05
:102D6000C501239DD501239EE501239FF5019242D4
:102D700022433244C2445249E249724A825A125BA7
:102D8000A25B325CC25C525DE25D725E864E164FA3
:102D9000A64F1301C104828000002A8309CA8383DD
:102DA0000500230073007D16050385056DFA8280FA
:102DB0002A8311C62300B3007D16050365FE8280B9
:102DC00039713EDA2ED232D436D63AD842DC46DEDB
:102DD00097F7FE5F938707CE22CC804326CA06CEA4
:102DE000AA8409C41C4C99E322851D2B0C44541061
:102DF0002686228536C6EF00B018F2406244D244DF
:102E000021618280011126CA4AC806CE22CC4EC654
:102E100052C4AA842E8901C51C4D91E311239C4CF8
:102E2000804499E32685ED2997D7FFFF9387476B69
:102E3000631CF402C0408357C400A18BB1C71C4877
:102E4000A1C7FD59294A1C4483450900FD17B1E972
:102E50001CC463DE07062286A94526854128FD5746
:102E60006308F502294535A097D7FFFF9387476987
:102E70006314F4008044C1B797D7FFFF938747647A
:102E8000E31BF4FAC04445BFA2852685052255D927
:102E90007D55F2406244D2444249B249224A05611A
:102EA00082801CC4050963D70700184C63CBE70078
:102EB000638945011C401387170018C02380B700A1
:102EC00059B7228626851D20E31F35F7D1B71C4050
:102ED0001387170018C029472380E70061B797F7C9
:102EE000FE5F938727BDAA85884329BF011122CCA5
:102EF00026CA4AC806CE4EC6AA842E89328401C587
:102F00001C4D91E3312997D7FFFF9387675D6319C4
:102F1000F406C0401C4C1CC48357C400A18BC9C319
:102F20001C48BDCF1C4808409379F90F1379F90F5D
:102F30001D8D5C486346F500A2852685E9242DE5B4
:102F40001C440505FD171CC41C401387170018C03E
:102F5000238037015C486389A7008357C400858BB1
:102F600081CBA9476316F900A2852685692C0DED52
:102F7000F24062444A85D2444249B24905618280A6
:102F800097D7FFFF9387C7576314F400804459B75E
:102F900097D7FFFF9387C752E31EF4F6C0449DBF47
:102FA000A285268521203DDD7D59D9B7411197F7AE
:102FB000FE5F938727B026C2844322C44AC006C658
:102FC0002A892E8489C49C4C99E32685912E97D713
:102FD000FFFF9387E750631CF402C0400317C4004F
:102FE00093170701C18393F68700B5EE93F60701A7
:102FF0009DEEA5472320F900136707042316E4007C
:103000007D55B2402244924402494101828097D7C3
:10301000FFFF9387E74E6314F4008044C1B797D74E
:10302000FFFF9387E749E31BF4FAC04445BF918B48
:103030008DC74C5889C9930744046384F5004A85B9
:10304000A923232A04028357C4002322040093F7F0
:10305000B7FD2316F4001C481CC08357C40093E737
:1030600087002316F4001C4881EF8357C400130720
:10307000002093F707286385E700A2854A85852904
:103080008357C40013F7170005C75C4823240400C6
:10309000B307F0401CCC1C480145A5F78317C400BA
:1030A00013F7070839DF93E707042316F40089BFF5
:1030B000898B014791E3584818C4F1BF83D7C500F5
:1030C000011122CC26CA06CE4AC84EC613F7870085
:1030D000AA842E8465E7D8416347E000B841634481
:1030E000E0000145C1A058546DDF03A90400939688
:1030F000370123A0040063DE060668488357C40036
:10310000918B99C75C401D8D5C5899C33C401D8DC7
:103110005C540C502A86814626858297FD570357BA
:10312000C400631DF5009440F54763E4D708B70772
:1031300040208507B3D7D700858BA5CF1C48232215
:1031400004001CC09317370163D80700FD576314B0
:10315000F5009C4091E368C84C5823A02401D1D1CC
:10316000930744046384F50026850521232A04027D
:103170008DBF0C508546014626850297FD57E31FFB
:10318000F5F69C40A5DF75476385E70059476395D1
:10319000E70023A02401B1B78357C40093E70704D5
:1031A0002316F400F2406244D2444249B249056118
:1031B0008280136707042316E400EDB783A9050195
:1031C000E38109F203A905008D8B23A035013309A2
:1031D0003941014791E3D84918C4E35420F11C5404
:1031E0000C50CA864E8626858297634AA000835774
:1031F000C4007D5593E707042316F40065B7AA9928
:103200003309A940D9BF9C49B9CF011122CC06CEC0
:103210002A8411C51C4D81E72EC61922B24597D7C5
:10322000FFFF9387E72B639BF5004C408397C50016
:1032300095C722856244F240056149B597D7FFFFE3
:103240009387072C6394F5000C44CDB797D7FFFF05
:1032500093870727E39CF5FC4C44C9BFF2406244C6
:1032600001450561828001458280411122C406C664
:103270002A842316B5002317C50023200500232226
:103280000500232405002322050623280500232A00
:103290000500232C0500214681451305C505093E7F
:1032A000970700009387277A5CD0970700009387E1
:1032B000877C1CD4971700009387C7805CD497172E
:1032C00000009387878300D01CD8B240224441017C
:1032D000828097050000938545F381AA411126C29B
:1032E000130680069384F5FFB384C4024AC02E8976
:1032F00022C406C6938544073D2E2A8419C923207B
:10330000050023222501310508C413868406814562
:1033100045342285B24022449244024941018280D0
:103320001C4DBDE3411106C622C4970700009387D8
:1033300087FA1CD597E7FE5F938707789C43232481
:10334000050423260504232805046314F500854796
:103350001CCD2A841D2848C02285052808C4228542
:103360002D2048C448400146914501370844054690
:10337000A545E53D48440946C945C53D85471CCCA2
:10338000B2402244410182808280411197E7FE5F72
:103390009387877226C284434AC006C69C4C22C4C7
:1033A0002A8999E32685AD3F938484048044DC40D8
:1033B000FD1763D607009C40B9CF8440C5BF0317F3
:1033C000C40039E7C17785072322040623200400BF
:1033D00023220400232404005CC423280400232A9D
:1033E0000400232C0400214681451305C405EFF099
:1033F0003F9C232A0402232C0402232404042326B2
:1034000004042285B2402244924402494101828050
:103410001304840671BF91454A85C93588C02A8442
:1034200049FDB1472320F900E9BF797122D44AD080
:1034300052CC56CA5AC85EC606D626D24ECE2A8A64
:10344000AE8A130485040149054BFD5B09ECB250BB
:1034500022544A8592540259F249624AD24A424B56
:10346000B24B45618280044483294400FD1963D432
:1034700009000040E1BF83D7C400637BFB00839752
:10348000E40063877701A6855285829A3369A90093
:1034900093848406E1BF1971A6DAAE848395E500B2
:1034A000A2DC86DE328463DC050083D7C40023A05F
:1034B000060093F707089DE39307004015A0300826
:1034C00036C6492DB246E34205FE7247BD67F98F05
:1034D0007977BA9793B717009CC2F9BF9307000496
:1034E0001CC0F6506654D65401450961828083D7CA
:1034F000C500011122CC06CE26CA4AC8898B2E846B
:1035000089CF930774041CC01CC885475CC8F2406F
:103510006244D24442490561828074003000AA842A
:103520009D3FA2452A892685392201ED8317C400D3
:1035300013F7072069FFF19B93E727002316F40098
:10354000C9B797070000938707D99CD48357C40055
:1035500008C008C893E707082316F400A2475CC810
:10356000B24789CF8315E4002685192D01C98357F9
:10357000C400F19B93E717002316F4008357C4009F
:103580003369F9002316240159B7CDC583A7C5FFB8
:10359000411122C406C626C21384C5FF63D30700A7
:1035A0003E94AA84B92597E7FE5F938727569C43EC
:1035B00089EF2322040097E7FE5F23A98754224462
:1035C000B24026859244410135A5637EF400144043
:1035D0003307D4006396E7009843DC43369718C05E
:1035E0005CC0D1BFBA87D84319C3E37DE4FE9443DE
:1035F0003386D700631F86001040B29694C333868B
:10360000D700E31EC7FA10435843B29694C3D8C3F9
:103610007DB76375C400B1479CC055B71040B30671
:10362000C4006316D70014435843B29614C058C060
:10363000C0C371B78280011126CA93843500F19806
:1036400006CE22CC4AC84EC6A104B14763F7F404A3
:10365000B14463E6B4042A89692B97E7FE5F938738
:10366000E74A98433A8431E497E7FE5F9387474AF5
:103670009C4381EB81454A85452697E7FE5F23A958
:10368000A748A6854A85492EFD5963193507B147D4
:103690002320F9004A85B92B29A0E3DC04FAB147BD
:1036A0001CC10145F2406244D2444249B24905611D
:1036B00082801C40858F63C00704AD4663F6F60028
:1036C0001CC03E9404C001A85C406314870217E745
:1036D000FE5F232DF7424A85312B1305B400930773
:1036E000440061993307F54055DF3A94898F1CC037
:1036F00055BF5CC3CDB722874040B5B71304350032
:103700007198E30185FCB305A4404A853126E31B8B
:1037100035FBB5BF1C46FD171CC663DA0700184E03
:1037200063C5E700A9476394F5006FF02FFC1C42C6
:103730002E851387170018C22380B70082800111DD
:1037400022CC26CA4AC84EC652C406CE2A89AE89A1
:103750003284B304D6007D5A63149400014509A84D
:10376000834504004E864A8575370504E31645FFF8
:10377000F2406244D2444249B249224A0561828001
:10378000357122CD26CB4AC94EC706CF52C556C386
:103790005AC1DEDEE2DCE6DAAA89AE8432893684FA
:1037A00001C51C4D91E3AD3E97D7FFFF938747D3EB
:1037B000639BF40C83A4490083D7C400A18BF5C795
:1037C0009C48E5C793070002A304F1029307000396
:1037D00002D22305F10222C6930B500297DAFFFFB3
:1037E000938A0AD4054C294B4A848347040099C321
:1037F0006390770FB30C2441638D0C00E6864A86F4
:10380000A6854E852D3FFD576306F51E9256E6961A
:1038100036D283470400638F071CFD571309140039
:1038200002C802CE3ECA02CCA309010482D4834559
:103830000900154656854D2613041900C24759E95B
:1038400013F7070109C713070002A309E10413F7DF
:10385000870009C71307B002A309E10483460900E2
:103860001307A0026380E608F2474A848146254692
:103870000347040093051400130707FD6379E60A64
:10388000B5CA3ECE85A897D7FFFF938767C76395D4
:10389000F40083A489000DB797D7FFFF938747C231
:1038A000E39CF4F083A4C90001BFA6854E85EFF028
:1038B000EFEF09D97D55FA406A44DA444A49BA49DA
:1038C0002A4A9A4A0A4BF65B665CD65C0D61828096
:1038D000050421BF330555413315AC00C98F3EC8DF
:1038E0002289B1B7324793064700184336C6634969
:1038F00007023ACE034704009307E002631FF70470
:10390000034714009307A002631BF702B2470904A0
:10391000138747009C433AC663C107023ECA35A8D5
:103920003307E04093E727003ACE3EC8E1B7B387BC
:10393000670385462E84BA9725BFFD57C5B7050492
:1039400002CA8146814725460347040093051400B7
:10395000130707FD6376E606F1F2834504000D4682
:1039600017D5FFFF130545BC852C11CD97D7FFFF59
:10397000938787BB1D8D93070004B397A70042452B
:1039800005045D8D2AC883450400194617D5FFFF3D
:103990001305C5B9130914002304B102352C3DC128
:1039A00097C7FEDF9387076695E74247B2471377CD
:1039B000071009CF91073EC69257D2973ED22DB538
:1039C000B387670385462E84BA97BDBF9D07E19BE9
:1039D000A107D5B7780097060000938686D626867D
:1039E0000C084E8597000000E7000000FD572A8A6A
:1039F000E314F5FC83D7C40093F70704E39C07EABC
:103A0000125555BD780097060000938686D326860A
:103A10000C084E85FD24D9BF411122C42A842E856D
:103A200023AE019006C6EF50A064FD576317F50062
:103A30009387C1919C4391C31CC0B2402244410171
:103A40008280411122C42E848395E50006C6992BFD
:103A5000634905007C48AA977CC8B24022444101D2
:103A600082808357C4007D777D17F98F2316F40079
:103A7000EDB783D7C500011122CC26CA4AC84EC66D
:103A800006CE93F70710AA842E843289B68991C78F
:103A90008395E50089460146092A8357C4007D774E
:103AA0007D17F98F2316F4008315E4006244F24079
:103AB000CE864A86B24942492685D24405613DA850
:103AC000411122C42E848395E50006C6F928FD57CE
:103AD0000357C400631BF500FD77FD17F98F23160C
:103AE000F400B2402244410182808567D98F2316B9
:103AF000F40068C8FDB78395E50005A8411122C40C
:103B00002A842E85B285368623AE019006C6EF50F4
:103B1000C05BFD576317F5009387C1919C4391C328
:103B20001CC0B240224441018280411122C42A8437
:103B30002E8523AE019006C6EF50C047FD57631790
:103B4000F5009387C1919C4391C31CC0B2402244AD
:103B500041018280411122C42A842E85B28523AE80
:103B6000019006C6EF502047FD576317F500938775
:103B7000C1919C4391C31CC0B24022444101828048
:103B8000411122C42A842E8523AE019006C6EF502F
:103B9000E046FD576317F5009387C1919C4391C39D
:103BA0001CC0B240224441018280411122C42A84B7
:103BB0002E85B285368623AE019006C6EF500046AC
:103BC000FD576317F5009387C1919C4391C31CC0B7
:103BD000B24022444101828093F5F50F2A96631486
:103BE000C5000145828083470500E38DB7FE0505CA
:103BF000FDB782808280797156CA9C49BA8A9845FD
:103C000022D426D24ECE52CC06D64AD05AC85EC650
:103C1000AA892E84B284368A63D3E700BA879CC00F
:103C20000347340419C385079CC01C4093F707025F
:103C300081C79C4089079CC003290400137969004F
:103C4000631A0900130B9401FD5B5C449840998F43
:103C5000634CF9041C408346340493F70702B336DF
:103C6000D000A5EB13063404D2854E85829AFD5709
:103C70006303F5041C4011469840998B54448144D9
:103C80006397C700B384E64063D3040081441C44B7
:103C900018486354F700998FBE94014969047D5B0D
:103CA00063982405014509A885465A86D2854E8524
:103CB000829A631E75017D55B25022549254025966
:103CC000F249624AD24A424BB24B456182800509B1
:103CD000ADBF3307D40013060003A301C704034795
:103CE000540493871600A2978906A381E7049DBF19
:103CF00085462286D2854E85829AE30E65FB0509AC
:103D000045B7797122D426D24AD04ECE06D652CCAF
:103D100056CA5AC8B68983C685019307E006328918
:103D2000AA842E84138635046380F61E63E2D706C8
:103D3000930730066382F60A63EDD700638A061E96
:103D4000930780056386F616930A24042301D4049E
:103D500069A8930740066386F60093079006E395EB
:103D6000F6FE1C40084393F6070893054500C1C2C0
:103D70001C410CC363D807001307D002B307F040FF
:103D8000A301E40497C6FFFF9386C67A294765A07E
:103D9000930730076382F61A63EFD7009307F006A4
:103DA000638FF60493070007E390F6FA9C4193E7CC
:103DB00007029CC109A8930750076382F604930782
:103DC0008007E393F6F893078007A302F40497C6ED
:103DD000FFFF93866677DDA01C43938A25049386B4
:103DE00047009C4314C32381F5048547ADA293F695
:103DF00007041C410CC3BDDEC207C187A5BF0C4030
:103E00001C4313F80508138547006305080008C321
:103E10009C4339A093F5050408C3FDD983D7070057
:103E20001307F006638AE60C97C6FFFF9386867039
:103E30002947A30104044C400CC463C50500084095
:103E40006D9908C099E3B28A91CDB28AB3F5E702C1
:103E5000FD1AB69583C505002380BA00B3D5E702E5
:103E600063F2E70AA147631EF7001C40858B91CBE4
:103E700058401C4863C7E70093070003A38FFAFE6E
:103E8000FD1A3306564110C84E87CA867000A285B7
:103E9000268595337D5A6314450D7D55B2502254C5
:103EA00092540259F249624AD24A424B4561828099
:103EB000A382D50497C6FFFF9386C6670C400843CC
:103EC00013F805081C4111056300080208C313F725
:103ED000150001C793E505020CC04147B9FB0C4032
:103EE00093F5F5FD0CC0B1B713F8050408C3E30062
:103EF00008FEC207C183E1BF97C6FFFF93868663B2
:103F0000214705BFAE8799B794411C43CC4913F8AC
:103F10000608138547006306080008C39C438CC34A
:103F200001A808C393F606049C43F5DA2390B70072
:103F300023280400B28A89BF1C43D041814593865F
:103F4000470014C383AA07005685793101C533059C
:103F5000554148C05C401CC8A301040435B714484F
:103F60005686CA8526858299E30945F31C40898BCC
:103F70008DE7B2474844E353F5F23E8505B78546E1
:103F80005686CA8526858299E30965F1050A5C444F
:103F90003247998FE345FAFEE9BF014A930A94013B
:103FA0007D5BF5B7411122C42A842E85B285368601
:103FB00023AE019006C6EF500009FD576317F500C8
:103FC0009387C1919C4391C31CC0B24022444101DC
:103FD0008280AE87328836872A836396062097C808
:103FE000FFFF9388A85763FEC50A41676374E60A1A
:103FF0001307F00F3337C7000E07B356E600B69825
:1040000083C60800369793060002998E99CAB39723
:10401000D7003357E5003318D600B365F7003313E4
:10402000D5001355080133F7A50213160801418284
:1040300093560301B3D5A5024207D98EB307B60242
:104040002E8763FCF600C2961387F5FF63E706012F
:1040500063F5F6001387E5FFC2969D8EB3F7A602BF
:10406000420313530301B3D6A602C20733E367002A
:10407000B305D6023685637BB30042931385F6FF02
:10408000636603016374B3001385E6FF4207498F3B
:1040900081454DA8B70600014147E360D6F6614768
:1040A000A9BF01E6854633D8C602C166637ED8083B
:1040B0009306F00F63F306012147B356E800B69864
:1040C00083C60800BA9613070002158F49E7B38725
:1040D00007418545135608019318080193D8080134
:1040E0009356030133F7C702B3D7C7024207D98EED
:1040F0003385F8023E8763FCA600C2961387F7FF5C
:1041000063E7060163F5A6001387E7FFC296898E71
:10411000B3F7C602420313530301B3D6C602C20764
:1041200033E36700B388D8023685637B130142937B
:104130001385F6FF63660301637413011385E6FFBD
:104140004207498F3A858280B70600014147E366FE
:10415000D8F661479DB73318E800B3D5D7003313BD
:10416000E500B356D50013550801B397E70033F7C0
:10417000A502B3E8F60093170801C18313D608011E
:10418000B3D5A5024207518FB386B7022E86637C52
:10419000D70042971386F5FF636707016375D70061
:1041A0001386E5FF4297B306D74033F7A602C2084D
:1041B00093D80801B3D6A6024207B385D702B367E6
:1041C0001701368763FCB700C2971387F6FF63E7D2
:1041D000070163F5B7001387E6FFC2978D8F93152C
:1041E0000601D98DC5BD63E2D514416763FEE602C1
:1041F0001308F00F3337D8000E0733D8E60097C501
:10420000FFFF9385A535C29503C8050093050002FD
:104210003A98B385054185E10547E3E5F6F2333584
:10422000C5001347150039BFB70500014147E3E654
:10423000B6FC6147D9B733570601B396B600D98E9D
:1042400093DE060133D70701B378D703B397B700DE
:10425000335805013363F80093970601C18313585F
:1042600003013316B6003357D703C20833E80801F9
:10427000338FE7023A8E637CE8013698130EF7FF1E
:104280006367D8006375E801130EE7FF36983308BB
:10429000E841B378D8033358D803C208B38E070374
:1042A00093170301C183B3E7F800428763FCD7018A
:1042B000B6971307F8FF63E7D70063F5D701130735
:1042C000E8FFB697420EB387D741C16E3367EE0061
:1042D0001388FEFF337307019358070133780601F3
:1042E0004182330E03033388080393560E013303D0
:1042F000C30242939A96B388C80263F30601F69804
:1043000013D60601B29863E01703E39317D9C16788
:10431000FD17FD8EC206337EFE003315B500F29602
:104320008145E371D5E27D17A5B38145014719BDEC
:10433000011106CE22CC00102326A4FE8327C4FE42
:104340009C43DC570325C4FE8297AA873E85F24032
:10435000624405618280011122CE00102326A4FE52
:104360008327C4FE99EBB72700800327C4FE0A0702
:10437000938787ABBA979C4311A081473E857244CF
:1043800005618280011122CE0010F32740F123261F
:10439000F4FE8327C4FE3E857244056182807571F8
:1043A00006C722C50009232EA4F6232CB4F68327C2
:1043B000C4F781C7832784F799E38147BDA093079A
:1043C00044F88325C4F73E85EF40B068930744F86E
:1043D000832584F73E85EF405064232604FE81A0A8
:1043E000B7170080138707068327C4FE8A07BA978A
:1043F0009C432324F4FE832784FE9C439843930725
:1044000044F8BE85032584FE0297AA8781C78327C7
:1044100084FE21A88327C4FE85072326F4FE0327F4
:10442000C4FE8947E3DEE7FA81473E85BA402A4465
:1044300049618280011122CE00102326A4FE0327A9
:10444000C4FEB72700809387C7AB6315F700B70793
:10445000000211A081473E857244056182800111EE
:1044600022CE00102326A4FE0327C4FEB727008017
:104470009387C7AB6314F700894711A081473E8536
:10448000724405618280011122CE00102326A4FE11
:104490002324B4FE832784FE91E7B7170080938717
:1044A000070A21A8032784FE85476317F700B7177B
:1044B00000809387070A11A081473E8572440561F9
:1044C0008280011122CE00102326A4FE2324B4FEF4
:1044D000832784FE99E38D4709A8032784FE854737
:1044E0006314F7009D4711A081473E857244056122
:1044F00082805D7186C6A2C4CAC2CEC052DE56DCBE
:104500005ADA5ED862D666D48008232EA4FA8327AE
:10451000C4FB3E8505372326A4FC0327C4FCB167F2
:10452000F117BA979C432324F4FC0327C4FCB1671A
:10453000E117BA979C432322F4FC0327C4FCB1671C
:10454000F117BA979C43032784FCE318F7FC8327F1
:1045500084FC3E8C814C93190C000149832744FC58
:104560003E8A814A336B4901B3EB5901DA875E8891
:104570003E85C285B640264416498649725AE25A9B
:10458000525BC25B325CA25C61618280797106D64B
:1045900022D44AD24ED00018232EA4FC232CB4FCE3
:1045A0002328C4FC232AD4FC8327C4FD2326F4FE3D
:1045B0008327C4FE3E85BD3D2324A4FE832784FDBE
:1045C0008E073E87832784FE3E9791679107BA97AF
:1045D0003E87FD571CC3832784FD8E073E878327B4
:1045E00084FE3E979167BA973E87832704FD1CC3DC
:1045F000832744FD13D907008149832784FD8E0753
:104600003E87832784FE3E9791679107BA974A8732
:1046100098C381473E85B250225412598259456150
:104620008280011106CE22CC0010232604FEF3273F
:1046300040F12326F4FE8327C4FE3E85293B232434
:10464000A4FE032584FEED31AA873E85F240624434
:1046500005618280397106DE22DC80002326A4FCFD
:104660000325C4FCED3B2324A4FE8327C4FC2322A2
:10467000F4FE832744FEDC43A9EF232604FE81A039
:104680008325C4FE0325C4FCFD3B2320A4FE832513
:10469000C4FE0325C4FC3535232EA4FC832704FE69
:1046A0009C43DC4F8326C4FC01468325C4FD0325BF
:1046B00004FE82978327C4FE85072326F4FE032782
:1046C000C4FE832784FEE34DF7FA832744FE0547A3
:1046D000D8C30100F250625421618280397106DE34
:1046E00022DC80002326A4FC2324B4FC2322C4FC67
:1046F0002320D4FCFD572326F4FEEF100046232090
:10470000A4FE232404FE313F232EA4FC0325C4FC75
:10471000B933232CA4FC032704FE85476308F70064
:10472000832704FE81C78327C4FE49A0232204FEF9
:1047300091A0832544FE0325C4FC6133232AA4FCF5
:10474000832544FE0325C4FC3D3B2324A4FE03270C
:10475000C4FD832784FE6318F700032784FC8327A6
:1047600044FD6300F702232404FE832744FE8507EB
:104770002322F4FE032744FE832784FDE34BF7FA4C
:1047800011A00100832784FE85C3832784FE9C43F8
:10479000DC4F832604FC032644FC832584FC03258C
:1047A00084FE82972326A4FE8327C4FE3E85F25012
:1047B000625421618280797122D60018232EA4FCD4
:1047C000232CB4FC232AC4FC2328D4FCFD57232625
:1047D000F4FE8327C4FE3E85325445618280011178
:1047E00006CE22CC00102326A4FEEF100037AA87A5
:1047F0003E85F240624405618280797106D622D4FA
:104800000018232EA4FC232CB4FCFD572326F4FE11
:10481000093D2324A4FE832784FE95C3032784FD3A
:10482000854763E0E702832784FE9C43DC438325BE
:1048300084FD032584FE82972326A4FE21A0010087
:1048400011A001008327C4FE3E85B2502254456169
:104850008280397106DE22DC80002326A4FC23241A
:10486000B4FCFD572326F4FE832784FCC9C7232408
:1048700004FE453B2320A4FE0325C4FCCD36232E95
:10488000A4FC232204FE91A0832544FE0325C4FC3E
:104890000D39232CA4FC832544FE0325C4FCE536F6
:1048A0002324A4FE032704FE832784FE6318F70055
:1048B000032784FC832784FD6300F702232404FE7E
:1048C000832744FE85072322F4FE032744FE832723
:1048D000C4FDE34BF7FA11A00100832784FE81CFCA
:1048E000832784FE9C43DC53832584FC032584FEBC
:1048F00082972326A4FE8327C4FE3E85F25062548D
:1049000021618280397106DE22DC80002326A4FC2E
:104910002324B4FCFD572326F4FE832784FCC9C757
:10492000232404FEFD392320A4FE0325C4FC053EF8
:10493000232EA4FC232204FE91A0832544FE0325FC
:10494000C4FC4136232CA4FC832544FE0325C4FC6F
:104950001D3E2324A4FE032704FE832784FE631840
:10496000F700032784FC832784FD6300F7022324D8
:1049700004FE832744FE85072322F4FE032744FE1A
:104980008327C4FDE34BF7FA11A00100832784FEBF
:1049900081CF832784FE9C439C57832584FC032579
:1049A00084FE82972326A4FE8327C4FE3E85F25010
:1049B000625421618280797106D622D40018232E98
:1049C000A4FC232CB4FC232AC4FCFD572326F4FEAC
:1049D0008327C4FD2324F4FE0325C4FDEFF09FA527
:1049E0002322A4FE032784FD89476309F7040327D4
:1049F00084FD894763C8E700032784FD8547630E6C
:104A0000F700F1A8032784FD8D47630DF704032702
:104A100084FD91476309F708D9A0832744FDCDCBD6
:104A2000032584FEEFF0FFACAA872E88032744FD00
:104A30001CC323220701232604FE59A8832744FD13
:104A4000D1CB832744FD9C432320F4FE832704FE1F
:104A50008A073E87832744FEBA9723A007002326B0
:104A600004FE8DA8832744FDA5CB832744FD9C43EA
:104A70002320F4FE832704FE8A073E87832744FE13
:104A8000BA973E8785471CC30F008004832704FE26
:104A90008A073E87832744FEBA979C432326F4FE69
:104AA000232604FE15A8232604FE832744FD9DC764
:104AB000832744FD9C432320F4FE832704FE8A07BA
:104AC0003E87832744FEBA979C432326F4FE39A0F1
:104AD000010031A0010021A0010011A001008327E5
:104AE000C4FE3E85B250225445618280797106D65B
:104AF00022D40018232EA4FC232CB4FCEFF09F88B2
:104B0000AA872326F4FE9307C4FE3E868945032523
:104B1000C4FD5535AA873E85B25022544561828036
:104B2000797106D622D40018232EA4FC232CB4FCC1
:104B3000EFF05F85AA872326F4FE9307C4FE3E8626
:104B40008D450325C4FD853DAA873E85B25022547C
:104B500045618280011122CE00102326A4FE032786
:104B6000C4FE938741816314F700814711A0FD576C
:104B70003E85724405618280011122CE00102326F9
:104B8000A4FE0327C4FE938741816317F700B7276C
:104B9000F4009387074011A081473E857244056168
:104BA0008280011122CE00102326A4FE0327C4FE1A
:104BB000938741816317F700B71700809387070A2F
:104BC00011A081473E85724405618280011122CE89
:104BD00000102326A4FE0327C4FE9387418163149B
:104BE000F700814711A081473E85724405618280AC
:104BF000011122CE00102326A4FE8327C4FE634C9D
:104C0000F000B72700800327C4FE0A07938787AB0D
:104C1000BA979C4311A081473E857244056182800A
:104C2000011122CE0010F32740F12326F4FE832742
:104C3000C4FE3E85724405618280011122CE0010BF
:104C4000A147F3A707302326F4FE01007244056153
:104C50008280011122CE0010A147F3B7073023262E
:104C6000F4FE0100724405618280011122CE001021
:104C7000A147F3A747302326F4FE010072440561E3
:104C80008280011122CE0010A147F3B747302326BE
:104C9000F4FE0100724405618280011122CE0010F1
:104CA00093070008F3A747302326F4FE010072445F
:104CB00005618280011122CE001093070008F3B72E
:104CC00047302326F4FE0100724405618280011101
:104CD00022CE0010856793870780F3A747302326ED
:104CE000F4FE0100724405618280011122CE0010A1
:104CF000856793870780F3B747302326F4FE0100CA
:104D0000724405618280797122D60018232EA4FC9A
:104D10008327C4FD0547B317F7002326F4FE832736
:104D2000C4FEF3A747302324F4FE0100325445614A
:104D30008280797122D60018232EA4FC8327C4FD1B
:104D40000547B317F7002326F4FE8327C4FEF3B705
:104D500047302324F4FE0100325445618280011162
:104D600006CE22CC00102326A4FE2324B4FE130575
:104D70004006EF40E002011106CE22CC00102326AF
:104D8000A4FE2324B4FE1305800CEF4060015D7186
:104D900086C696C49AC29EC022DE2ADC2EDA32D89B
:104DA00036D63AD43ED242D046CE72CC76CA7AC8F3
:104DB0007EC680081305C012EF30907E1D7186CE2E
:104DC00096CC9ACA9EC8A2C6AAC4AEC2B2C036DEEB
:104DD0003ADC3EDA42D846D672D476D27AD07ECE4B
:104DE00080103D3D2A87B72700800A07938787AB4D
:104DF000BA979C432326F4FA8327C4FA85C7032570
:104E0000C4FA45332324A4FA832784FA83A7070E20
:104E10002322F4FA832784FA83A7870D832544FA93
:104E20000D4582970100F640E6425643C64336449C
:104E3000264596450646F2566257D2574258B25812
:104E4000225E925E025FF24F25617300203079711D
:104E500006D622D40018232EA4FC232CB4FCC9337C
:104E60002A87B72700800A07938787ABBA979C43A6
:104E70002326F4FEF32720342324F4FE8327C4FEE4
:104E800095C70325C4FE313B2322A4FE832784FE5D
:104E900093F7F73F032744FE9387870E8A07BA9755
:104EA0009C438325C4FD0325C4FE82970100B250B4
:104EB0002254456182801D7186CE96CC9ACA9EC8C6
:104EC000A2C6AAC4AEC2B2C036DE3ADC3EDA42D8CE
:104ED00046D672D476D27AD07ECE801091332A878D
:104EE000B72700800A07938787ABBA979C4323268E
:104EF000F4FA8327C4FA85C70325C4FA5D31232455
:104F0000A4FA832784FA83A707142322F4FA8327B9
:104F100084FA83A78713832544FA1D4582970100ED
:104F2000F640E6425643C643364426459645064675
:104F3000F2566257D2574258B258225E925E025FD2
:104F4000F24F256173002030011122CE001023267C
:104F5000A4FE2324B4FE01007244056182807971AD
:104F600006D622D40018232EA4FC232CB4FC4D39E1
:104F7000AA873E85B5392326A4FE0325C4FEEF107B
:104F800060282320A4FE2322B4FE832704FE0328E6
:104F900044FEA9450146B386B70036853335F50092
:104FA0003307C800B307E5003E87B6873A88BE8559
:104FB00042860325C4FEEF10402B0100B25022545C
:104FC0004561828000000000000000000000000039
:104FD00000000000000000000000000000000000D1
:104FE00000000000000000000000000000000000C1
:104FF00000000000000000000000000000000000B1
:10500000197186DE96DC9ADA9ED8A2D6AAD4AED2E0
:10501000B2D0B6CEBACCBECAC2C8C6C6F2C4F6C2F8
:10502000FAC07EDE0001EFF0BFBF2A87B7270080FD
:105030000A07938787ABBA979C432326F4FAF32792
:1050400020342324F4FAF32710342322F4FAF3272C
:1050500030342320F4FAF3275030232EF4F883273A
:10506000C4FAFDCB0325C4FAEFF0BFB3232CA4F898
:10507000832784FA93F7F73F232AF4F8832784FAE7
:1050800063DE070A032744F9930700086312F70257
:10509000832784F983A787392328F4F8832784F9A1
:1050A00083A70739832504F9032544F982976DA066
:1050B000032744F9AD4763D7E7008327C4F993F783
:1050C000F7039DEF832684F9032744F9BA878607FF
:1050D000BA978E07B69783A787092328F4F8832603
:1050E00084F9032744F9BA878607BA978E07B697DB
:1050F00083A70709832504F9032544F98297A9A802
:105100008327C4F913F7F70389476317F704F327D5
:1051100070302326F4F8832784F983A7C70D23284A
:10512000F4F88327C4F89C432324F4F8832784F8F5
:10513000832504F9032544F9829739A8032784F9C4
:10514000832744F99387870E8A07BA979C43832560
:1051500044F90325C4FA8297F650E6525653C653D3
:105160003654265596550656F6466647D64746485F
:10517000B648264E964E064FF25F09617300203006
:10518000000000000000000000000000000000001F
:10519000000000000000000000000000000000000F
:1051A00000000000000000000000000000000000FF
:1051B00000000000000000000000000000000000EF
:1051C00000000000000000000000000000000000DF
:1051D00000000000000000000000000000000000CF
:1051E00000000000000000000000000000000000BF
:1051F000000000000000000000001D7186CE96CC6B
:105200009ACA9EC8A2C6AAC4AEC2B2C036DE3ADCF2
:105210003EDA42D846D672D476D27AD07ECE80108C
:10522000EFF01FA02A87B72700800A07938787AB74
:10523000BA979C432326F4FA8327C4FA8DC7032523
:10524000C4FAEFF01F962324A4FA832784FA83A7D5
:1052500087212322F4FA832784FA83A70721832551
:1052600044FA414582970100F640E6425643C64360
:105270003644264596450646F2566257D25742585E
:10528000B258225E925E025FF24F256173002030B9
:105290001D7186CE96CC9ACA9EC8A2C6AAC4AEC2BA
:1052A000B2C036DE3ADC3EDA42D846D672D476D286
:1052B0007AD07ECE8010EFF0BF962A87B727008085
:1052C0000A07938787ABBA979C432326F4FA832770
:1052D000C4FA8DC70325C4FAEFF0BF8C2324A4FAC7
:1052E000832784FA83A707232322F4FA832784FAE7
:1052F00083A78722832544FA454582970100F6401B
:10530000E6425643C6433644264596450646F2567F
:105310006257D2574258B258225E925E025FF24FF5
:105320002561730020301D7186CE96CC9ACA9EC826
:10533000A2C6AAC4AEC2B2C036DE3ADC3EDA42D859
:1053400046D672D476D27AD07ECE8010EFF05F8DC2
:105350002A87B72700800A07938787ABBA979C43B1
:105360002326F4FA8327C4FA8DC70325C4FAEFF085
:105370005F832324A4FA832784FA83A78724232224
:10538000F4FA832784FA83A70724832544FA49453E
:1053900082970100F640E6425643C643364426450E
:1053A00096450646F2566257D2574258B258225E88
:1053B000925E025FF24F2561730020301D7186CE30
:1053C00096CC9ACA9EC8A2C6AAC4AEC2B2C036DEE5
:1053D0003ADC3EDA42D846D672D476D27AD07ECE45
:1053E0008010EFF0FF832A87B72700800A07938792
:1053F00087ABBA979C432326F4FA8327C4FA8DC758
:105400000325C4FAEFF0EFF92324A4FA832784FAE2
:1054100083A707262322F4FA832784FA83A7872504
:10542000832544FA4D4582970100F640E6425643F3
:10543000C6433644264596450646F2566257D2572D
:105440004258B258225E925E025FF24F25617300AD
:1054500020301D7186CE96CC9ACA9EC8A2C6AAC418
:10546000AEC2B2C036DE3ADC3EDA42D846D672D49C
:1054700076D27AD07ECE8010EFF08FFA2A87B727C7
:1054800000800A07938787ABBA979C432326F4FAD8
:105490008327C4FA8DC70325C4FAEFF08FF02324C5
:1054A000A4FA832784FA83A787272322F4FA832781
:1054B00084FA83A70727832544FA51458297010080
:1054C000F640E6425643C6433644264596450646D0
:1054D000F2566257D2574258B258225E925E025F2D
:1054E000F24F2561730020301D7186CE96CC9ACA8A
:1054F0009EC8A2C6AAC4AEC2B2C036DE3ADC3EDA4C
:1055000042D846D672D476D27AD07ECE8010EFF0D2
:105510002FF12A87B72700800A07938787ABBA97AE
:105520009C432326F4FA8327C4FA8DC70325C4FAC3
:10553000EFF02FE72324A4FA832784FA83A707290F
:105540002322F4FA832784FA83A78728832544FA41
:10555000554582970100F640E6425643C64336441D
:10556000264596450646F2566257D2574258B258DB
:10557000225E925E025FF24F2561730020301D7142
:1055800086CE96CC9ACA9EC8A2C6AAC4AEC2B2C0E3
:1055900036DE3ADC3EDA42D846D672D476D27AD0BB
:1055A0007ECE8010EFF0CFE72A87B72700800A076A
:1055B000938787ABBA979C432326F4FA8327C4FAD0
:1055C0008DC70325C4FAEFF0CFDD2324A4FA832787
:1055D00084FA83A7872A2322F4FA832784FA83A7ED
:1055E000072A832544FA594582970100F640E6428E
:1055F0005643C6433644264596450646F2566257FC
:10560000D2574258B258225E925E025FF24F256135
:10561000730020301D7186CE96CC9ACA9EC8A2C651
:10562000AAC4AEC2B2C036DE3ADC3EDA42D846D6B2
:1056300072D476D27AD07ECE8010EFF06FDE2A87D9
:10564000B72700800A07938787ABBA979C43232626
:10565000F4FA8327C4FA8DC70325C4FAEFF06FD498
:105660002324A4FA832784FA83A7072C2322F4FA9D
:10567000832784FA83A7872B832544FA5D45829785
:105680000100F640E6425643C64336442645964559
:105690000646F2566257D2574258B258225E925E80
:1056A000025FF24F2561730020301D7186CE96CCCB
:1056B0009ACA9EC8A2C6AAC4AEC2B2C036DE3ADC3E
:1056C0003EDA42D846D672D476D27AD07ECE8010D8
:1056D000EFF00FD52A87B72700800A07938787AB9B
:1056E000BA979C432326F4FA8327C4FA8DC703256F
:1056F000C4FAEFF00FCB2324A4FA832784FA83A7FC
:10570000872D2322F4FA832784FA83A7072D832584
:1057100044FA614582970100F640E6425643C6438B
:105720003644264596450646F2566257D2574258A9
:10573000B258225E925E025FF24F25617300203004
:105740001D7186CE96CC9ACA9EC8A2C6AAC4AEC205
:10575000B2C036DE3ADC3EDA42D846D672D476D2D1
:105760007AD07ECE8010EFF0AFCB2A87B7270080AB
:105770000A07938787ABBA979C432326F4FA8327BB
:10578000C4FA8DC70325C4FAEFF0AFC12324A4FAED
:10579000832784FA83A7072F2322F4FA832784FA26
:1057A00083A7872E832544FA654582970100F6403A
:1057B000E6425643C6433644264596450646F256CB
:1057C0006257D2574258B258225E925E025FF24F41
:1057D0002561730020301D7186CE96CC9ACA9EC872
:1057E000A2C6AAC4AEC2B2C036DE3ADC3EDA42D8A5
:1057F00046D672D476D27AD07ECE8010EFF04FC2E9
:105800002A87B72700800A07938787ABBA979C43FC
:105810002326F4FA8327C4FA8DC70325C4FAEFF0D0
:105820004FB82324A4FA832784FA83A7873023223E
:10583000F4FA832784FA83A70730832544FA69455D
:1058400082970100F640E6425643C6433644264559
:1058500096450646F2566257D2574258B258225ED3
:10586000925E025FF24F2561730020301D7186CE7B
:1058700096CC9ACA9EC8A2C6AAC4AEC2B2C036DE30
:105880003ADC3EDA42D846D672D476D27AD07ECE90
:105890008010EFF0EFB82A87B72700800A079387B8
:1058A00087ABBA979C432326F4FA8327C4FA8DC7A3
:1058B0000325C4FAEFF0EFAE2324A4FA832784FA79
:1058C00083A707322322F4FA832784FA83A7873138
:1058D000832544FA6D4582970100F640E64256431F
:1058E000C6433644264596450646F2566257D25779
:1058F0004258B258225E925E025FF24F25617300F9
:1059000020301D7186CE96CC9ACA9EC8A2C6AAC463
:10591000AEC2B2C036DE3ADC3EDA42D846D672D4E7
:1059200076D27AD07ECE8010EFF08FAF2A87B7275D
:1059300000800A07938787ABBA979C432326F4FA23
:105940008327C4FA8DC70325C4FAEFF08FA523245B
:10595000A4FA832784FA83A787332322F4FA8327C0
:1059600084FA83A70733832544FA7145829701009F
:10597000F640E6425643C64336442645964506461B
:10598000F2566257D2574258B258225E925E025F78
:10599000F24F2561730020301D7186CE96CC9ACAD5
:1059A0009EC8A2C6AAC4AEC2B2C036DE3ADC3EDA97
:1059B00042D846D672D476D27AD07ECE8010EFF01E
:1059C0002FA62A87B72700800A07938787ABBA9745
:1059D0009C432326F4FA8327C4FA8DC70325C4FA0F
:1059E000EFF02F9C2324A4FA832784FA83A707359A
:1059F0002322F4FA832784FA83A78734832544FA81
:105A0000754582970100F640E6425643C643364448
:105A1000264596450646F2566257D2574258B25826
:105A2000225E925E025FF24F2561730020301D718D
:105A300086CE96CC9ACA9EC8A2C6AAC4AEC2B2C02E
:105A400036DE3ADC3EDA42D846D672D476D27AD006
:105A50007ECE8010EFF0CF9C2A87B72700800A0700
:105A6000938787ABBA979C432326F4FA8327C4FA1B
:105A70008DC70325C4FAEFF0CF922324A4FA83271D
:105A800084FA83A787362322F4FA832784FA83A72C
:105A90000736832544FA794582970100F640E642AD
:105AA0005643C6433644264596450646F256625747
:105AB000D2574258B258225E925E025FF24F256181
:105AC000730020301D7186CE96CC9ACA9EC8A2C69D
:105AD000AAC4AEC2B2C036DE3ADC3EDA42D846D6FE
:105AE00072D476D27AD07ECE8010EFF06F932A8770
