:020000042001D9
:100000009721FF5F9381812A9702000093828201EA
:100010007390523093021000638402007350107C7E
:100020009702000093828215739052301701FFDF10
:10003000130141FD63140100138181D2732540F146
:10004000814213030040137101FF6385A2001A91DE
:100050008502D5BF970000009380A0046383000051
:100060008290732540F181450146392A9700FFDFD0
:10007000938040F96383000082909702000093828E
:10008000C2007390523003230000F5BF000000004F
:100090008280232003001103E34D73FE82800684D7
:1000A0009702FFDF938202F66385020C9702FFDF5F
:1000B000938242F5F32740F1A14673B00630639670
:1000C000570A1703FFE71303E3F39723FFE793832D
:1000D00063F3630E7300753F1703FFDF130383F2AF
:1000E0009703FFDF938303F2630373005D37170306
:1000F000FF5F130323F19743FF5F9383A3F0630331
:100100007300413F1703FFDF1303C3EF9703FFDFC4
:10011000938343EF63037300AD3F1703FFDF1303C4
:1001200063EE9703FFDF9383E3ED6303730095377B
:100130001703FFDF130303ED9703FFDF938383ECC4
:1001400063037300B9371703FFDF1303A3EB9703B0
:10015000FFDF938323EB63037300253F3707000220
:1001600085471CC30F00300129A0370700021C433C
:10017000EDDFA28082800000F3222034732310344C
:10018000F3233034D5BF828006849721FF5F9381AB
:10019000E111930200006317550A976200009382F1
:1001A000627F1703FF5F1303E3E59723FF5F9383EA
:1001B000E395638C6200635A730003A50200910209
:1001C0002320A3001103E34A73FE971200009382D9
:1001D00062F51703FFE71303E3E29703FFE7938357
:1001E00063E2638C6200635A730003A5020091020C
:1001F0002320A3001103E34A73FE0F10000017230E
:10020000FF5F1303A39093838192635773002320AE
:1002100003001103E34D73FE1722FF5F1302028FE9
:1002200011C20296176500001305A546EF60204233
:10023000EF6060491765000013058572EF6020418B
:10024000EF60A0718937FD5673B0463073B0463405
:10025000F3271030372704007D8F09C773B036307D
:1002600073B02630370704007D8F19C373B00618AA
:100270003707010013078702F98F89CBF327003076
:100280000967D98F73900730735030000545971573
:1002900000009385E5E7171600001306A6E7312056
:1002A000EF60403CA28082808280411106C2F3222E
:1002B00040F1130300006385620073005010F5BF26
:0A02C000EF00106C924041018280B3
:0C02D000E8020120DC020120FC020120F9
:1002DC00371500801305C5096F50C062B725F400AF
:1002EC0037150080938505401305C5096F60400ED6
:1002FC00F1653725008093850520130585A66F6071
:02030C00A0153A
:100310000405060704050608040506090405060A7F
:1003200000000000010203010204010205010206AF
:10033000726564004C443000677265656E000000B1
:10034000626C7565000000004174206C6561737417
:10035000206F6E65206F66204C45447320697320C2
:100360006E756C6C2E000000435055206E756C6CE1
:100370002E00000043505520696E746572727570CE
:100380007420636F6E74726F6C6C65722069732079
:100390006E756C6C2E00000061657331323820651B
:1003A0006E6372797074696F6E2066696E616C201D
:1003B0006379633A2025640A000000006375727651
:1003C00065323535313920726564756374696F6ED5
:1003D000206379633A2025640A0000006375727611
:1003E0006532353531392043206C616E6720766582
:1003F00072206379633A2025640A000054494D4510
:100400005220696E7465727275707420636F6E74B9
:10041000726F6C6C657220697320206E756C6C2E27
:100420000000000054494D455220696E7465727297
:100430007570742068616E646C657220726567699E
:100440007374726174696F6E206661696C656400B3
:1004500043505520696E7465727275707420656EB4
:1004600061626C65206661696C656400EDFFFFFF89
:10047000FFFFFFFFFFFFFFFFFFFFFFFFFFFFFFFF8C
:10048000FFFFFFFFFFFFFFFFFFFFFF7F00000000F8
:10049000000000000000000000000000000000005C
:1004A000000000000000000000000000000000004C
:1004B000000000000000000000000000000000003C
:1004C000000000000000000000000000000000002C
:1004D000000000000000000000000000000000001C
:1004E000000000000000000000000000232D302B61
:1004F00020000000686C4C006566674546470000B8
:100500003031323334353637383941424344454649
:10051000000000003031323334353637383961620B
:100520006364656600000000000102020303030328
:100530000404040404040404050505050505050573
:100540000505050505050505060606060606060653
:10055000060606060606060606060606060606063B
:100560000606060606060606070707070707070723
:10057000070707070707070707070707070707070B
:1005800007070707070707070707070707070707FB
:1005900007070707070707070707070707070707EB
:1005A00007070707070707070808080808080808D3
:1005B00008080808080808080808080808080808BB
:1005C00008080808080808080808080808080808AB
:1005D000080808080808080808080808080808089B
:1005E000080808080808080808080808080808088B
:1005F000080808080808080808080808080808087B
:10060000080808080808080808080808080808086A
:10061000080808080808080808080808080808085A
:100620000808080808080808444301201E43012060
:100630000A43012000000000000000004C4501209A
:10064000684501203644012006430120E84301208B
:100650009A4301200000000000000000000000009C
:10066000000000000000000000000000000000008A
:1006700000000000C4440120DA4201200000000014
:10068000000000000000000000000000FE46012005
:1006900010470120324701205848012064470120BB
:1006A0006E4701203E490120724701207647012014
:1006B000A6470120D6470120064801201249012003
:1006C0001C4801202E480120344801203C480120CC
:1006D000B448012048490120805201200000000058
:1006E000000000000000000000000000B8520120DF
:1006F00000000000FC530120005401200000000015
:1007000000000000000000000000000000000000E9
:10071000000000000000000000000000FA46012078
:1007200000000000000000000000000000000000C9
:10073000000000007E5601200000000000000000C4
:1007400000000000000000000000000000000000A9
:1007500052540120000000004E5701208E57012006
:1007600000000000000000001A56012094550120EE
:100770002A54012004540120000000000000000061
:100780000000000000000000CE5701202E5801207C
:10079000B055012032560120105901206059012026
:1007A0001E5A01200100000020000000001BB700BD
:1007B00000366E01010000001F0000000300000071
:1007C0003F000000010000002000000000366E0124
:1007D000006CDC02030000001F00000002000000AB
:1007E0003F0000000100000010000000808D5B0051
:1007F000001BB700000000001F0000000300000005
:100800003F0000000100000010000000001BB700C6
:1008100000366E01010000001F0000000200000011
:100820003F000000010000001000000000366E01D3
:10083000006CDC02030000001F000000020000004A
:100840001F0000000100000008000000808D5B0018
:10085000001BB700000000001F00000003000000A4
:100860001F0000000100000008000000001BB7008E
:1008700000366E01010000001F00000002000000B1
:100880001F000000010000000800000000366E019B
:10089000006CDC02030000001F00000002000000EA
:1008A0000F0000000100000004000000808D5B00CC
:1008B000001BB700000000001F0000000300000044
:1008C0000F0000000100000004000000001BB70042
:1008D00000366E01010000001F0000000200000051
:1008E0000F000000010000000400000000366E014F
:1008F000006CDC02030000001F000000020000008A
:10090000070000000100000002000000808D5B0075
:10091000001BB700000000001F00000002000000E4
:100920000F0000000100000002000000001BB700E3
:1009300000366E01010000001F00000001000000F1
:100940000F000000010000000200000000366E01F0
:10095000006CDC02030000001F000000010000002A
:10096000070000000200000001000000808D5B0015
:10097000001BB700000000001F0000000100000085
:10098000070000000200000001000000001BB7008B
:1009900000366E01010000001F0000000100000091
:1009A00003000000020000000100000000366E019C
:1009B000006CDC02030000001F00000003000000C8
:1009C000FFFFFFFF0400000001000000808D5B00BE
:1009D000001BB700000000001F0000000300000023
:1009E000000000000400000001000000001BB70030
:1009F00000366E01010000001F000000030000002F
:100A0000FFFFFFFF040000000100000000366E0140
:100A1000006CDC02030000001F0000000200000068
:100A2000FFFFFFFF0600000001000000808D5B005B
:100A3000AAC2A20000000000230000000100000084
:100A4000020000000600000001000000AAC2A2008F
:100A5000001BB700000000001700000003000000AA
:100A6000FFFFFFFF0600000001000000001BB700B1
:100A70000024F400010000002F000000030000002B
:100A8000FFFFFFFF06000000010000000024F4004B
:100A900080A8120101000000170000000200000001
:100AA000FFFFFFFF060000000100000080A8120108
:100AB00055854501020000002300000002000000EF
:100AC000FFFFFFFF0800000001000000808D5B00B9
:100AD000001BB700000000001F0000000300000022
:100AE000FFFFFFFF0800000001000000001BB7002F
:100AF00000366E01010000001F000000020000002F
:100B0000FFFFFFFF080000000100000000366E013B
:100B1000006CDC02030000001F0000000100000068
:100B2000FFFFFFFF0A00000001000000808D5B0056
:100B3000007C92000000000027000000030000007D
:100B4000FFFFFFFF0A00000001000000007C920090
:100B5000001BB700000000001300000002000000AE
:100B6000FFFFFFFF0A00000001000000001BB700AC
:100B700000F824010100000027000000020000002E
:100B8000FFFFFFFF0A0000000100000000F8240141
:100B900000366E010100000013000000010000009B
:100BA000FFFFFFFF0A0000000100000000366E0199
:100BB00000F04902030000002700000001000000CF
:100BC000FFFFFFFF0C00000001000000808D5B00B4
:100BD00000127A00000000002F0000000300000057
:100BE000FFFFFFFF0C0000000100000000127A0070
:100BF000001BB7000000000017000000020000000A
:100C0000FFFFFFFF0C00000001000000001BB70009
:100C10000024F400010000002F000000020000008A
:100C2000FFFFFFFF0C000000010000000024F400A3
:100C300000366E01010000001700000001000000F6
:100C4000FFFFFFFF0C0000000100000000366E01F6
:100C500080C3C901030000002F0000000100000054
:100C6000FFFFFFFF0C0000000100000080C3C9016E
:100C70000048E801030000002F0000000100000010
:100C8000FFFFFFFF0E00000001000000808D5B00F1
:100C9000B6A168000000000037000000030000005B
:100CA000FFFFFFFF0E00000001000000B7A1680079
:100CB000001BB700000000001B0000000200000045
:100CC000FFFFFFFF0E00000001000000001BB70047
:100CD0006D43D10001000000370000000200000059
:100CE000FFFFFFFF0E000000010000006E43D10077
:100CF00000366E01010000001B0000000100000032
:100D0000FFFFFFFF0E0000000100000000366E0133
:100D1000DB86A20103000000370000000100000094
:100D2000FFFFFFFF1000000001000000808D5B004E
:100D3000001BB700000000001F00000002000000C0
:100D4000FFFFFFFF1000000001000000001BB700C4
:100D500000366E01010000001F00000001000000CD
:100D6000FFFFFFFF1200000001000000808D5B000C
:100D7000AAC2A20000000000230000000200000040
:100D8000FFFFFFFF1200000001000000ABC2A20045
:100D9000001BB7000000000011000000010000006F
:100DA000FFFFFFFF1200000001000000001BB70062
:100DB00055854501010000002300000001000000EE
:100DC000FFFFFFFF1400000001000000808D5B00AA
:100DD000007C9200000000002700000002000000DC
:100DE000FFFFFFFF1400000001000000007C9200E4
:100DF000001BB7000000000013000000010000000D
:100E0000FFFFFFFF1400000001000000001BB700FF
:100E100000F824010100000027000000010000008C
:100E2000FFFFFFFF1600000001000000808D5B0047
:100E3000E82A8500000000002B00000002000000EE
:100E4000FFFFFFFF1600000001000000E92A8500F7
:100E5000001BB700000000001500000001000000AA
:100E6000FFFFFFFF1600000001000000001BB7009D
:100E7000D1550A01010000002B0000000100000014
:100E8000FFFFFFFF1800000001000000808D5B00E5
:100E900000127A00000000002F0000000200000095
:100EA000FFFFFFFF180000000100000000127A00A1
:100EB000001BB70000000000170000000100000048
:100EC000FFFFFFFF1800000001000000001BB7003B
:100ED0000024F400010000002F00000001000000C9
:100EE000FFFFFFFF1A00000001000000808D5B0083
:100EF00027AE700000000000330000000200000078
:100F0000FFFFFFFF1A0000000100000028AE700084
:100F1000001BB700000000001900000001000000E5
:100F2000FFFFFFFF1A00000001000000001BB700D8
:100F30006658E100010000003300000001000000DD
:100F4000FFFFFFFF1C00000001000000808D5B0020
:100F5000B6A1680000000000370000000200000099
:100F6000FFFFFFFF1C00000001000000B7A16800A8
:100F7000001BB700000000001B0000000100000083
:100F8000FFFFFFFF1C00000001000000001BB70076
:100F90006D43D10001000000370000000100000097
:100FA000FFFFFFFF1E00000001000000808D5B00BE
:100FB00000A86100000000003B00000002000000EB
:100FC000FFFFFFFF1E0000000100000000A86100FD
:100FD000001BB700000000001D0000000100000021
:100FE000FFFFFFFF1E00000001000000001BB70014
:100FF0000050C300010000003B00000001000000A1
:10100000FFFFFFFF2000000001000000808D5B005B
:10101000001BB700000000001F00000001000000DE
:10102000FFFFFFFF4C4430677265656E00000000F3
:101030004C4430626C7565004C443072656400004D
:101040000A5D0120445C01207C5C0120AC5C012035
:10105000DC5C0120945E0120B25E0120C25E0120B2
:10106000BC5E0120E45E0120CA5E0120DE5E01203C
:10107000D25E0120105F0120205F01201A5F012055
:10108000425F0120285F01203C5F0120305F01208A
:10109000725D01205A5D01208E5D0120A25D01205C
:1010A000B65D0120D25D0120EA5D0120025E0120D3
:1010B0001E5E0120365E0120545E0120705E01201C
:1010C000EA5E01204A5F0120605F0120F662012094
:1010D000B26101203E610120D8610120F861012048
:1010E00082620120A0600120C6600120EA60012028
:1010F00000610120146101202A6101204E6101205C
:101100006E61012080610120A06101201411012085
:10111000000000006C6962676C6F73730000000070
:1011800041712324811EB705012037040120938576
:101190000533130544332326111E2320211F232E3C
:1011A000311D2322911E232C411D232A511D23284A
:1011B000611D2326711DEF30400DB7050120AA895E
:1011C0009385853313054433EF30200CB705012098
:1011D0002A899385053413054433EF30000B638669
:1011E000090063040900AA8405ED370501201305F1
:1011F0008534EF10503D05458320C11E0324811E18
:101200008324411E0329011E8329C11D032A811D38
:10121000832A411D032B011D832BC11C7D6182800C
:101220004E85EF3000054A85EF30A0042685EF306B
:1012300040044E85EF30E0044A85EF308004268577
:10124000EF302004EF308000EF20907F23A0A190AA
:1012500009E93705012013058536EF10D036094519
:1012600061BFEF20707D23A4A19009E9370501201B
:1012700013054537EF1030350D45BDBFEF20707DAC
:101280001306000481450809EF101021130600021F
:1012900081450818EF105020B7050120938A0531C9
:1012A0004146938505310A85EF10B01D93850A01EB
:1012B00041460808EF10F01C41468A85080AEF10E5
:1012C000501C10100C08080AEF00902010100C0899
:1012D000080AEF00F01F10100C08080AEF00501F5A
:1012E00010100C08080AEF00B01E10100C08080AB5
:1012F000EF00101EF529AA8A2E8B930B803E10104A
:101300000C08080AFD1BEF00B01CE39A0BFECD2170
:10131000AA8733055541B3B7A700B38565411306C6
:10132000803E81469D8DEF205039AA8537050120EA
:1013300013058539EF1050170C180809EF10C05B22
:101340000C180809EF10405B0C180809EF10C05A80
:101350000C180809EF10405A0C180809EF10C05972
:101360004129AA8A2E8B930B803E0C180809FD1B7D
:10137000EF108058E39B0BFEA529AA873305554142
:10138000B3B7A700B385654181469D8D1306803EA6
:10139000EF20B032AA85370501201305C53BEF10B9
:1013A000B0101306000281458819EF10F00E1306E5
:1013B000000281458808EF10300EB7777777938762
:1013C0007777BEC9BECBBECDBECFBED1BED3BED554
:1013D000BED7B557BED8FD57BEDABEDCBEDE3EC1B5
:1013E0003EC33EC5B707008093C7F7FF3EC709213C
:1013F000AA8A2E8B930B803E814690188C09880810
:10140000FD1B5D2CE39A0BFEE526AA8733055541AB
:10141000B3B7A700B38565411306803E81469D8D15
:10142000EF20B029AA85370501201305C53DEF102F
:10143000B00703A50190EF20305F23A2A19009E936
:10144000370501201305C53FEF10F01711456DB3A7
:10145000EF20306003A50190EF20905DAA8523A0C6
:10146000A19283A6019003A541903716012013068F
:10147000C64BEF20905E2A84635B05003705012090
:1014800013054542EF10301433058040B5B303A572
:1014900081908145EF20F05CFD57631AF500370518
:1014A000012013050545EF1010121945B1B34E8503
:1014B00025204A85152026850520D5BF83A50192C4
:1014C00003A54190411106C6EF20305AB2400547AE
:1014D00023AEE19041018280411122C406C626C29A
:1014E0004AC023AE01902A89EF20305983A401908D
:1014F0002685EF207052A167AA9733B5A70033065F
:10150000B500BE852685EF20B05183A5019203A5C5
:101510004190EF20105583A7C191F5DF23AE0190D4
:101520002244B24092444A85024941016F207055DD
:101530005D71A2C4A6C22E84CAC0B28481451306BE
:1015400000042A890A8586C6EF100075A2850A86DE
:10155000130E0402938E040203A30500014726859F
:1015600032881441832708001105B308D302BA97C3
:1015700033B7E7001108B336D302C697B3B81701E3
:10158000232EF8FE36974697E39DAEFC18D29105C0
:101590001106E313BEFC8A854A8513060004EF108A
:1015A000406EB640264496440649616182805D7172
:1015B000A6C2CAC04EDEAA842E89B289814513060E
:1015C00000020808A2C43AC686C6EF10E06C324793
:1015D000014601440A07631EE6000C082685EF1049
:1015E000406A2285B640264496440649F259616114
:1015F0008280B307C9009443B387C9009C430C0899
:10160000B295B697B3B6D700A2979CC163F3870093
:10161000850636841106C1B75D71A6C2CAC04EDE0A
:10162000AA842E89B2898145130600020808A2C443
:101630003AC686C6EF10406632478147014413051B
:101640000002B306F9009042B386F90094420C08F8
:101650003388F500B3058640958D2320B800636577
:10166000D6026315D6029107E39DA7FC0C082685D8
:1016700013162700EF10E0602285B64026449644FA
:101680000649F259616182800544F1BF0144E1BF1E
:101690007D16635406001D4582809317260033078C
:1016A000F500AE9718439C4363E6E700E372F7FE4C
:1016B00019458280154582800D71232C8114232ABF
:1016C000911423282115AE842A898145328488010A
:1016D00013060004232E111423263115EF10C05BCE
:1016E0001306000281450A85EF10005B1306000413
:1016F00081450802EF10405A130600028145081088
:10170000EF10805971468145C800EF10E0589307EB
:1017100060021306000281458810BEC0EF10C0575A
:101720001306000281450801EF1000578147130797
:1017300000023386F40010429410BE9690C29107C6
:10174000E399E7FE93870402180193840404944309
:1017500091071107232ED7FEE39B97FE2147A28610
:1017600010018C008801E9338E572147A286900131
:101770008C100A853ED0253D82572147A2863E9592
:101780002AD090000C1008026533B705012013061B
:1017900000029385C5460811EF10A04E2147A2868E
:1017A00010028A850A852135AA849949634A9002E4
:1017B00021460C110A85E93D631435038A854A8563
:1017C00013060002EF10E04B8320C115032481159E
:1017D00083244115032901158329C11435618280B1
:1017E0002147A28610118A850A853D35898C7DBFE7
:1017F000F32500B8732500B0732600B8E39AC5FE40
:1018000082800000000000008322050003234500C1
:1018100083238500032EC50097EEFE5F938E8E7E98
:10182000B71F0000938F0FFF131F4E00B377FF0108
:10183000135F4E003376FF01135FCE00B376FF01D6
:10184000135F4E013377FF01330FD60103460F00BC
:10185000338FD60183460F00330FD70103470F00A4
:10186000338FD70183470F0093C21200B3C2C20067
:10187000A206B3C2D2004207B3C2E200E207B3C27B
:10188000F20033435300B3C36300334E7E0023A002
:10189000550023A2650023A4750023A6C501131FCC
:1018A0004E00B377FF01135F4E003376FF01135FE5
:1018B000CE00B376FF01135F4E013377FF01330F84
:1018C000D60103460F00338FD60183460F00330F36
:1018D000D70103470F00338FD70183470F0093C20F
:1018E0002200B3C2C200A206B3C2D2004207B3C2F2
:1018F000E200E207B3C2F20033435300B3C3630014
:10190000334E7E0023A8550023AA650023AC750042
:1019100023AEC501131F4E00B377FF01135F4E00C6
:101920003376FF01135FCE00B376FF01135F4E01E4
:101930003377FF01330FD60103460F00338FD601F3
:1019400083460F00330FD70103470F00338FD701B2
:1019500083470F0093C24200B3C2C200A206B3C2C3
:10196000D2004207B3C2E200E207B3C2F20033433F
:101970005300B3C36300334E7E0023A0550223A25D
:10198000650223A4750223A6C503131F4E00B37777
:10199000FF01135F4E003376FF01135FCE00B37675
:1019A000FF01135F4E013377FF01330FD60103466A
:1019B0000F00338FD60183460F00330FD701034743
:1019C0000F00338FD70183470F0093C28200B3C249
:1019D000C200A206B3C2D2004207B3C2E200E207CD
:1019E000B3C2F20033435300B3C36300334E7E00EF
:1019F00023A8550223AA650223AC750223AEC503B2
:101A0000131F4E00B377FF01135F4E003376FF01C3
:101A1000135FCE00B376FF01135F4E013377FF01F2
:101A2000330FD60103460F00338FD60183460F00D4
:101A3000330FD70103470F00338FD70183470F00C0
:101A400093C20201B3C2C200A206B3C2D2004207CF
:101A5000B3C2E200E207B3C2F20033435300B3C3A0
:101A60006300334E7E0023A0550423A2650423A403
:101A7000750423A6C505131F4E00B377FF01135F3E
:101A80004E003376FF01135FCE00B376FF01135F84
:101A90004E013377FF01330FD60103460F00338F1A
:101AA000D60183460F00330FD70103470F00338F52
:101AB000D70183470F0093C20202B3C2C200A2063D
:101AC000B3C2D2004207B3C2E200E207B3C2F200DF
:101AD00033435300B3C36300334E7E0023A8550441
:101AE00023AA650423AC750423AEC505131F4E005D
:101AF000B377FF01135F4E003376FF01135FCE0013
:101B0000B376FF01135F4E013377FF01330FD60128
:101B100003460F00338FD60183460F00330FD701E2
:101B200003470F00338FD70183470F0093C202048E
:101B3000B3C2C200A206B3C2D2004207B3C2E200DF
:101B4000E207B3C2F20033435300B3C36300334E22
:101B50007E0023A0550623A2650623A4750623A6AE
:101B6000C507131F4E00B377FF01135F4E00337696
:101B7000FF01135FCE00B376FF01135F4E01337791
:101B8000FF01330FD60103460F00338FD601834682
:101B90000F00330FD70103470F00338FD70183475F
:101BA0000F0093C20208B3C2C200A206B3C2D200A1
:101BB0004207B3C2E200E207B3C2F200334353006C
:101BC000B3C36300334E7E0023A8550623AA6506DF
:101BD00023AC750623AEC507131F4E00B377FF0174
:101BE000135F4E003376FF01135FCE00B376FF0123
:101BF000135F4E013377FF01330FD60103460F0009
:101C0000338FD60183460F00330FD70103470F00F0
:101C1000338FD70183470F0093C2B201B3C2C20012
:101C2000A206B3C2D2004207B3C2E200E207B3C2C7
:101C3000F20033435300B3C36300334E7E0023A04E
:101C4000550823A2650823A4750823A6C509131FF8
:101C50004E00B377FF01135F4E003376FF01135F31
:101C6000CE00B376FF01135F4E013377FF01330FD0
:101C7000D60103460F00338FD60183460F00330F82
:101C8000D70103470F00338FD70183470F0093C25B
:101C90006203B3C2C200A206B3C2D2004207B3C2FB
:101CA000E200E207B3C2F20033435300B3C3630060
:101CB000334E7E0023A8550823AA650823AC750877
:101CC00023AEC5098280010082800100130000005C
:101CD000111122C226C44AC64EC852CA56CC9441DB
:101CE000D8419C4503A8C500832205000323450075
:101CF00083238500032EC50097EEFE5F938E8E3002
:101D0000138F4E00138A8E00938ACE00B71F0000F7
:101D1000938F0FFFB3C6560033476700B3C77700F2
:101D20003348C8018322050103234501832385012C
:101D3000032EC50113F4F60F9374F70F13F9F70F81
:101D40009379F80F1204920412099209B305E40181
:101D50008041B385E4018441B305E90103A905008D
:101D6000B385E90183A90500B3C282003343930020
:101D7000B3C32301334E3E019182118391831358E3
:101D800048003374F701B3F4F7013379F801B3F97C
:101D9000F601B30554018041B38554018441B30574
:101DA000590103A90500B385590183A90500B3C2F0
:101DB000820033439300B3C32301334E3E01A1821B
:101DC0002183A1831358880033F4F701B374F80119
:101DD00033F9F601B379F701B305D4018041B38536
:101DE000D4018441B305D90103A90500B385D90104
:101DF00083A90500B3C2820033439300B3C3230118
:101E0000334E3E01A1822183A1831358880033748D
:101E1000F801B3F4F6013379F701B3F9F701B3052B
:101E200044018041B38544018441B305490103A9BC
:101E30000500B385490183A90500B3C2820033437D
:101E40009300B3C32301334E3E01145158511C5526
:101E50000328C50213F4F20F9374F30F13F9F30F71
:101E60009379FE0F1204920412099209B305E4015A
:101E70008041B385E4018441B305E90103A905006C
:101E8000B385E90183A90500A18E258FB3C727017A
:101E90003348380193D242001353430093D3430095
:101EA000135E4E003374F301B3F4F3013379FE0192
:101EB000B3F9F201B30554018041B3855401844163
:101EC000B305590103A90500B385590183A905008C
:101ED000A18E258FB3C727013348380193D28200E2
:101EE0001353830093D38300135E8E0033F4F30106
:101EF000B374FE0133F9F201B379F301B305D401F0
:101F00008041B385D4018441B305D90103A90500FB
:101F1000B385D90183A90500A18E258FB3C72701F9
:101F20003348380193D282001353830093D3830044
:101F3000135E8E003374FE01B3F4F2013379F301C2
:101F4000B3F9F301B30544018041B38544018441F1
:101F5000B305490103A90500B385490183A905001B
:101F6000A18E258FB3C7270133483801832205038B
:101F70000323450383238503032EC50313F4F60FC0
:101F80009374F70F13F9F70F9379F80F1204920473
:101F900012099209B305E4018041B385E40184414B
:101FA000B305E90103A90500B385E90183A905008B
:101FB000B3C2820033439300B3C32301334E3E01C7
:101FC000918211839183135848003374F701B3F45D
:101FD000F7013379F801B3F9F601B30554018041F3
:101FE000B38554018441B305590103A90500B385A4
:101FF000590183A90500B3C2820033439300B3C3E0
:102000002301334E3E01A1822183A183135888000E
:1020100033F4F701B374F80133F9F601B379F7013A
:10202000B305D4018041B385D4018441B305D901FE
:1020300003A90500B385D90183A90500B3C28200B5
:1020400033439300B3C32301334E3E01A182218366
:10205000A183135888003374F801B3F4F60133797F
:10206000F701B3F9F701B30544018041B385440199
:102070008441B305490103A90500B385490183A93A
:102080000500B3C2820033439300B3C32301334E30
:102090003E01344178413C450328C50413F4F20F56
:1020A0009374F30F13F9F30F9379FE0F1204920454
:1020B00012099209B305E4018041B385E40184412A
:1020C000B305E90103A90500B385E90183A905006A
:1020D000A18E258FB3C727013348380193D2420020
:1020E0001353430093D34300135E4E003374F30144
:1020F000B3F4F3013379FE01B3F9F201B3055401EE
:102100008041B38554018441B305590103A90500F9
:10211000B385590183A90500A18E258FB3C7270177
:102120003348380193D282001353830093D3830042
:10213000135E8E0033F4F301B374FE0133F9F20140
:10214000B379F301B305D4018041B385D40184414F
:10215000B305D90103A90500B385D90183A90500F9
:10216000A18E258FB3C727013348380193D282004F
:102170001353830093D38300135E8E003374FE01E8
:10218000B3F4F2013379F301B3F9F301B305440178
:102190008041B38544018441B305490103A9050089
:1021A000B385490183A90500A18E258FB3C72701F7
:1021B000334838018322050503234505832385051C
:1021C000032EC50513F4F60F9374F70F13F9F70FE9
:1021D0009379F80F1204920412099209B305E401ED
:1021E0008041B385E4018441B305E90103A90500F9
:1021F000B385E90183A90500B3C28200334393008C
:10220000B3C32301334E3E0191821183918313584E
:1022100048003374F701B3F4F7013379F801B3F9E7
:10222000F601B30554018041B38554018441B305DF
:10223000590103A90500B385590183A90500B3C25B
:10224000820033439300B3C32301334E3E01A18286
:102250002183A1831358880033F4F701B374F80184
:1022600033F9F601B379F701B305D4018041B385A1
:10227000D4018441B305D90103A90500B385D9016F
:1022800083A90500B3C2820033439300B3C3230183
:10229000334E3E01A1822183A183135888003374F9
:1022A000F801B3F4F6013379F701B3F9F701B30597
:1022B00044018041B38544018441B305490103A928
:1022C0000500B385490183A90500B3C282003343E9
:1022D0009300B3C32301334E3E01345178513C5532
:1022E0000328C50613F4F20F9374F30F13F9F30FD9
:1022F0009379FE0F1204920412099209B305E401C6
:102300008041B385E4018441B305E90103A90500D7
:10231000B385E90183A90500A18E258FB3C72701E5
:102320003348380193D242001353430093D3430000
:10233000135E4E003374F301B3F4F3013379FE01FD
:10234000B3F9F201B30554018041B38554018441CE
:10235000B305590103A90500B385590183A90500F7
:10236000A18E258FB3C727013348380193D282004D
:102370001353830093D38300135E8E0033F4F30171
:10238000B374FE0133F9F201B379F301B305D4015B
:102390008041B385D4018441B305D90103A9050067
:1023A000B385D90183A90500A18E258FB3C7270165
:1023B0003348380193D282001353830093D38300B0
:1023C000135E8E003374FE01B3F4F2013379F3012E
:1023D000B3F9F301B30544018041B385440184415D
:1023E000B305490103A90500B385490183A9050087
:1023F000A18E258FB3C727013348380183220507F3
:102400000323450783238507032EC50713F4F60F1F
:102410009374F70F13F9F70F9379F80F12049204DE
:1024200012099209B305E4018041B385E4018441B6
:10243000B305E90103A90500B385E90183A90500F6
:10244000B3C2820033439300B3C32301334E3E0132
:10245000918211839183135848003374F701B3F4C8
:10246000F7013379F801B3F9F601B305540180415E
:10247000B38554018441B305590103A90500B3850F
:10248000590183A90500B3C2820033439300B3C34B
:102490002301334E3E01A1822183A183135888007A
:1024A00033F4F701B374F80133F9F601B379F701A6
:1024B000B305D4018041B385D4018441B305D9016A
:1024C00003A90500B385D90183A90500B3C2820021
:1024D00033439300B3C32301334E3E01A1822183D2
:1024E000A183135888003374F801B3F4F6013379EB
:1024F000F701B3F9F701B30544018041B385440105
:102500008441B305490103A90500B385490183A9A5
:102510000500B3C2820033439300B3C32301334E9B
:102520003E018326050803274508832785080328DD
:10253000C50813F4F20F9374F30F13F9F30F9379A3
:10254000FE0F1204920412099209B305E4018041BE
:10255000B385E4018441B305E90103A90500B3850E
:10256000E90183A90500A18E258FB3C72701334850
:10257000380193D242001353430093D34300135EB8
:102580004E003374F301B3F4F3013379FE01B3F970
:10259000F201B30554018041B38554018441B30570
:1025A000590103A90500B385590183A90500A18E2E
:1025B000258FB3C727013348380193D282001353C4
:1025C000830093D38300135E8E0033F4F301B3745E
:1025D000FE0133F9F201B379F301B305D40180416F
:1025E000B385D4018441B305D90103A90500B3859E
:1025F000D90183A90500A18E258FB3C727013348D0
:10260000380193D282001353830093D38300135E67
:102610008E003374FE01B3F4F2013379F301B3F9A0
:10262000F301B30544018041B38544018441B305FE
:10263000490103A90500B385490183A90500A18EBD
:10264000258FB3C7270133483801832205090323A7
:10265000450983238509032EC50913F4F60F9374E6
:10266000F70F13F9F70F9379F80F12049204120978
:102670009209B305E4018041B385E4018441B305C7
:10268000E90103A90500B385E90183A90500B3C2E7
:10269000820033439300B3C32301334E3E01918242
:1026A00011839183135848003374F701B3F4F70191
:1026B0003379F801B3F9F601B30554018041B385CC
:1026C00054018441B305590103A90500B38559019B
:1026D00083A90500B3C2820033439300B3C323012F
:1026E000334E3E01A1822183A1831358880033F425
:1026F000F701B374F80133F9F601B379F701B305C3
:10270000D4018041B385D4018441B305D90103A923
:102710000500B385D90183A90500B3C28200334304
:102720009300B3C32301334E3E01A1822183A183D1
:10273000135888003374F801B3F4F6013379F701C4
:10274000B3F9F701B30544018041B38544018441E5
:10275000B305490103A90500B385490183A9050013
:10276000B3C2820033439300B3C32301334E3E010F
:1027700013944200931443001399430093194E009D
:102780003374F401B3F4F4013379F901B3F9F901C5
:10279000B305D40183C60500B385D40103C7050082
:1027A000B305D90183C70500B385D90103C8050066
:1027B0001354430093D4430013594E0093D942005D
:1027C0003374F401B3F4F4013379F901B3F9F90185
:1027D000B305D40103C40500B385D40183C4050047
:1027E000B305D90103C90500B385D90183C9050023
:1027F0002204A2042209A209A18E258FB3C72701B2
:102800003348380113D4C3009354CE0013D9C20007
:102810009359C3003374F401B3F4F4013379F9012B
:10282000B3F9F901B305D40103C40500B385D4019C
:1028300083C40500B305D90103C90500B385D901D7
:1028400083C905004204C2044209C209A18E258F32
:10285000B3C727013348380113544E0193D44201C2
:102860001359430193D943013374F401B3F4F401D0
:102870003379F901B3F9F901B305D40103C40500B3
:10288000B385D40183C40500B305D90103C905008C
:10289000B385D90183C905006204E2046209E20933
:1028A000A18E258FB3C72701334838018322050A3B
:1028B0000323450A8323850A032EC50AB3C2D20027
:1028C0003343E300B3C3F300334E0E01232056001D
:1028D00023226600232476002326C6011244A24444
:1028E0003249C249524AE24A710182801300000013
:1028F0008280000000000000930260021303F00FCA
:1029000022031303F30F130141FB16C21AC422C69C
:1029100026C84ACA4ECC52CE56D05AD25ED462D6BF
:1029200066D86ADA6EDC72DEF6C0FAC2FEC40358FC
:1029300005023308580283582502B3885802035908
:1029400045023309590283596502B3895902035A72
:102950008502330A5A02835AA502B38A5A02035BDC
:10296000C502330B5B02835BE502B38B5B02035C46
:102970000503330C5C02835C2503B38C5C02035DAE
:102980004503330D5D02835D6503B38D5D02035E18
:102990008503330E5E02835EA503B38E5E02035F82
:1029A000C503330F5F02835FE503B38F5F021356E6
:1029B000080133786800B29813D60801B3F86800AC
:1029C00032991356090133796900B29913D6090176
:1029D000B3F96900329A13560A01337A6A00B29A3F
:1029E00013D60A01B3FA6A00329B13560B01337BEC
:1029F0006B00B29B13D60B01B3FB6B00329C1356DA
:102A00000C01337C6C00B29C13D60C01B3FC6C003F
:102A1000329D13560D01337D6D00B29D13D60D010D
:102A2000B3FD6D00329E13560E01337E6E00B29ED2
:102A300013D60E01B3FE6E00329F13560F01337F83
:102A40006F00B29F13D60F01B3FF6F00B30656029B
:102A50003698035705003A981356080133786800F2
:102A600003572500BA98B29813D60801B3F8680046
:102A7000035745003A993299135609013379690091
:102A800003576500BA99B29913D60901B3F96900E1
:102A9000035785003A9A329A13560A01337A6A002C
:102AA0000357A500BA9AB29A13D60A01B3FA6A007C
:102AB0000357C5003A9B329B13560B01337B6B00C7
:102AC0000357E500BA9BB29B13D60B01B3FB6B0017
:102AD000035705013A9C329C13560C01337C6C0061
:102AE00003572501BA9CB29C13D60C01B3FC6C00B1
:102AF000035745013A9D329D13560D01337D6D00FC
:102B000003576501BA9DB29D13D60D01B3FD6D004B
:102B1000035785013A9E329E13560E01337E6E0096
:102B20000357A501BA9EB29E13D60E01B3FE6E00E6
:102B30000357C5013A9F329F13560F01337F6F0031
:102B40000357E501BA9FB29F13D60F01B3FF6F0081
:102B500079C2B30656023698135608014DCE337823
:102B60006800B29813D608015DC6B3F868003299C0
:102B7000135609014DC233796900B29913D6090180
:102B800059CAB3F96900329A13560A0149C6337A11
:102B90006A00B29A13D60A013DCEB3FA6A00329B9C
:102BA00013560B012DCA337B6B00B29B13D60B015E
:102BB0003DC2B3FB6B00329C13560C0129CE337C13
:102BC0006C00B29C13D60C0139C6B3FC6C00329D6C
:102BD00013560D0129C2337D6D00B29D13D60D0130
:102BE0001DCAB3FD6D00329E13560E010DC6337E15
:102BF0006E00B29E13D60E0119CEB3FE6E00329F48
:102C000013560F0109CA337F6F00B29F13D60F010D
:102C100019C2B3FF6F002390050123911501239280
:102C200025012393350123944501239555012396CE
:102C30006501239775012398850123999501239AAE
:102C4000A501239BB501239CC501239DD501239E8E
:102C5000E501239FF501924222433244C244524986
:102C6000E249724A825A125BA25B325CC25C525DDC
:102C7000E25D725E864E164FA64F1301C10482803C
:102C800000002A8309CA83830500230073007D1690
:102C9000050385056DFA82802A8311C62300B300DF
:102CA0007D16050365FE828039713EDA2ED232D45C
:102CB00036D63AD842DC46DE97F7FE5F938707DFC9
:102CC00022CC804326CA06CEAA8409C41C4C99E3B0
:102CD00022851D2B0C4454102686228536C6EF0013
:102CE000B018F2406244D24421618280011126CAA8
:102CF0004AC806CE22CC4EC652C4AA842E8901C52B
:102D00001C4D91E311239C4C804499E32685ED29C9
:102D100097D7FFFF9387C779631CF402C04083579E
:102D2000C400A18BB1C71C48A1C7FD59294A1C4446
:102D300083450900FD17B1E91CC463DE070622863E
:102D4000A94526854128FD576308F502294535A088
:102D500097D7FFFF9387C7776314F4008044C1B708
:102D600097D7FFFF9387C772E31BF4FAC04445BFB0
:102D7000A2852685052255D97D55F2406244D2446C
:102D80004249B249224A056182801CC4050963D7C1
:102D90000700184C63CBE700638945011C4013878B
:102DA000170018C02380B70059B7228626851D203A
:102DB000E31F35F7D1B71C401387170018C0294708
:102DC0002380E70061B797F7FE5F938727CEAA8538
:102DD000884329BF011122CC26CA4AC806CE4EC656
:102DE000AA842E89328401C51C4D91E3312997D7DD
:102DF000FFFF9387E76B6319F406C0401C4C1CC4AB
:102E00008357C400A18BC9C31C48BDCF1C480840D0
:102E10009379F90F1379F90F1D8D5C486346F5001E
:102E2000A2852685E9242DE51C440505FD171CC453
:102E30001C401387170018C0238037015C48638942
:102E4000A7008357C400858B81CBA9476316F9007F
:102E5000A2852685692C0DEDF24062444A85D24454
:102E60004249B2490561828097D7FFFF9387476641
:102E70006314F400804459B797D7FFFF93874761E5
:102E8000E31EF4F6C0449DBFA285268521203DDDCA
:102E90007D59D9B7411197F7FE5F938727C126C2A5
:102EA000844322C44AC006C62A892E8489C49C4C05
:102EB00099E32685912E97D7FFFF9387675F631C61
:102EC000F402C0400317C40093170701C18393F6AF
:102ED0008700B5EE93F607019DEEA5472320F90084
:102EE000136707042316E4007D55B2402244924440
:102EF00002494101828097D7FFFF9387675D631482
:102F0000F4008044C1B797D7FFFF93876758E31B4E
:102F1000F4FAC04445BF918B8DC74C5889C99307BB
:102F200044046384F5004A85A923232A04028357B5
:102F3000C4002322040093F7B7FD2316F4001C48B5
:102F40001CC08357C40093E787002316F4001C4875
:102F500081EF8357C4001307002093F70728638588
:102F6000E700A2854A8585298357C40013F7170017
:102F700005C75C4823240400B307F0401CCC1C4860
:102F80000145A5F78317C40013F7070839DF93E756
:102F900007042316F40089BF898B014791E3584841
:102FA00018C4F1BF83D7C500011122CC26CA06CEB2
:102FB0004AC84EC613F78700AA842E8465E7D84115
:102FC0006347E000B8416344E0000145C1A05854A4
:102FD0006DDF03A904009396370123A0040063DE8C
:102FE000060668488357C400918B99C75C401D8DC5
:102FF0005C5899C33C401D8D5C540C502A86814618
:1030000026858297FD570357C400631DF500944041
:10301000F54763E4D708B70740208507B3D7D70043
:10302000858BA5CF1C48232204001CC093173701B1
:1030300063D80700FD576314F5009C4091E368C80E
:103040004C5823A02401D1D1930744046384F50094
:1030500026850521232A04028DBF0C508546014692
:1030600026850297FD57E31FF5F69C40A5DF7547BF
:103070006385E70059476395E70023A02401B1B7B2
:103080008357C40093E707042316F400F240624418
:10309000D2444249B249056182801367070423166E
:1030A000E400EDB783A90501E38109F203A9050056
:1030B0008D8B23A0350133093941014791E3D8496C
:1030C00018C4E35420F11C540C50CA864E86268541
:1030D0008297634AA0008357C4007D5593E7070495
:1030E0002316F40065B7AA993309A940D9BF9C49B2
:1030F000B9CF011122CC06CE2A8411C51C4D81E71F
:103100002EC61922B24597D7FFFF9387673A639B74
:10311000F5004C408397C50095C722856244F24074
:10312000056149B597D7FFFF9387873A6394F50008
:103130000C44CDB797D7FFFF93878735E39CF5FC09
:103140004C44C9BFF240624401450561828001459B
:103150008280411122C406C62A842316B500231793
:10316000C500232005002322050023240500232277
:10317000050623280500232A0500232C05002146E7
:1031800081451305C505093E970700009387277AF7
:103190005CD0970700009387877C1CD497170000AA
:1031A0009387C7805CD4971700009387878300D0EC
:1031B0001CD8B240224441018280970500009385CB
:1031C00045F381AA411126C2130680069384F5FFB8
:1031D000B384C4024AC02E8922C406C6938544071C
:1031E0003D2E2A8419C923200500232225013105FB
:1031F00008C413868406814545342285B2402244A2
:1032000092440249410182801C4DBDE3411106C632
:1032100022C497070000938787FA1CD597F7FE5FB3
:10322000938707899C432324050423260504232828
:1032300005046314F50085471CCD2A841D2848C069
:103240002285052808C422852D2048C4484001460F
:103250009145013708440546A545E53D48440946E2
:10326000C945C53D85471CCCB240224441018280FE
:103270008280411197F7FE5F9387878326C284433C
:103280004AC006C69C4C22C42A8999E32685AD3FD4
:10329000938484048044DC40FD1763D607009C407F
:1032A000B9CF8440C5BF0317C40039E7C17785078C
:1032B00023220406232004002322040023240400E4
:1032C0005CC423280400232A0400232C0400214684
:1032D00081451305C405EFF03F9C232A0402232CEB
:1032E000040223240404232604042285B240224439
:1032F00092440249410182801304840671BF9145C2
:103300004A85C93588C02A8449FDB1472320F90080
:10331000E9BF797122D44AD052CC56CA5AC85EC687
:1033200006D626D24ECE2A8AAE8A130485040149D7
:10333000054BFD5B09ECB25022544A859254025968
:10334000F249624AD24A424BB24B45618280044400
:1033500083294400FD1963D409000040E1BF83D7ED
:10336000C400637BFB008397E40063877701A68535
:103370005285829A3369A90093848406E1BF19714A
:10338000A6DAAE848395E500A2DC86DE328463DCB7
:10339000050083D7C40023A0060093F707089DE328
:1033A0009307004015A0300836C6492DB246E342C7
:1033B00005FE7247BD67F98F7977BA9793B7170003
:1033C0009CC2F9BF930700041CC0F6506654D65443
:1033D00001450961828083D7C500011122CC06CE48
:1033E00026CA4AC8898B2E8489CF930774041CC0CF
:1033F0001CC885475CC8F2406244D244424905611A
:10340000828074003000AA849D3FA2452A892685C7
:10341000392201ED8317C40013F7072069FFF19BE0
:1034200093E727002316F400C9B797070000938796
:1034300007D99CD48357C40008C008C893E707087D
:103440002316F400A2475CC8B24789CF8315E40075
:103450002685192D01C98357C400F19B93E71700F6
:103460002316F4008357C4003369F900231624019E
:1034700059B7CDC583A7C5FF411122C406C626C2D0
:103480001384C5FF63D307003E94AA84B92597E748
:10349000FE5F9387A7679C4389EF2322040097E789
:1034A000FE5F23A587662244B240268592444101EF
:1034B00035A5637EF40014403307D4006396E7001B
:1034C0009843DC43369718C05CC0D1BFBA87D84355
:1034D00019C3E37DE4FE94433386D700631F86005F
:1034E0001040B29694C33386D700E31EC7FA104348
:1034F0005843B29694C3D8C37DB76375C400B1472F
:103500009CC055B71040B306C4006316D7001443DF
:103510005843B29614C058C0C0C371B7828001111D
:1035200026CA93843500F19806CE22CC4AC84EC6EE
:10353000A104B14763F7F404B14463E6B4042A89F3
:10354000692B97E7FE5F9387675C98433A8431E481
:1035500097E7FE5F9387C75B9C4381EB81454A8574
:10356000452697E7FE5F23A5A75AA6854A85492EDB
:10357000FD5963193507B1472320F9004A85B92B56
:1035800029A0E3DC04FAB1471CC10145F2406244C2
:10359000D2444249B249056182801C40858F63C094
:1035A0000704AD4663F6F6001CC03E9404C001A8B3
:1035B0005C406314870217E7FE5F2329F7544A85AE
:1035C000312B1305B4009307440061993307F5408C
:1035D00055DF3A94898F1CC055BF5CC3CDB7228795
:1035E0004040B5B7130435007198E30185FCB3057D
:1035F000A4404A853126E31B35FBB5BF1C46FD17A9
:103600001CC663DA0700184E63C5E700A947639438
:10361000F5006FF02FFC1C422E851387170018C28F
:103620002380B7008280011122CC26CA4AC84EC628
:1036300052C406CE2A89AE893284B304D6007D5A9C
:1036400063149400014509A8834504004E864A8509
:1036500075370504E31645FFF2406244D2444249FF
:10366000B249224A05618280357122CD26CB4AC9F2
:103670004EC706CF52C556C35AC1DEDEE2DCE6DADB
:10368000AA89AE843289368401C51C4D91E3AD3ED2
:1036900097D7FFFF9387C7E1639BF40C83A449008E
:1036A00083D7C400A18BF5C79C48E5C793070002E8
:1036B000A304F1029307000302D22305F10222C6FC
:1036C000930B500297DAFFFF938A8AE2054C294B4D
:1036D0004A848347040099C36390770FB30C244155
:1036E000638D0C00E6864A86A6854E852D3FFD57E4
:1036F0006306F51E9256E69636D283470400638F22
:10370000071CFD571309140002C802CE3ECA02CCA2
:10371000A309010482D483450900154656854D2628
:1037200013041900C24759E913F7070109C7130722
:103730000002A309E10413F7870009C71307B002C9
:10374000A309E104834609001307A0026380E60889
:10375000F2474A8481462546034704009305140036
:10376000130707FD6379E60AB5CA3ECE85A897D749
:10377000FFFF9387E7D56395F40083A489000DB715
:1037800097D7FFFF9387C7D0E39CF4F083A4C900C9
:1037900001BFA6854E85EFF0EFEF09D97D55FA40C0
:1037A0006A44DA444A49BA492A4A9A4A0A4BF65BB9
:1037B000665CD65C0D618280050421BF33055541EE
:1037C0003315AC00C98F3EC82289B1B73247930682
:1037D0004700184336C6634907023ACE0347040040
:1037E0009307E002631FF704034714009307A00246
:1037F000631BF702B2470904138747009C433AC68C
:1038000063C107023ECA35A83307E04093E72700AB
:103810003ACE3EC8E1B7B387670385462E84BA9790
:1038200025BFFD57C5B7050402CA81468147254615
:103830000347040093051400130707FD6376E606AB
:10384000F1F2834504000D4617D5FFFF1305C5CAE5
:10385000852C11CD97D7FFFF938707CA1D8D93073E
:103860000004B397A700424505045D8D2AC883452F
:103870000400194617D5FFFF130545C813091400A6
:103880002304B102352C3DC197C7FEDF93878777AC
:1038900095E74247B2471377071009CF91073EC615
:1038A0009257D2973ED22DB5B387670385462E84B3
:1038B000BA97BDBF9D07E19BA107D5B778009706D2
:1038C0000000938686D626860C084E859700000059
:1038D000E7000000FD572A8AE314F5FC83D7C400F3
:1038E00093F70704E39C07EA125555BD7800970645
:1038F0000000938686D326860C084E85FD24D9BF0A
:10390000411122C42A842E8523A2019206C6EF20EB
:10391000304EFD576317F500938741929C4391C346
:103920001CC0B240224441018280411122C42E8435
:103930008395E50006C6992B634905007C48AA9744
:103940007CC8B2402244410182808357C4007D7705
:103950007D17F98F2316F400EDB783D7C500011149
:1039600022CC26CA4AC84EC606CE93F70710AA84B0
:103970002E843289B68991C78395E5008946014630
:10398000092A8357C4007D777D17F98F2316F40029
:103990008315E4006244F240CE864A86B249424929
:1039A0002685D24405613DA8411122C42E84839509
:1039B000E50006C6F928FD570357C400631BF50050
:1039C000FD77FD17F98F2316F400B2402244410120
:1039D00082808567D98F2316F40068C8FDB7839568
:1039E000E50005A8411122C42A842E85B2853686B9
:1039F00023A2019206C6EF20F041FD576317F500A0
:103A0000938741929C4391C31CC0B2402244410120
:103A10008280411122C42A842E8523A2019206C6E7
:103A2000EF209037FD576317F500938741929C4331
:103A300091C31CC0B240224441018280411122C482
:103A40002A842E85B28523A2019206C6EF20103665
:103A5000FD576317F500938741929C4391C31CC0A7
:103A6000B240224441018280411122C42A842E8521
:103A700023A2019206C6EF20B034FD576317F5006C
:103A8000938741929C4391C31CC0B24022444101A0
:103A90008280411122C42A842E85B285368623A2D3
:103AA000019206C6EF205032FD576317F500938749
:103AB00041929C4391C31CC0B24022444101828088
:103AC00093F5F50F2A966314C5000145828083475C
:103AD0000500E38DB7FE0505FDB782808280797110
:103AE00056CA9C49BA8A984522D426D24ECE52CC88
:103AF00006D64AD05AC85EC6AA892E84B284368AAF
:103B000063D3E700BA879CC00347340419C3850711
:103B10009CC01C4093F7070281C79C4089079CC04A
:103B20000329040013796900631A0900130B940137
:103B3000FD5B5C449840998F634CF9041C408346BC
:103B4000340493F70702B336D000A5EB1306340410
:103B5000D2854E85829AFD576303F5041C401146B9
:103B60009840998B544481446397C700B384E640DE
:103B700063D3040081441C4418486354F700998FB0
:103B8000BE94014969047D5B63982405014509A839
:103B900085465A86D2854E85829A631E75017D556B
:103BA000B250225492540259F249624AD24A424BCC
:103BB000B24B456182800509ADBF3307D4001306BF
:103BC0000003A301C7040347540493871600A29778
:103BD0008906A381E7049DBF85462286D2854E854E
:103BE000829AE30E65FB050945B7797122D426D286
:103BF0004AD04ECE06D652CC56CA5AC8B68983C6CB
:103C000085019307E0063289AA842E841386350441
:103C10006380F61E63E2D706930730066382F60AD6
:103C200063EDD700638A061E930780056386F61648
:103C3000930A24042301D40469A8930740066386E9
:103C4000F60093079006E395F6FE1C40084393F6B2
:103C5000070893054500C1C21C410CC363D8070087
:103C60001307D002B307F040A301E40497D6FFFF87
:103C700093864689294765A0930730076382F61A21
:103C800063EFD7009307F006638FF60493070007EE
:103C9000E390F6FA9C4193E707029CC109A89307B9
:103CA00050076382F60493078007E393F6F89307BF
:103CB0008007A302F40497D6FFFF9386E685DDA074
:103CC0001C43938A2504938647009C4314C3238195
:103CD000F5048547ADA293F607041C410CC3BDDE75
:103CE000C207C187A5BF0C401C4313F80508138504
:103CF00047006305080008C39C4339A093F50504F9
:103D000008C3FDD983D707001307F006638AE60CC2
:103D100097C6FFFF9386067F2947A30104044C4002
:103D20000CC463C5050008406D9908C099E3B28AC8
:103D300091CDB28AB3F5E702FD1AB69583C50500A9
:103D40002380BA00B3D5E70263F2E70AA147631EF6
:103D5000F7001C40858B91CB58401C4863C7E70097
:103D600093070003A38FFAFEFD1A3306564110C8CD
:103D70004E87CA867000A285268595337D5A6314C6
:103D8000450D7D55B250225492540259F249624A6F
:103D9000D24A424B45618280A382D50497C6FFFF79
:103DA000938646760C40084313F805081C4111051C
:103DB0006300080208C313F7150001C793E5050265
:103DC0000CC04147B9FB0C4093F5F5FD0CC0B1B7F1
:103DD00013F8050408C3E30008FEC207C183E1BF6E
:103DE00097C6FFFF93860672214705BFAE8799B736
:103DF00094411C43CC4913F8060813854700630619
:103E0000080008C39C438CC301A808C393F60604AA
:103E10009C43F5DA2390B70023280400B28A89BFB7
:103E20001C43D04181459386470014C383AA0700F1
:103E30005685793101C53305554148C05C401CC8E1
:103E4000A301040435B714485686CA85268582998D
:103E5000E30945F31C40898B8DE7B2474844E3539F
:103E6000F5F23E8505B785465686CA852685829930
:103E7000E30965F1050A5C443247998FE345FAFE90
:103E8000E9BF014A930A94017D5BF5B7411122C451
:103E90002A842E85B285368623A2019206C6EF209B
:103EA000E073FD576317F500938741929C4391C3DC
:103EB0001CC0B240224441018280AE8732883687DE
:103EC0002A836396062097C8FFFF9388286663FEBF
:103ED000C50A41676374E60A1307F00F3337C7005A
:103EE0000E07B356E600B69883C6080036979306C9
:103EF0000002998E99CAB397D7003357E50033185B
:103F0000D600B365F7003313D5001355080133F716
:103F1000A50213160801418293560301B3D5A502E9
:103F20004207D98EB307B6022E8763FCF600C2960D
:103F30001387F5FF63E7060163F5F6001387E5FFD6
:103F4000C2969D8EB3F7A602420313530301B3D664
:103F5000A602C20733E36700B305D6023685637B4A
:103F6000B30042931385F6FF636603016374B300E5
:103F70001385E6FF4207498F81454DA8B70600012A
:103F80004147E360D6F66147A9BF01E6854633D8CD
:103F9000C602C166637ED8089306F00F63F306017C
:103FA0002147B356E800B69883C60800BA961307AF
:103FB0000002158F49E7B38707418545135608016D
:103FC0009318080193D808019356030133F7C702E9
:103FD000B3D7C7024207D98E3385F8023E8763FC08
:103FE000A600C2961387F7FF63E7060163F5A600F4
:103FF0001387E7FFC296898EB3F7C60242031353B5
:104000000301B3D6C602C20733E36700B388D80200
:104010003685637B130142931385F6FF63660301C4
:10402000637413011385E6FF4207498F3A85828046
:10403000B70600014147E366D8F661479DB73318DC
:10404000E800B3D5D7003313E500B356D5001355B8
:104050000801B397E70033F7A502B3E8F60093171A
:104060000801C18313D60801B3D5A5024207518FB9
:10407000B386B7022E86637CD70042971386F5FF7E
:10408000636707016375D7001386E5FF4297B306A0
:10409000D74033F7A602C20893D80801B3D6A602C8
:1040A0004207B385D702B3671701368763FCB700B1
:1040B000C2971387F6FF63E7070163F5B70013871D
:1040C000E6FFC2978D8F93150601D98DC5BD63E2BA
:1040D000D514416763FEE6021308F00F3337D800AA
:1040E0000E0733D8E60097C5FFFF93852544C29598
:1040F00003C80500930500023A98B385054185E1A0
:104100000547E3E5F6F23335C5001347150039BF1F
:10411000B70500014147E3E6B6FC6147D9B733571D
:104120000601B396B600D98E93DE060133D7070198
:10413000B378D703B397B700335805013363F8005A
:1041400093970601C183135803013316B600335702
:10415000D703C20833E80801338FE7023A8E637C45
:10416000E8013698130EF7FF6367D8006375E8011E
:10417000130EE7FF36983308E841B378D803335875
:10418000D803C208B38E070393170301C183B3E7B3
:10419000F800428763FCD701B6971307F8FF63E77F
:1041A000D70063F5D7011307E8FFB697420EB38730
:1041B000D741C16E3367EE001388FEFF33730701EA
:1041C00093580701337806014182330E0303338885
:1041D000080393560E013303C30242939A96B388A1
:1041E000C80263F30601F69813D60601B29863E09D
:1041F0001703E39317D9C167FD17FD8EC206337EFF
:10420000FE003315B500F2968145E371D5E27D17C6
:10421000A5B38145014719BD1C4103A38700028353
:104220001C4103A3C70002831C4103A307010283AF
:104230001C4103A3470102831C4103A3C70202835D
:1042400001E503A58180828001458280732540F1CC
:1042500082801C4103A3070002831C4103A3C70102
:1042600002831C4103A3470202831C4103A387026C
:1042700002831C4103A3470002831C4103A3870060
:1042800002831C4103A3C7000283197186DEA2DCEE
:10429000A6DACAD81DC995C92E84AA856800EF2060
:1042A000A04CA28537140080680013040406EF2098
:1042B00020481309C40004406C009C4026859C43A0
:1042C000829709E51104E31824FF8144F6506654EF
:1042D00026854659D65409618280B7270080938786
:1042E00047AB370700026383A70001478E05BA95E5
:1042F000116793074700AE977D5588C3BA9590C163
:1043000094C3014582807D5582806F009075411174
:1043100006C6732540F12D37B240410131BF01116E
:1043200006CE2EC6ED3719C9B24505476368B700FA
:104330001C41F24003A3470005610283F2407D5512
:10434000056182800111B72700804AC806CE22CCC1
:1043500026CA4EC6938747AB01496313F500094946
:10436000444181E82A84B7190080639B2401854772
:104370005CC0F2406244D2444249B2490561828045
:104380008D4591C09D4583A7090CA2860146DC4F4F
:104390001385090C85048297C9BFA9C5011122CCD8
:1043A0002EC606CE2A84A537B7270080938747AB51
:1043B000B2456314F402B71700809387070C631E9D
:1043C000F50093F7B5FF8D466399D7001C41624411
:1043D000F24003A3870205610283F24062447D55E7
:1043E000056182807D558280A9C5011122CC2EC62F
:1043F00006CE2A84293FB7270080938747ABB24572
:104400006314F402B71700809387070C631EF5004E
:1044100093F7B5FF8D466399D7001C416244F24083
:1044200003A3470205610283F24062447D550561A2
:1044300082807D55828001112EC632C436C206CEDE
:1044400022CC26CAAA84EF00D0612A84C935B727B6
:104450000080938747AB92462246B2456395F400AD
:10446000854763F88700F2406244D2447D55056178
:104470008280B71700809387070C2A87E315F5FE23
:1044800093F7B5FF0D48E39007FF1C436244F240E9
:10449000D24403A3C70105610283372700801307B5
:1044A00047ABB70700026303A7008147B1661387D4
:1044B000C6FFE1163E97B697144388430C43E39D2D
:1044C000D5FE8280B7270080938747AB01476314EE
:1044D000F5003707000289476386F50463C8B70013
:1044E00085476382F502FD573E8582808D47638450
:1044F000F5049147E399F5FE81477DD61C428A0772
:10450000BA979C43D5B7FD5765D2411122C406C660
:104510003284613708C04CC0B240224481473E8596
:1045200041018280FD5769D21C428A07BA9723A0B5
:104530000700814755BFFD5745DA1C428A07BA97E5
:10454000054798C30F0080049C43E5B7011106CED0
:1045500022CC2A84E5392AC67000228589459D37F8
:10456000F240624405618280011106CE22CC2A8489
:10457000F1392AC6700022858D45A937F240624480
:1045800005618280AA85F32740F11397270093875E
:104590000183BA978843F32720340DC593F7F73F7B
:1045A000138741819387870E631BE50037170080CF
:1045B0008A071307070CBA9703A3070002838A0729
:1045C0009C43029082808280000000000000000076
:1045D00000000000000000000000000000000000DB
:1045E00000000000000000000000000000000000CB
:1045F00000000000000000000000000000000000BB
:10460000397106DE16DC1ADA1ED82AD62ED432D23A
:1046100036D03ACE3ECC42CA46C872C676C47AC2BA
:104620007EC0F32740F11397270093870183BA9741
:10463000944373262034F3271034F3273034732740
:1046400050308DC6938741816385F6048147137589
:10465000F63F635D0606930600086311D50403A7C1
:10466000073983A58739130500080297F250E252F3
:104670005253C2533255A255125682567247E247E0
:104680005248C248324EA24E124F824F21617300EF
:104690002030B71700809387070C55BFAD4663D510
:1046A000A6001377F70311EB61473307E502BA97CA
:1046B00003A7070983A587094DBF8946E318D7FAE1
:1046C00073277030184383A5C70D45B71307850EB0
:1046D0000A07BA979C43AA853685829741BF000096
:1046E00000000000000000000000000000000000CA
:1046F0000000000000000000000001458280F3255A
:1047000000B8732500B0F32700B8E39AF5FE828065
:1047100011CD938741816306F50001459355F5411D
:1047200082803725F40013050540CDBF0145814542
:1047300082800111814701483EC406CE42C693875C
:104740004181639CA700B717008003A5C71F11C54F
:104750001C4130008545FC478297F2402245B24516
:104760000561828037250080130545AB82801D4599
:1047700082800D458280011106CE2EC6938741812D
:104780006391A702B717008083A7C7197D5599C702
:10479000984370008D4578473E850297F240056149
:1047A00082807D55E5BF011106CE2EC693874181DB
:1047B0006391A702B717008083A7C7197D5599C7D2
:1047C00098437000894578473E850297F24005611D
:1047D00082807D55E5BF011106CE2EC693874181AB
:1047E0006391A702B717008083A7C719014599C72E
:1047F00098437000914578473E850297F2400561E5
:1048000082800145E5BF938741816384A70001450C
:104810008280371500801305050C828083D7050040
:104820000D4711458D8B6383E70009458280732511
:104830001034828073901534014582800145828056
:1048400041111305400606C6EF10904141111305B2
:10485000800C06C6EF10D04093874181B2862E8629
:10486000639CA700B717008003A5C71F11C51C4193
:10487000814503A3070502837D558280411106C649
:1048800022C4F32740F101446348F0001397270046
:1048900093870183BA9780432285613D9307A500E2
:1048A00033B5A7003306B50022852244B240BE8549
:1048B00041015DB75C41A9EF93070509130705396D
:1048C00023A0070023A2070023A40700E107E39920
:1048D000E7FE375701209307053A9306053D130776
:1048E000078498C39107E39EF6FE73275030B707FD
:1048F000012093878717631BF700F3275030B747D2
:10490000012093870760F19B7390573085475CC106
:104910008280938741816392A702AD477D5563CF23
:10492000B70009CEB71700809385850E9387070CD3
:104930008A05BE9590C1014582807D5582803725CC
:104940000080130545AB828081EDF3275030B747D7
:10495000012093870760F19B739057300145828057
:1049600085477D55E39DF5FEF3275030B76701205D
:104970009387074893E71700C5B7732540F18280F6
:1049800039712AD61305C01206DE16DC1ADA1ED8D3
:104990002ED432D236D03ACE3ECC42CA46C872C6A7
:1049A00076C47AC27EC0EF10B02B397106DE16DCF9
:1049B0001ADA1ED82AD62ED432D236D03ACE3ECCEF
:1049C00042CA46C872C676C47AC27EC0F32740F196
:1049D0001397270093870183BA97984319CF93873A
:1049E0004181631FF702B71700809387070C03A765
:1049F000870D83A5070E0D450297F250E2525253E0
:104A0000C2533255A255125682567247E247524857
:104A1000C248324EA24E124F824F216173002030A5
:104A20008327000E0290397106DE16DC1ADA1ED8D2
:104A30002AD62ED432D236D03ACE3ECC42CA46C83E
:104A400072C676C47AC27EC0F32740F1139727005E
:104A500093870183BA97984319CF93874181631F46
:104A6000F702B71700809387070C03A7871383A566
:104A700007141D450297F250E2525253C253325569
:104A8000A255125682567247E2475248C248324EE9
:104A9000A24E124F824F21617300203083270014F1
:104AA0000290397106DE16DC1ADA1ED82AD62ED408
:104AB00032D236D03ACE3ECC42CA46C872C676C44E
:104AC0007AC27EC0F32740F11397270093870183B2
:104AD000BA97984319CF93874181631FF702B7179D
:104AE00000809387070C03A7072183A587214145F1
:104AF0000297F250E2525253C2533255A255125607
:104B000082567247E2475248C248324EA24E124F76
:104B1000824F2161730020308327802102903971F8
:104B200006DE16DC1ADA1ED82AD62ED432D236D0B9
:104B30003ACE3ECC42CA46C872C676C47AC27EC05D
:104B4000F32740F11397270093870183BA9798437F
:104B500019CF93874181631FF702B71700809387AE
:104B6000070C03A7872283A5072345450297F25028
:104B7000E2525253C2533255A255125682567247D0
:104B8000E2475248C248324EA24E124F824F216134
:104B900073002030832700230290397106DE16DC73
:104BA0001ADA1ED82AD62ED432D236D03ACE3ECCFD
:104BB00042CA46C872C676C47AC27EC0F32740F1A4
:104BC0001397270093870183BA97984319CF938748
:104BD0004181631FF702B71700809387070C03A773
:104BE000072483A5872449450297F250E252525385
:104BF000C2533255A255125682567247E247524866
:104C0000C248324EA24E124F824F216173002030B3
:104C1000832780240290397106DE16DC1ADA1ED84A
:104C20002AD62ED432D236D03ACE3ECC42CA46C84C
:104C300072C676C47AC27EC0F32740F1139727006C
:104C400093870183BA97984319CF93874181631F54
:104C5000F702B71700809387070C03A7872583A562
:104C600007264D450297F250E2525253C253325535
:104C7000A255125682567247E2475248C248324EF7
:104C8000A24E124F824F21617300203083270026ED
:104C90000290397106DE16DC1ADA1ED82AD62ED416
:104CA00032D236D03ACE3ECC42CA46C872C676C45C
:104CB0007AC27EC0F32740F11397270093870183C0
:104CC000BA97984319CF93874181631FF702B717AB
:104CD00000809387070C03A7072783A587275145E3
:104CE0000297F250E2525253C2533255A255125615
:104CF00082567247E2475248C248324EA24E124F85
:104D0000824F216173002030832780270290397100
:104D100006DE16DC1ADA1ED82AD62ED432D236D0C7
:104D20003ACE3ECC42CA46C872C676C47AC27EC06B
:104D3000F32740F11397270093870183BA9798438D
:104D400019CF93874181631FF702B71700809387BC
:104D5000070C03A7872883A5072955450297F2501A
:104D6000E2525253C2533255A255125682567247DE
:104D7000E2475248C248324EA24E124F824F216142
:104D800073002030832700290290397106DE16DC7B
:104D90001ADA1ED82AD62ED432D236D03ACE3ECC0B
:104DA00042CA46C872C676C47AC27EC0F32740F1B2
:104DB0001397270093870183BA97984319CF938756
:104DC0004181631FF702B71700809387070C03A781
:104DD000072A83A5872A59450297F250E252525377
:104DE000C2533255A255125682567247E247524874
:104DF000C248324EA24E124F824F216173002030C2
:104E00008327802A0290397106DE16DC1ADA1ED852
:104E10002AD62ED432D236D03ACE3ECC42CA46C85A
:104E200072C676C47AC27EC0F32740F1139727007A
:104E300093870183BA97984319CF93874181631F62
:104E4000F702B71700809387070C03A7872B83A56A
:104E5000072C5D450297F250E2525253C25332552D
:104E6000A255125682567247E2475248C248324E05
:104E7000A24E124F824F2161730020308327002CF5
:104E80000290397106DE16DC1ADA1ED82AD62ED424
:104E900032D236D03ACE3ECC42CA46C872C676C46A
:104EA0007AC27EC0F32740F11397270093870183CE
:104EB000BA97984319CF93874181631FF702B717B9
:104EC00000809387070C03A7072D83A5872D6145D5
:104ED0000297F250E2525253C2533255A255125623
:104EE00082567247E2475248C248324EA24E124F93
:104EF000824F2161730020308327802D0290397109
:104F000006DE16DC1ADA1ED82AD62ED432D236D0D5
:104F10003ACE3ECC42CA46C872C676C47AC27EC079
:104F2000F32740F11397270093870183BA9798439B
:104F300019CF93874181631FF702B71700809387CA
:104F4000070C03A7872E83A5072F65450297F2500C
:104F5000E2525253C2533255A255125682567247EC
:104F6000E2475248C248324EA24E124F824F216150
:104F7000730020308327002F0290397106DE16DC83
:104F80001ADA1ED82AD62ED432D236D03ACE3ECC19
:104F900042CA46C872C676C47AC27EC0F32740F1C0
:104FA0001397270093870183BA97984319CF938764
:104FB0004181631FF702B71700809387070C03A78F
:104FC000073083A5873069450297F250E252525369
:104FD000C2533255A255125682567247E247524882
:104FE000C248324EA24E124F824F216173002030D0
:104FF000832780300290397106DE16DC1ADA1ED85B
:105000002AD62ED432D236D03ACE3ECC42CA46C868
:1050100072C676C47AC27EC0F32740F11397270088
:1050200093870183BA97984319CF93874181631F70
:10503000F702B71700809387070C03A7873183A572
:1050400007326D450297F250E2525253C253325525
:10505000A255125682567247E2475248C248324E13
:10506000A24E124F824F21617300203083270032FD
:105070000290397106DE16DC1ADA1ED82AD62ED432
:1050800032D236D03ACE3ECC42CA46C872C676C478
:105090007AC27EC0F32740F11397270093870183DC
:1050A000BA97984319CF93874181631FF702B717C7
:1050B00000809387070C03A7073383A587337145C7
:1050C0000297F250E2525253C2533255A255125631
:1050D00082567247E2475248C248324EA24E124FA1
:1050E000824F216173002030832780330290397111
:1050F00006DE16DC1ADA1ED82AD62ED432D236D0E4
:105100003ACE3ECC42CA46C872C676C47AC27EC087
:10511000F32740F11397270093870183BA979843A9
:1051200019CF93874181631FF702B71700809387D8
:10513000070C03A7873483A5073575450297F250FE
:10514000E2525253C2533255A255125682567247FA
:10515000E2475248C248324EA24E124F824F21615E
:1051600073002030832700350290397106DE16DC8B
:105170001ADA1ED82AD62ED432D236D03ACE3ECC27
:1051800042CA46C872C676C47AC27EC0F32740F1CE
:105190001397270093870183BA97984319CF938772
:1051A0004181631FF702B71700809387070C03A79D
:1051B000073683A5873679450297F250E25252535B
:1051C000C2533255A255125682567247E247524890
:1051D000C248324EA24E124F824F216173002030DE
:1051E000832780360290397106DE16DC1ADA1ED863
:1051F0002AD62ED432D236D03ACE3ECC42CA46C877
:1052000072C676C47AC27EC0F32740F11397270096
:1052100093870183BA97984319CF93874181631F7E
:10522000F702B71700809387070C03A7873783A57A
:1052300007387D450297F250E2525253C25332551D
:10524000A255125682567247E2475248C248324E21
:10525000A24E124F824F2161730020308327003805
:105260000290F327503093F7F703FD1709470145E4
:105270006367F70013874183BA9703C507008280ED
:10528000CDB7AD476308F50263CBA7000D4785474F
:105290006305E5006515933715003E85828041471B
:1052A0008147E34CE5FE7D478547E358A7FE13059C
:1052B00005F8D5B78547D5B7011122CC2A842E85AC
:1052C00026CA4AC84EC606CEAE84B2893689553F34
:1052D000D55701C993070008639AF4085937CD5789
:1052E0002DCDF2406244D2444249B2493E85056127
:1052F000828023283439232C243909A8E145B3843A
:10530000B402269423283409232C24098147D1BFD1
:10531000138704FFBD46D157E3E5E6FCE145B384BE
:10532000B402B75701209387C78426942328F40832
:10533000232A2409E1BFB747012093874758232C2C
:10534000F40C232E240DD9B7B75701209387C787B4
:10535000232CF412232E241355BFE39C09F8B747DE
:1053600001209387675C2328F43871B7E39809F824
:10537000AD47E385F4FAE3CD97F88D47E38DF4FA72
:105380009D47E383F4FCD157A9BF11C99D47638AA8
:10539000F50463E8B7009DC58D47638FF5027D5620
:1053A00015A8AD476382F504E3EBF5FE938705FF8F
:1053B0003D47E366F7FE8547B395B7000DCEF3A5ED
:1053C000453029A0A14709C6F3A70730014619A017
:1053D000F3B7073032858280A14719CAF3A7473057
:1053E000F5B793070008D5BF856793870780F5B7A2
:1053F000F3B74730C5B7F3B54530E9BF054671B7D8
:10540000014661B7B717008093870749639DA700DE
:1054100099477D5563EAC700B707000C8A05BE951A
:1054200090C1014582807D558280B71700809387A7
:1054300007496387A70081478A05BE958841828016
:10544000B707000CD5BF41111305C01206C6EF10F7
:1054500020010111B717008022CC06CE26CA4AC807
:105460004EC652C4938707492A8401476314F50046
:10547000130750037D5563D5E502B689328AAE84A1
:105480001399250015C622850946AD3FE145B38431
:10549000B40222992324490126942328340F01457C
:1054A000F2406244D2444249B249224A05618280B4
:1054B00022850546813FE145B384B402B7570120F8
:1054C0002299938767442324F90026942326340FD6
:1054D000F9B7B71700809387074901476394A7007E
:1054E0003707000CB70720009107B205BE95BA95A3
:1054F00088418280B7170080938707493707000CDF
:105500006383A7000147B7072000B2059107BE9546
:10551000BA9590C18280011106CE22CC26CA2E8473
:10552000EFF0AFC53335A000B304A040A6852285B7
:105530004D37B7170080938707492A866314F40212
:105540009307400363E0A70293172500A2979847AB
:1055500011CBE147B307F5022AC6A29783A5070F2F
:105560000297324622856244F240A685D244056104
:1055700051B7B7170080938707493707000C63833B
:10558000A7000147B7072000B205BE95BA9590C1A4
:1055900001458280011122CC06CE2A842EC6EFF06E
:1055A000CFBDAA85228562443246F2400561D1B75B
:1055B000011122CC26CA4AC84EC652C406CEAA89B8
:1055C000328A2E8981440144631B0900F2406244FF
:1055D00026854249D244B249224A0561828009C8DF
:1055E0005286A2854E857137058933158500C98C91
:1055F000050413591900C9BFB717008093870749DD
:10560000638AA700814737072000B205BA95BE9587
:1056100088418280B707000CFDB7411122C406C63D
:105620002A84EFF08FB5AA8522852244B240410139
:10563000E1B7411106C6C937B24001454101828038
:1056400037170080130707493708000C6303A700CA
:105650000148135756400A0793977500BA97096790
:10566000BA97C2978C4305473316C70089C64D8E3B
:1056700090C3014582801346F6FF6D8ED5BF0111A0
:1056800026CA444106CE22CC4AC84EC652C456C28F
:105690005AC099C8F2406244D2444249B249224AAF
:1056A000924A024B05618280B717008093870749B1
:1056B000930A50036303F500814A3719008083275A
:1056C000090C2A841305090C9C439309C40E130A80
:1056D000090C8297130B004081462686814522855E
:1056E000853763DF54010146A6852285213B9397C8
:1056F0002400A29723A4070023A0090023A20900E5
:105700008504E109E39A64FD0146814522859535CA
:1057100083270A00A2860146DC4FAD451305090C1C
:10572000829783270A0037560120A286DC4F130692
:105730006651AD451305090C829783270A00AD45D4
:105740001305090CDC53829785475CC0A1B7B717D6
:1057500000809387074901476314F500130750033E
:10576000FD5763D4E502011106CE22CC2EC62A8451
:10577000EFF0AFA03246AA8585462285D135F240AA
:10578000624481473E85056182803E858280B717ED
:1057900000809387074901476314F50013075003FE
:1057A000FD5763D4E502011106CE22CC2EC62A8411
:1057B000EFF0AF9C3246AA85814622855135F240F2
:1057C000624481473E85056182803E858280011169
:1057D000B717008006CE22CC26CA4AC84EC652C48D
:1057E0009387074901476314F50013075003FD54DD
:1057F0006358E600328AAA892E848144014911E85F
:10580000F240624426854249D244B249224A0561A7
:105810008280630B090085465286CA854E850D3508
:10582000058933152501C98C05090580C9BF0111FA
:10583000B717008006CE22CC26CA4AC84EC652C42C
:105840009387074901476314F50013075003FD547C
:105850006358E600328AAA892E848144014911E8FE
:10586000F240624426854249D244B249224A056147
:105870008280630B090081465286CA854E85C933F2
:10588000058933152501C98C05090580C9BF83A782
:105890008184411122C406C681451385C182829745
:1058A0002A84931714007D5563DF0700635D0400AD
:1058B00037150080130545081374F403EF00903189
:1058C000050433558502B240224441018280C1B7AC
:1058D00083A78184411106C691451385C1828297B1
:1058E0009317150063DC0700635A0500B2403715B3
:1058F00000801305C50641016F00D02DB2407D55D3
:1059000041018280F1B71385C18282802145828066
:10591000411122C42A84484106C6EF007028B78787
:10592000001098479316F70063D706009847C17692
:10593000FD16758F98C7378700101C47B706020001
:10594000B725F400D58F1CC71C40228593850540E0
:10595000DC43829708442244B24041016F00502446
:10596000011106CE22CC26CA2A844D372AC62285AA
:10597000593F83A48184B24582942A84B14513851A
:10598000C18282949317F40063CC07006244F24012
:10599000D244371500801305050905616F00902377
:1059A0009317E400AA8463C5070637150080130522
:1059B0000509EF0030229317D40063C607049357FC
:1059C00044008566938606C093F7F7031377740047
:1059D0008507758C9306F03F0507860763FF8602EF
:1059E0003345E50229803305F50285473394870066
:1059F00093F704103345850299E793F4F403850483
:105A0000860433559502F2406244D2440561828097
:105A1000371500801305850769BF7D55EDB779718E
:105A200022D426D24AD006D64ECE52CCAA842E8973
:105A300037840010E13D2A941C401397F700635708
:105A400007001C4041777D17F98F1CC01C4013973D
:105A5000E700634D07023715008013050509EF00C5
:105A600070170D473307E50291463347D702634469
:105A7000E9029547B307F502B3C7D70263CD270103
:105A80001C4037070400D98F1CC021AA371500809D
:105A900013058507E9B7371701203708008013077A
:105AA0004700FD561348F8FF13063004FD551C4708
:105AB000636AF5025C4763E7A7021C43832847003B
:105AC000B307F502B3D71703638EB700B387274137
:105AD00093D8F741B3C7F800B387174163D40701E0
:105AE0003E88B2867D160117E313B6FC1C40E38A9C
:105AF000C6F8E19B1CC0B707012096069387477A3A
:105B0000B697984B10401D8B518F18C018401377D3
:105B1000F7C018C0D84B144012071377073F558FB2
:105B200018C01840FD769386F63F758F18C0984FC1
:105B3000104085662A07938606C0758F518F18C05E
